S01B000042544C5F534654505F494E542D3733302D6372632E733337E5
S315080000000810002009020008CD200008A7210008D2
S31508000010CD200008CD200008CD200008CD200008FE
S31508000020CD200008CD200008B4270008CD20000800
S31508000030CD200008FC270008CD200008CD200008A8
S31508000040CD200008CD200008CD200008CD200008CE
S31508000050CD200008CD200008CD200008CD200008BE
S31508000060CD200008B1010008C9200008CD200008ED
S31508000070CD200008CD200008CD200008CD2000089E
S31508000080CD200008CD200008CD200008CD2000088E
S31508000090CD200008F51A0008CD200008CD2000085C
S315080000A0CD200008CD200008CD200008CD2000086E
S315080000B0CD200008CD200008CD200008CD2000085E
S315080000C0CD200008CD200008CD200008CD2000084E
S315080000D0CD200008CD200008CD200008CD2000083E
S315080000E0CD200008CD200008CD200008CD2000082E
S315080000F0CD200008CD200008CD200008CD2000081E
S31508000100CD200008CD200008CD200008CD2000080D
S31508000110CD200008CD200008CD200008CD200008FD
S31508000120CD200008CD200008CD200008CD200008ED
S31508000130CD200008CD200008CD200008CD200008DD
S31508000140CD200008CD200008CD200008CD200008CD
S31508000150CD200008CD200008CD200008CD200008BD
S31508000160CD200008CD200008CD200008CD200008AD
S3150800017010B5054C237833B9044B13B1044800E095
S3150800018000BF0123237010BD1810002000000000D6
S31508000190B029000808B5034B1BB10349034800E022
S315080001A000BF08BD000000001C100020B029000890
S315080001B0014802F08BBA00BF34100020064B0748EE
S315080001C0DA1C121AC11E22F00302994288BF0022C5
S315080001D0034902F0C3BA00BF18100020101000200F
S315080001E0BC290008064B0748DA1C121AC11E22F061
S315080001F00302994288BF0022002102F0BCBA00BF60
S31508000200CC1100201810002008B5084B83F30A8883
S31508000210074B084AC3E9002200F00EF800F032FA4C
S31508000220FFF7CCFFFFF7DEFF00F0C2F90800002059
S3150800023008100020A5EDF5FE044B054A9A60D3F890
S31508000240882042F47002C3F88820704700ED00E069
S31508000250000000081FB500F1006303F5004303938F
S31508000260104B144698421BD8039A0F4B9A4217D242
S31508000270039A9B1AA34213D358B94FF000639B6A9B
S315080002800A4A5869904204D91869019100F0C0FADF
S3150800029001992246039804B0BDE8104001F020BF3A
S315080002A004B010BDFF7FFFF700E0170800800008C4
S315080002B07FB56FF0006200F17841914203461AD289
S315080002C06D460E4A02F110062C461068516808322F
S315080002D003C4B2422546F7D15A1E0DF10F010F335A
S315080002E011F8010912F8014F844204D19A42F7D154
S315080002F0012004B070BD0020FBE700BFA02700085E
S315080003002DE9F0410368044603F16043B3F5802FF5
S31508000310A0B034D84FF000639B6A42681E699642C3
S315080003202DD8394B9A422AD8456B06F14002AA4283
S3150800033068D89D4266D82846FFF7BAFF002861D0DC
S31508000340284601F000FF80B16B6973B1022B0FD10B
S31508000350AB69C4F1040119444FF0FF32204600F09E
S31508000360BBFE2A4BC31A5842584120B0BDE8F0815B
S3150800037040F2046328460493FFF79AFF08B9002061
S31508000380F3E7284601F0DFFE0028F8D04FF00067B3
S31508000390D7F834804046FFF78BFF0028EFD0503E51
S315080003A0B045ECD8284605A901F0D4FE0028E6D0C9
S315080003B0BA6A059B12699A42E1D89C42DFD8124A6A
S315080003C09342DCD806A800F049FF059A2146121B7D
S315080003D006A802F006F806A802F005F8059C00F043
S315080003E04DFF039000F068FF21460090039B04F13F
S315080003F0200206A800F0B2FE04900498B0FA80F035
S315080004004009B2E70120B0E700001808E320BBDE88
S3150800041070B54FF0FF3290B005460C4600F05CFE12
S315080004201C4B984232D14FF480621B4B00219A66CE
S3150800043001A81C2202F09FF9184B29466846043C7D
S31508000440009302F0F8F82146684602F0F4F8684688
S3150800045002F0FAF801F03BFE0646B8B940F202206F
S3150800046000F082F91C22314609A802F084F90C4BE7
S31508000470294608A8089302F0DEF808A8214602F0E3
S31508000480DAF808A802F0E0F801F021FE002010B022
S3150800049070BD00BFE320BBDE0090004001000543AD
S315080004A0010006434FF4806230B50446154B91B0FF
S315080004B09A6600211C2201A802F05DF9124B21461A
S315080004C06846009302F0B7F8684602F0BDF801F0F6
S315080004D0FEFD054698B940F2022000F045F91C22B7
S315080004E0294609A802F047F9084B08A821460893A7
S315080004F002F0A1F808A802F0A7F801F0E8FD00202C
S3150800050011B030BD009000400000024300000343D4
S315080005104FF4806210B50F4B8CB004469A660021E2
S315080005201C2205A802F027F90B4B0194049301231A
S3150800053002930A4B01A904A8039302F072F804A8CF
S3150800054002F082F801F0C3FDB0FA80F040090CB061
S3150800055010BD00BF009000400000084304000020C2
S31508000560004870470080000838B50C46054680B13B
S3150800057079B100230B60074B036002F01EF80130C7
S315080005801EBF2B6843F4C0432B60236843F4002343
S31508000590236038BD0C120008044B1846016881F325
S315080005A0088881F3098840688746FEE700600008E6
S315080005B013B501A801F042FC9DF80530012B14D1B2
S315080005C09DF804308BB94FF480122A4B2A49586E8D
S315080005D003F580535A664B6BC00223F0E05343F091
S315080005E040634B635CBF254B5A664FF04023D3F8F4
S315080005F08420110606D44FF400621A67D3F88420C3
S31508000600D206FBD401F0CBFD00F0A0F808B900F043
S3150800061085F801F03BFF044658B900F097F808B191
S3150800062000F08CF840F2012000F0C8F84FF4017091
S3150800063018E000F08BF808B900F078F800F0A0F898
S31508000640012802D900F06AF8FEE700F0A5F80C4B7D
S315080006500193019B002B0ADC40F205439C42E5D13D
S3150800066040F2032000F0AAF8002002B010BD019B5A
S31508000670013BEDE7008000400040004A00A0004032
S3150800068000350C0013B501244FF040238DF80640C1
S315080006908DF80740D3F894305B0610D500F0A2F821
S315080006A0A0F2022080B2072809D804FA00F010F058
S315080006B0C90F1EBF00238DF806308DF80730154B7D
S315080006C05B68013308D14FF4027000F04DF800233F
S315080006D08DF806308DF807309DF807305BB10D4868
S315080006E0FFF70EFE8DF806009DF806301BB94FF48D
S315080006F0027000F039F89DF806304BB100F026F884
S3150800070008B100F01BF80348034B9860FFF744FF55
S3150800071002B010BD0060000800ED00E04CF23C326B
S31508000720014B5A80704700BF000000204AF6C032CD
S31508000730014B5A80704700BF000000204FF20F029D
S31508000740014B5A80704700BF000000204AF6C030AF
S31508000750044B5B8823F00F039BB21B1A584258417F
S31508000760704700BF00000020044A08B51080FFF754
S31508000770EDFF10B94FF20F03538008BD00000020AB
S3150800078008B5FFF7E3FF18B1024B588800F00F00D1
S3150800079008BD00BF0000002008B5FFF7D7FF48B125
S315080007A0054A538803F00F010F2914BF013323F0BC
S315080007B00F03538008BD00BF0000002008B5FFF7EF
S315080007C0D3FFBFF34F8F0549054BCA6802F4E062B1
S315080007D01343CB60BFF34F8F00BFFDE700ED00E08A
S315080007E00400FA054FF20F01084B5A888A4201D1D4
S315080007F0188870473AB91B8840F20220012B18BFA7
S315080008004FF4007070474FF40070704700000020E6
S315080008104FF4803208B5044B9A6601F015FAB0FA1F
S3150800082080F0400908BD00BF00900040072BF8B5CE
S3150800083006460F4614461D4601D90020F8BD01217B
S31508000840202001F091F90121212001F08DF98CB1C8
S3150800085044EA06039B07F0D14FF48032064B314633
S315080008609A66284623463A4601F052FAB0FA80F0CC
S315080008704009E3E70120E1E700900040134610B580
S3150800088062B103439B070BD14FF48034054B9C663A
S3150800089001F002FAB0FA80F0400910BD0120FCE729
S315080008A00020FAE70090004030B500220C24064BE1
S315080008B004FB02F1CD58854201D1581830BD0132EA
S315080008C00C2AF5D10020F9E74C2800087FB500234B
S315080008D0CDE90033082315460DEB0302044601F063
S315080008E0FAFC41F203039842064626D194F84330AF
S315080008F063B10822E06C0DEB020101F072FD0823DA
S315080009000DEB03021146A06C01F05AFD039A029BF7
S315080009106A6094F843202B605AB9094A934208D072
S31508000920084A934205D00822E06C0DEB020101F05B
S3150800093058FD6B68236500236365304604B070BDB7
S31508000940F70A0AF7FC0404FC2DE9F743044658683D
S315080009500E4617469846002841D08B0742D14FF0DD
S3150800096000639B6A206E1B6902EB000C1D1D654522
S315080009701CD81C33984219D28542294638BF0146ED
S315080009809C4594BFC1EB0C02C1EB0302081AC5F1E2
S31508000990680506EB0009681820444946019201F0EB
S315080009A0DDFEFF214846019A01F0E5FE226E0F4B57
S315080009B09A420AD80E49B818884206D39B1AF258A2
S315080009C0C4F880204FF0FF32F2503A46D8E9003595
S315080009D0206E3146A8470020226E3A44226603B0AC
S315080009E0BDE8F08341F20200F9E700BF0480000881
S315080009F0088000082DE9F04100254FF0FF3704462E
S31508000A008846164603F0200380F842301822FF2154
S31508000A10C0E91855A0F8405080F84350A0F8445053
S31508000A2080F84650C0F88870683001F0A4FE882225
S31508000A302946C4E91286C4F88070C4F8847004F1A3
S31508000A40900001F098FE074BC4F82071C4E94635BA
S31508000A5084F8245116B1304600F000FC0020BDE8A9
S31508000A60F08100BF000101012DE9F04FA5B09846BD
S31508000A70CDE91123002304460E462E9D1393139A9F
S31508000A80424501D30020D1E094F84630132BF7D81D
S31508000A90DFE813F06700B400AE00520039002D00FD
S31508000AA0C4013900BC01390073013900BC01AB022D
S31508000AB01B03140012015102510219034FF00009D9
S31508000AC0636D0F2B00F298800127102314AA204685
S31508000AD0CDF80490009711A901F0FDFB41F203033C
S31508000AE00890089A9A4200F0D980089B45E04FF092
S31508000AF00109D4E91432934200F2E88084F846905A
S31508000B0041F2030339E04FF00109D4E91417B94259
S31508000B1072D9C91BDDE91272BF1A94F8402003295D
S31508000B20174440F28381032F00F28381204611A9DE
S31508000B3001F0B0FB002320E00127636D072BDFD807
S31508000B40082314AA2046CDE9007711A901F0C3FBB2
S31508000B5041F203030B900B9A9A4200F023810B9BF8
S31508000B600BE014AA204611A9FFF7B0FE41F20302D2
S31508000B700590059B934208D0059B049341F2030315
S31508000B80049A9A423FF47BAF4FE0159A149922656E
S31508000B9000226265A34A914240F01181022284F83C
S31508000BA04620EAE7012314AA009320460823019762
S31508000BB011A901F090FB41F203030690069A9A42A6
S31508000BC001D0069BD9E7149B03F07F43B3F1407F1E
S31508000BD005D0132384F8463041F20903CDE7159B67
S31508000BE0D90706D594F8423043F0010384F8423019
S31508000BF00027636D072BD5D901230CE1204614AADB
S31508000C0011A9FFF763FE41F203030790079F9F426E
S31508000C100FD0079F41F203030497049A9A423FF4C0
S31508000C202EAF049B0BB10023F370049825B0BDE8E2
S31508000C30F08F1498FFF738FE28B9132341F20807F6
S31508000C4084F84630E6E7437994F824219A4205D990
S31508000C50132341F20E0784F84630DBE7026872492F
S31508000C608A4205D00289D20748BF013384F8243165
S31508000C7094F84230D9070DD5028994F84330920783
S31508000C8006D53BB1132341F2010784F84630C1E784
S31508000C90002BF7D0037984F84630BBE7D4F848A090
S31508000CA000F028FB80230221CDE9000315AA3B4664
S31508000CB0504600F029FA03E7226D0123A2650022B7
S31508000CC084F84330E26584F84630D8E614AA20460C
S31508000CD0CDE9009911A901F0FEFA41F20303099042
S31508000CE0099A9A4201D0099B47E714AF06F108030F
S31508000CF00DF1680C3A4603CA6245186059601746F2
S31508000D0003F10803F6D110681860337843F001033D
S31508000D103370EEE6337843F004033370179BB362FF
S31508000D2073785F0726D5EB238DF8503017238DF897
S31508000D305130A6238DF852305E2300208DF85330AB
S31508000D40236D6066C4F8843094F8453043F0020396
S31508000D5084F84530EF686FB104222B6814A9B847A8
S31508000D600822606E2B68EF6816A91044B847636EB0
S31508000D70103363660B2384F84630636D072B3FF602
S31508000D80BFAE012316AACDE900332046082311A9D0
S31508000D9001F0A1FA41F203030A900A9A9A42B9D0DD
S31508000DA00A9BEAE6337843F002033370149B7360B8
S31508000DB0236D083B7362159BB3F1006F05D01323AF
S31508000DC084F8463041F20103D7E6042384F8463016
S31508000DD094F8453043F0010384F8453000236366F0
S31508000DE0ABE6042314AA2046CDE9007711A901F041
S31508000DF072FA41F203030C900C9A9A4201D00C9BAA
S31508000E00BBE6236D042B02D9149B23660127636D69
S31508000E10032BE6D9092384F8463071E60023636676
S31508000E20072350E7EB17A603F90707F98F42FFF4E4
S31508000E307DAE402928BF40218F4228BF0F46032F89
S31508000E4088BF27F003073B4614AA2046CDE9009938
S31508000E5011A901F040FA41F203030D900D9A9A4246
S31508000E6001D00D9B89E694F846A0BAF1070F04D184
S31508000E70D5F808B0BBF1000F1BD1042FC7F1040B3E
S31508000E8088BF4FF0000B14AB5A46FF21D81901F062
S31508000E9072FCBAF1090FBB4414D12B465A462046B8
S31508000EA014A9FFF751FD0D900D9B002B3FF42DAEB5
S31508000EB0D7E73A462B68606E14A9D847626E3A445B
S31508000EC0626622E6BAF1040F21D1737898077FF596
S31508000ED01CAEEB68002B3FF418AE626E042A0BD8E2
S31508000EE00BEB0203062B07D915AB9B1A1A68C4F835
S31508000EF084204FF0FF321A605A462B68606EEF68FE
S31508000F0014A9B847626E0BEB02076766FDE5BAF1EE
S31508000F100B0F7FF4FAAD737859077FF5F6ADD5F860
S31508000F200CA0BAF1000F3FF4F0AD5A462B68606E7C
S31508000F3014A9D047E6E74FF000618A6A496B12693F
S31508000F40503A91423FF63EAF112B0FD194F8183123
S31508000F50002B7FF451AE41F206030E930E9A9A4285
S31508000F6002D1132384F846300E9B06E694F84430E3
S31508000F70002B7FF441AECDE9003314AA4023204666
S31508000F8011A901F0A8F941F203030E900E9A9A42AC
S31508000F90EAD1E06C01F027FA94F81831A3B104F10C
S31508000FA0B403E06C00931CAA04F1940314A900F09E
S31508000FB0D5F80E900E9B9BB10023F370132384F88B
S31508000FC0463041F20603D8E5E76C00F057F903907E
S31508000FD000F072F9039B00901CAA384614A9E6E7AC
S31508000FE00123F37084F8443006E6002314AACDE9F9
S31508000FF000332046042311A901F06DF941F20303D9
S315080010000F900F9A9A4202D00F9B04930DE6D4F8DC
S3150800101088202F4B9A4205D0132384F8463041F294
S315080010200503F2E70123F37094F84530DA0707D58C
S31508001030EF682FB104222B68104604F18401B847E3
S3150800104094F845309B0707D5EF682FB104222B6823
S31508001050104604F18401B847236E6BB36F685FB31B
S315080010604FF0FF3304F18001042210A81093039176
S3150800107001F064FB20B104222B6803991548B84790
S3150800108004F168090422494610A801F057FB98B1F3
S315080010904FF000639B6A1422D3F8108004F16C01A8
S315080010A008F10800D5E90037B847D5E90037042222
S315080010B0494608EB0200B8470123B3700E2384F8AB
S315080010C046300023A1E70023F37041F20700ADE59F
S315080010D0E320BBDE0480000830B50824094B002550
S315080010E05C66012403F5FE235C6001449D601A6179
S315080010F0DC60884201D1586A30BD10F8012B1A62AB
S31508001100F7E700BF00900040F7B516464FF4806237
S315080011101D46114B04469A6620300F46019001F091
S31508001120B6FADDE90812019801F0B5FA002384F849
S31508001130587063643368C4F859307368C4F85D300E
S31508001140B368C4F861302B0C6DBA84F86530A4F81E
S31508001150665003B0F0BD00BF009000402DE9F04393
S3150800116015464FF480621C46364B99B0DDF88090E0
S315080011700E4607469A66002861D000295FD0002DE2
S315080011805DD0002C58D0304B304AB9F1000F14BF4F
S31508001190984690461C22002111A801F0ECFA2C4B27
S315080011A0414610A8109301F046FA202110A801F034
S315080011B042FA0122274B019402920393CDF810902C
S315080011C00592069354B1B9F1000F07D001A910A8EA
S315080011D001F01DFA04A910A801F019FA07970127CA
S315080011E01C4C07A910A80897099401F010FA0AA937
S315080011F010A80A960B970C940D950E970F9401F06C
S3150800120006FA0DA910A801F002FA10A801F01CFAB6
S31508001210114B00934FF098435A6CD202FCD55B6D84
S3150800122040F2046003F470230093009B002B08BF70
S31508001230002019B0BDE8F083DFF81080AAE740F275
S315080012400160F6E7009000401F2400801F24FC84FC
S315080012500000010620000020785634124FF4806200
S3150800126010B50446044B9A6601F0C0F82046BDE85E
S315080012701040002101F0BEB8009000404FF4806293
S3150800128000B50B4B91B09A666946002340224FF48D
S31508001290807000F0ADFDB0F5A02F07D0B0F5302F67
S315080012A0044818BF002011B05DF804FB0148FAE7AE
S315080012B0009000404CE317084FF4806200B50B4BD2
S315080012C091B09A666946002340224FF4807000F078
S315080012D08FFDB0F5A02F07D0B0F5302F044818BF02
S315080012E0002011B05DF804FB0148FAE700900040C1
S315080012F06CE317080048704786E217082DE9F3479C
S3150800130099460A9B0C46196805463F29164642D84F
S315080013105A68002A41D0224A002E14BFB046904689
S3150800132001F03F07091928BF5A68196024BF01321E
S315080013305A60AFB1C7F1400AA24521D8294652469C
S3150800134009EB070001F00AFA0123414600934A46D1
S315080013503346002000F086F8B046403C55443C44ED
S315080013603F2C0CD9A3092A46009341463346002050
S3150800137000F078F824F03F031D4404F03F040027EA
S315080013802CB12246294609EB070001F0E7F90020AF
S3150800139002B0BDE8F0879046C2E7DFF80480BFE7F1
S315080013A0DC28000830B40546084611461A46DDE929
S315080013B0023425B931B1029430BCFFF79FBF024809
S315080013C030BC70470846FBE780AFFFFF2DE9F041C8
S315080013D01746146886B01E46E3008DF80F30630979
S315080013E052688DF80E30630B8DF80D30630D8DF84D
S315080013F00C30D30003EB54738DF80B3004F03F0424
S315080014005309372C8DF80A304FEA52334FEA5252B5
S3150800141005468DF80820884694BFC4F13802C4F101
S315080014207802CDE900178DF809300D4903460020EA
S31508001430FFF7B8FF082143462A4600970DEB01003F
S31508001440FFF75CFF284605F1200350F8042B984265
S3150800145046F8042BF9D1002006B0BDE8F08100BF9C
S31508001460FC280008F0B517464FF480621D46254B48
S3150800147093B00E469A660446202200210AA801F077
S315080014807AF901204FF000520197029003920496D0
S3150800149005900692079508900992002C2FD1189C62
S315080014A0194BA40121460AA80A9301F0C4F8039926
S315080014B00AA80C430394069B04A943F02003069349
S315080014C0099B43F02003099301F0A1F801A90AA892
S315080014D001F09DF807A90AA801F0A3F80AA801F0E7
S315080014E0B3F84FF098435A6CD202FCD55B6D13F4EF
S315080014F0702F0CBF00206FF06F0013B0F0BD6FF0B7
S315080015007100FAE700900040000401032DE9F0415C
S31508001510A2B0502204460D460EA8002101F02BF970
S315080015203422002101A801F026F901A800F026FAC4
S31508001530049B012B11D8002320466A1E9D424FEAC0
S3150800154082024FF0FF0108BF1A4640F8043B01F03B
S3150800155012F9002022B0BDE8F081AB4260D300F05A
S3150800156021F9059B0C220EA90646DF6800F0F0FF5C
S315080015700028EFD1DFF8B4800E9B434515D1109AA9
S315080015800EA9304600F0E4FF4FF0FF3210990EA87E
S31508001590FFF7A2FD244B98422ED0FF212046AA0031
S315080015A001F0E9F840F20650D4E737440C223846F1
S315080015B00EA900F0CDFF0028CCD10E9B434507D0DD
S315080015C0FF212046AA0001F0D6F840F20550C1E7EF
S315080015D00EA93846109A00F0BBFF059B3046D9681D
S315080015E000F0EDFF0028B5D13046109A0EA900F09C
S315080015F0BFFF0028C3D0ADE7109E11A9103EB6085C
S31508001600AE4228BF2E46B7003A46204601F0A6F855
S31508001610AA1B9200B54238BF0022FF21E01996E7BF
S3150800162040F2045096E700BFE320BBDE39528FE153
S3150800163044222DE9F043A3B00C46814600210DEB68
S31508001640020001F098F8012350262E4A0021CDE920
S315080016500E2301A83422109601F08DF801A800F097
S315080016608DF9049BA34249D3012B0AD8D9F8003037
S3150800167040F204500133012B98BF002023B0BDE887
S31508001680F08300F08FF8102C28BF1024059B4FEA32
S315080016908408DF68424649460744054611A801F012
S315080016A05DF8C4F110040EAB08F10C001844FF21D4
S315080016B0A20001F060F84C214FF0FF320EA8FFF7A8
S315080016C00BFDC043059B2190D968384600F077FF8B
S315080016D00028D3D1324638460EA900F049FF002823
S315080016E0CCD1059B2846D96800F069FF0028C5D1EA
S315080016F0324628460EA900F03BFFBFE740F20450E9
S31508001700BCE700BF39528FE110B5ADF50E7D4FF439
S315080017100D72002001A900F0ECFE40F20124002120
S3150800172001A800F0B8FEA042F9D040F2032398427F
S315080017301FD19DF8043059070CD49DF804309A0738
S315080017401CD4DB0715D504998A9800F07BF980B17B
S31508001750002010E00B9800F012FD0028EDD08A98C2
S3150800176000F02EF90028E8D00D48FEF79BFE002869
S31508001770E3D140F205400DF50E7D10BD4FF0006235
S31508001780926A029992689142DBD98A9800F036F9F2
S315080017900028EED00A990248FEF73AFEE9E700BFAC
S315080017A0008000080048704700000C0831B10A4B59
S315080017B05A68824205D80023C1E9003340F2014045
S315080017C07047013053F8302003EBC00043680A60C5
S315080017D000204B60704700BFA029000870B40C4673
S315080017E011460C4A556885420DD9013002EBC006F0
S315080017F07668E518B5420AD852F830001A462044E9
S3150800180070BC00F0A5BE40F2014070BC704740F2C3
S315080018100240FAE7A029000830B5CA681B4B0446FF
S315080018209A420D46A3B019D1FEF79AFED4F824328F
S31508001830174A013352F83330D4F82C22134498420D
S3150800184008D38033984209D241F20D03C4F83032E6
S3150800185023B030BD00F5C0309842F5D88023D4F8BF
S315080018602C1202AAD4F82402FFF7B8FF80232146D7
S31508001870009502AA04F12C00FFF7F6F8D4F82C32EA
S31508001880C4F830028033C4F82C32E1E75502000868
S31508001890A029000870B50D46002186B00DF1070392
S315080018A002931D4B04461646116028461C22CDE9B4
S315080018B003338DF80710059300F05DFFD4F8303236
S315080018C02BBBD4E98A21914207D2204602A9FFF709
S315080018D0A3FF9DF80730002BF0D02278910744BF6C
S315080018E061683160D20709D504F1080204F12401C0
S315080018F052F8040B8A4245F8040BF9D14BB9237800
S3150800190040F20640002B18BF002006B070BD002329
S31508001910E3E70020F9E700BF9124000870B40C46FD
S3150800192011460C4A556885420DD9013002EBC006AE
S315080019307668E518B5420AD852F830001A462044A7
S3150800194070BC00F015BE40F2014070BC704740F212
S315080019500240FAE7A0290008074B5A68824207D9CD
S31508001960013003EBC002516853F8300000F027BE7F
S3150800197040F20140704700BFA029000870B505462F
S3150800198088B0C0B14FF4403200236C46C0E900234A
S315080019900A4B05F114061A785B680272C36068463A
S315080019A000F082F80FCC0FC694E80F0086E80F0007
S315080019B005F114032B6108B070BD00BFA02900080B
S315080019C000B5ADF5137D4FF40D7205A900F091FD34
S315080019D078B904238DF81530074BCDE9010003903B
S315080019E001A905A8049300F098FD0DF5137D5DF88F
S315080019F004FB0020F9E700BF550200084FF000631A
S31508001A0000B59B6AADF5137D9B688B4204D3002015
S31508001A100DF5137D5DF804FB4FF40D7205A900F072
S31508001A2068FD0028F3D102238DF81530044BCDE963
S31508001A300100039001A905A8049300F06EFDE7E7ED
S31508001A405502000800B5ADF5137D4FF40D7205A9D2
S31508001A5000F04FFD78B901238DF81530074B01903A
S31508001A60CDE90230049001A905A800F056FD0DF550
S31508001A70137D5DF804FB0020F9E700BF2521000867
S31508001A80B1F5C01F0BD800F17843B3F5C01F06D8CF
S31508001A900844044988428CBF002001207047002072
S31508001AA0704700BF0000180870B504460646044D86
S31508001AB00FCD0FC495E80F0084E80F00304670BDBF
S31508001AC0802900084FF48032014B00209A6670473F
S31508001AD000900040024BD86900F00100704700BF33
S31508001AE0000003404FF48032014B00209A6670478D
S31508001AF000A000402DE9F843174B1F6D5B6D1F4092
S31508001B0000D5FEE701260025144CDFF85480DFF8DF
S31508001B105490374217D02368C8F850609BB1A16823
S31508001B20284601316268A1609847637B012B0AD178
S31508001B3048B909EB45131A7B60F341021A731A7FF9
S31508001B4060F341021A770135082D4FEA460604F17B
S31508001B501004DED1BDE8F883000004404C100020D4
S31508001B6000200440CC100020430905D0012B0DD0DD
S31508001B70022B094B18BF002300F01F0041B103F5E3
S31508001B808053012202FA00F018607047034BF3E70E
S31508001B9003F50053F5E700BF688000406480004005
S31508001BA0F0B5114A114C124E00F00105E3695F07C2
S31508001BB013D40DB9334213D103EA00078F4207D174
S31508001BC00B4A1A40002A14BF6FF001000020F0BD2E
S31508001BD0013AEBD16FF00200F9E74FF0FF30F6E774
S31508001BE06FF00100F3E700BF8096980000000340FD
S31508001BF00200010070B5134C6061E3695B071ED4EF
S31508001C000E4656F8043B8D18A361AE420BD1042349
S31508001C10002121202361FFF7C3FF58B9BDE87040B2
S31508001C202120FFF7BDBF08210846FFF7B9FF10B10D
S31508001C300423236170BD56F8043BA361E5E74FF022
S31508001C40FF30F7E7000003404FF4803238B50E4BFB
S31508001C500E4C9A66E56941F6713315400122E36335
S31508001C600B4B0021DA600223606121202361FFF714
S31508001C7097FF10B92120FFF793FF0122054BDA6081
S31508001C800DB10023E36338BD009000400000034017
S31508001C9000100340002003402DE9F84315464FF491
S31508001CA08032184B89469A6603F51C33DF69064667
S31508001CB0174041F67132DA63012203F58053DFF8E3
S31508001CC04C80DA6055B9284601220F4BDA601FB1FD
S31508001CD00022A3F50053DA63BDE8F88306F500543D
S31508001CE004EA0804A41BAC4228BF2C4649462246EF
S31508001CF03046FFF77FFF0028E6D12644A1442D1B76
S31508001D00E0E700BF009000400020034000E0FFFF2E
S31508001D102DE9F04F06464FF430250120B400DFF8D0
S31508001D20C0C004F1402404F58024CCF804006560A2
S31508001D30302500244FF48037DFF8A8E0DFF8A890B4
S31508001D4005FB06E5EC652C662C67234CDFF89CA0A2
S31508001D50A76641F6713704F51C34D4F81C80E7638E
S31508001D60E76800FA06F60743E7604BB9E26818F435
S31508001D70803F22F00102E26000D0E363184628E0C3
S31508001D8001F5005000EA0900401A984228BF184693
S31508001D906161D4F81CB087081BF0040F17D1013F06
S31508001DA03F0147F060576F66AA66C5F86CA0CCF885
S31508001DB02460DEF834703E42FBD0084F01447E634F
S31508001DC00427CCF82860024427611B1ACDE74FF098
S31508001DD0FF30BDE8F08F00BF0090004000200440AF
S31508001DE0001004400000044000E0FFFF1800034014
S31508001DF0F0B507460F4D10488DB0002B08BF0546B5
S31508001E000E46144600211C2205A800F0B4FC012346
S31508001E1004A801A93D4344F0005401960495029391
S31508001E20039400F0FEFB00F00FFC00F0E7FB0DB09A
S31508001E30F0BD00BF01000AFF010008FF4FF4803221
S31508001E40064B5A6603F5E6239B69C3F3851282702F
S31508001E5003F03F021B0B427003707047009000406E
S31508001E604FF48062014B00209A667047009000404C
S31508001E704FF48062014B00209A66704700A000402C
S31508001E802DE9F04104681E4624F04003802B0546E0
S31508001E908846174692B002D0B4F5807F43D11C22FB
S31508001EA000210BA800F067FC224A234B0121B8F158
S31508001EB0010F18BF13460A932B1D0193E4081F4B05
S31508001EC044F0005402910AA80394049705910693D6
S31508001ED00796089101A9099300F099FB04A90AA895
S31508001EE000F095FB07A90AA800F09BFB29680AA839
S31508001EF0C90800F0A0FB10210AA800F09CFBFFF718
S31508001F00AFFF98B90AA800F09FFB4FF098435A6CA8
S31508001F10D202FCD55C6DFFF7ABFF04F470242046B3
S31508001F2012B0BDE8F0816FF07100F9E74FF0FF30AD
S31508001F30F6E700BF000101040001000410000020BC
S31508001F402DE9F04F9BB00746894698461646DDF8B8
S31508001F5094B072B115683B6823F04002802A03D01A
S31508001F60B3F5807F40F0A6800BEB090300240093AD
S31508001F700DE01546EFE795B1249A1BF80430525D3B
S31508001F8001355340269A05F00F05135501344C4583
S31508001F90F1D3002E00F091800020356067E0A9EBB0
S31508001FA0040ABAF10F0F57D91C22294613A800F0C4
S31508001FB0E2FB434B3A6812933B1D03930123D20875
S31508001FC042F00052049305923E4A2699CDF81880AD
S31508001FD02AF00F0A07930892CDF824800A930B92E9
S31508001FE00BEB04020C9221444AF000520D9312A8FE
S31508001FF00E920F9103A91093119200F008FB06A9FF
S3150800200012A800F004FB0CA912A800F000FB0FA907
S3150800201012A800F006FB09A912A800F002FB39680D
S3150800202012A8C90800F007FB514612A800F003FBE6
S31508002030FFF716FFC8B912A800F006FB4FF0984341
S315080020405A6CD202FCD55B6D544403F47023019399
S31508002050FFF70EFF019B5BBB269B0BEB040A1C4498
S31508002060009B9A4506D14C4691E74FF0FF301BB0CE
S31508002070BDE8F08F8DB9424601213846249BFFF70B
S31508002080FFFE0028F3D108F1100212F8013D0133D2
S31508002090DBB213700BB99045F7D1249A1AF8013BB5
S315080020A0525D0135534004F8013B05F00F05D7E7AB
S315080020B01846DCE76FF01F00D9E73046D7E700BFC0
S315080020C00303000410000020FEF772B8FEE74FF085
S315080020D098435A6CD202FCD5586D00F470207047AC
S315080020E0C0F30C032DE9F04105460F4616460BB919
S315080020F0FEF78EFB05F5005424F4FF5424F01F0464
S3150800210005EB0608A04507D8324639462846BDE8F5
S31508002110F0410223FEF78ABB2046FEF779FB04F559
S315080021200054EFE770B44FF00065AD6A03462E69B8
S31508002130864206D86C6913449C4202D370BCFFF7EA
S31508002140CFBF70BC7047036913F0FE0F0CBF0120A8
S315080021500020704738B504460D46FEF7A9F848B181
S315080021606369012B09D12046FFF7EDFF08B1A36982
S315080021702B6038BD01202C60FBE70020F9E74FF003
S31508002180FF3313B5044601A80193FEF7C1F920B140
S31508002190019BA3422CBF0020012002B010BDFFF70F
S315080021A091BCFFF79FBC4FF40170FEF707BBB1F572
S315080021B00D7F10B504460FD34FF40D72002100F0C1
S315080021C0DAFA04F5DE7204F5AA7104F12C0000238C
S315080021D0BDE81040FEF70EBC40F2052010BD13B551
S315080021E00446009101462C30FEF73EFCC4F8300246
S315080021F018B141F20703984209D1A3784BB140F2CE
S31508002200032040F20223E278002A08BF184602B0EB
S3150800221010BD40F20120FAE72DE9F04387B00DF131
S31508002220080904460E4617460021102248461D4650
S31508002230DDF8388000F09FFA00211C22C8F800104B
S31508002240284600F098FA32463B462146CDF80090DB
S3150800225004F12C00FEF708FC23789A0744BF62684D
S31508002260C8F80020DB0709D504F1080304F12402A5
S3150800227053F8041B934245F8041BF9D1237840F21E
S315080022800640002B18BF002007B0BDE8F0834FF4C6
S315080022900D70704770B5D1E90152AA4205D290F87F
S315080022A040302B449B1A402B10D9002012E00A68B4
S315080022B090F84040D65C90F841200133224402F061
S315080022C03F02013486548B6080F840408B689D42FB
S315080022D0EDD8012070BD2DE9F8431D461746D1E912
S315080022E001329B1A90F84020044613449D420E463C
S315080022F09DF820909DF8248056D9FFF7CBFF00283B
S315080023005CD1132341F2020084F84630BDE8F88315
S3150800231094F84120A25CFA5494F841200133013222
S3150800232002F03F0284F8412094F84020013A84F8EC
S31508002330402094F840200AB19D42E9D1D6E901210E
S31508002340914201D29D4231D89D42DAD1294638467A
S31508002350D4F88820FEF7C0FEC4F88800B9F1000F4B
S3150800236004D02A463946E06C00F03BF8B8F1000F75
S3150800237008D094F843308BB12B463A463946A06CC0
S3150800238000F01EF894F8433043B1E36DA26D2B4478
S315080023909342E36524BF002384F84330636D41F21A
S315080023A003002B446365B1E70023C2E73268525C39
S315080023B0FA54B26801330132B260BFE70020A5E7DC
S315080023C01FB50C46194600F14803CDE901420093B2
S315080023D000F1440200F158032030FFF7B1FD04B0C4
S315080023E010BD00F00CB8014600F016B868220021AE
S315080023F000F0C1B90023C0E900331846704707B595
S3150800240000F128030190009300F108030020FEF76D
S31508002410C9FF03B05DF804FB02460B4600F128012C
S315080024200830FEF7D3BF30B59FB0342200210546E9
S3150800243001A800F0A0F901A8FFF7A0FA049C012C56
S315080024401ED921460EA8FFF761F818B140F20553C8
S3150800245098420ED100230EAA52F8041B481C0AD132
S315080024601EAA02EB8303214643F8405C0EA8FFF739
S31508002470DFF81FB030BDA94205D001339C42EBD12D
S3150800248040F20250F5E740F20350F2E7FFF73CB995
S3150800249001221A7070471FB50023CDE90033CDE934
S315080024A00213D0F83032044693B9D0E98A329A42F8
S315080024B00ED26946FFF7B0F9D4F8300298B141F266
S315080024C0070240F20123904208BF184604B010BD27
S315080024D0A3785BB140F2022040F20323E278002A97
S315080024E018BF1846F2E740F20120EFE740F2022053
S315080024F0ECE737B50C46054611462046FFF757FE6A
S3150800250048B969462846FFF751F920B9019BC4F82E
S315080025102452C4F8283203B030BD38B500F5DE724F
S3150800252004460D46202300F5AA712C30FEF762FA00
S31508002530D4F830321BB9D4E98A329A4203D3A07848
S3150800254000B1E07838BD29462046FFF765F9EFE780
S3150800255038B50C4611460546FFF792FA28B12946C2
S31508002560204600F0FBF8002038BD40F20240FBE7A9
S3150800257038B50D4611460446FFF782FA80B940F28F
S31508002580024016E0E158013114D104339A42F9D8D1
S31508002590AB0707D1022329462046FEF747F905E08F
S315080025A00023F3E729462046FEF768F90028E6D017
S315080025B0002038BD40F20340FBE70220704738B5DB
S315080025C041EA0003C3F30C0304460D469BB9FFF723
S315080025D057FA48B12544204604F50054FEF718F981
S315080025E0AC4204D00028F6D140F2024038BD00289B
S315080025F0FAD00020FAE740F20440F7E74FF0984394
S315080026005A6CD202FCD5586D00F4702070474368A6
S3150800261013B9416070475B685A68012AFBD1596053
S315080026207047836813B9816070475B685A68012AE6
S31508002630FBD159607047C369032B9FBF00EB830228
S315080026400133D160C3617047C369042B15D84FF0B5
S315080026509842116CC902FCD504339B0013650168C6
S31508002660103B116041680C30116050F8041C03449B
S3150800267011604FF09842984200D1704750F8041BF9
S315080026801160F8E783695B06FCD5C16370472422AD
S31508002690002100F070B870B515460E4624220021B8
S315080026A0044600F068F825F04003802B02D0B5F503
S315080026B0807F08D12046314640F8045BEA0800F0DE
S315080026C04DF8002070BD6FF01F00FBE738B50468B1
S315080026D0237EA06B33B9C36C23F00403C3640123C0
S315080026E0237638BD637E23B394F82D300BB30025CB
S315080026F0132184F83550FFF7C5FFA36BDA6C42F057
S315080027000402DA645B6ADBB2112B0DD1012384F86B
S3150800271034303022237A534303F1804303F5802370
S31508002720DB6E013B2363DCE7132BDAD184F83450E4
S31508002730EFE7C36C23F00403C364D2E7013902440C
S3150800274010B5904201D1002005E0037811F8014F39
S31508002750A34201D0181B10BD0130F2E70A44431EFC
S31508002760914200D1704710B511F8014B914203F818
S31508002770014FF9D110BD02440346934200D1704778
S3150800278003F8011BF9E70000F8B500BFF8BC08BC60
S315080027909E467047F8B500BFF8BC08BC9E46704711
S315080027A0B814B6F1E0CFF3ADB7DD25C9FA79B7139A
S315080027B00000000007B0CD5E020000000000030222
S315080027C0C82900000060000800001808F00401008D
S315080027D09F210008A321000801030008AF21000873
S315080027E0DF2100083C290008192200088F2200086A
S315080027F000000000690500086105000813B779FAAA
S31508002800C925DDB7ADF3CFE0F1B614B80102000073
S3150800281002000000C429000840000000000003026E
S31508002820000000000000000000000000000000009A
S31508002830000000000000000000000000000000008A
S31508002840000000000000000000000000EB17A603CF
S315080028500201000003000000FA0606FA0F04000051
S3150800286003000000F40A0AF4050500000100000050
S31508002870EB17A65E0A06000001000000F50909F537
S315080028800307000001000000F60808F60608000025
S3150800289000000000FE0101FE08080000000000001C
S315080028A0FD0303FD0C08000000000000F90707F906
S315080028B01009000002000000F30B0BF3110A0000D8
S315080028C003000000F70A0AF7120B000003000000D5
S315080028D0FC0404FC0D0C0000030000006A09E6670E
S315080028E0BB67AE853C6EF372A54FF53A510E527F23
S315080028F09B05688C1F83D9AB5BE0CD19800000006F
S3150800290000000000000000000000000000000000B9
S3150800291000000000000000000000000000000000A9
S315080029200000000000000000000000000000000099
S315080029300000000000000000000000000001000088
S315080029407D190008AD170008DD1700081D190008D5
S3150800295059190008311600080D1500082724000823
S31508002960F32400089724000895180008D51A0008CB
S315080029705125000871250008BF250008BB25000859
S3150800298010020300280000002800000000200000B4
S3150800299000001800000000000400000000000040CD
S315080029A0010000000100000000000C0800400B00B8
S315080029B0BC2900081010002002000000950100083C
S30D080029C071010008ADC5C467EA
S503029D5D
S70500000000FA
