S0150000534654505F4D4C4F542D784C43442E7333378F
S31508006000001200208D890008A11008089D030B08BE
S315080060109D340808A1100808A1100808A11008084E
S31508006020A1100808A1100808A11008084162000874
S31508006030A11008087C5B0C08E1610008C53E080849
S31508006040A58E0008A1100808A1100808A1100808C4
S31508006050A1100808A1100808A1100808A11008082E
S31508006060A1100808A1100808A1100808216F030844
S31508006070A1100808A1100808A1100808A11008080E
S31508006080A1100808A1100808A1100808A1100808FE
S31508006090A1100808D5950008A1100808A11008083D
S315080060A0A1100808519700082D970008A1100808A4
S315080060B0A1100808B9D70708D1E10708F5480C0860
S315080060C0F1480C089DD9070801490C08F9480C083D
S315080060D0A9E10708FD480C0811E2070875E2070858
S315080060E0A1100808A1100808A1100808A11008089E
S315080060F099340808A1100808A1100808A110080872
S31508006100A1100808A1100808A1100808A11008087D
S31508006110A1100808A1100808A1100808A11008086D
S31508006120A1100808A1100808A1100808A11008085D
S31508006130A1100808A1100808A1100808A11008084D
S31508006140A110080899C30008A1100808A335080873
S3150800615065BD0708A110080849450C084F450C08F5
S31508006160A1100808A1100808A1100808A11008081D
S315080061700B4A1168086806C881F30B88022181F367
S315080061801488203080F30988BFF36F8F4FF0000022
S3150800619080F31188104700BFAFF30080AFF300808B
S315080061A0FC50012000000000000000000000000074
S315080061B007480068006880F3088862B661B6BFF3CE
S315080061C04F8FBFF36F8F02DF00BF00BFAFF30080B2
S315080061D008ED00E0000000000000000000000000DC
S315080061E0EFF30980EFF30B82734620E9FC0F104AA0
S315080061F0116808604FF0300080F31188BFF34F8FA5
S31508006200BFF36F8F0FF058FC4FF0000080F3118832
S31508006210074A11680868B0E8FC0F82F30B8880F318
S3150800622009881847AFF30080AFF30080AFF300800A
S31508006230FC500120000000000000000000000000E3
S315080062401EF0040F0CBFEFF30880EFF30980044932
S31508006250084700BFAFF30080AFF30080AFF30080BC
S315080062605D690108000000002DE9F04F2DED028B55
S31508006270DFF8E8918FB0B9F800309B0706D440F2F2
S3150800628082616F4B6F4A704879F0C2F9DFF8D0B176
S31508006290DBF8003023B940F283616C4B694AF2E7B8
S315080062A06B4C0DF1200894E8070088E807009B88E6
S315080062B0684D8DF817300123B9F800200DF1170144
S315080062C01A462868BDF0ECFC9DF81720DBF800108C
S315080062D0023A0023096892B20C3428680DF12C0A98
S315080062E0BDF0DEFC94E807008AE80700DBF800301A
S315080062F01B681C7814F0200421D02868BDF0E9FA40
S31508006300002870D02868BDF0E4FA04460D9878F0A5
S315080063106BFC064620460F4678F066FC02460B469E
S3150800632043A1D1E9000178F003FE02460B46304648
S31508006330394678F01DFB78F06BFF0D90012428682C
S31508006340BDF0E3FA9DF81730002850D0981DC0001C
S3150800635078F05AFC38A3D3E9002378F0BFFC41EC67
S31508006360180B2868BDF0D1FA03900D9878F03CFC1C
S31508006370039B064618460F4678F036FC02460B463F
S3150800638051EC180B78F0D4FD02460B4630463946D8
S3150800639078F0EEFA78F03CFF0D90B9F80020DBF8BB
S315080063A0003012F02002286827D00D9A02F5FA72FA
S315080063B00D9293F8202099798DF82220264A434693
S315080063C01278CDF800A08DF823202246BCF0FAFFFB
S315080063D020B102200CF0E8FC52F034FC0FB0BDEC02
S315080063E0028BBDE8F08F0D9BC0330D93A6E70D9881
S315080063F0063300EB43130D93CFE79D6999797DB179
S31508006400DB69154E2B4436780693ADF81C20CDE98A
S31508006410008A224606AB8DF82360BCF0DEFFD7E77C
S3150800642053462246BCF0B8FFD2E700BFAFF3008060
S315080064300000000060E366410000000080842E41F1
S31508006440A2810C08A3840C0815800C08C8810C08C6
S3150800645088830C089C4D01206F1D00201AFA012024
S31508006460A05001200000000073B5814B1C8814F071
S31508006470010440F0F58041F60B227E4D7E4B7F21CC
S31508006480C5E9003405F11003AB607C4B7C489A8063
S3150800649010221C60BEF096FF7F227A4B1A707A4B48
S315080064A01B6ADB0706D440F20E41784B784A7948D6
S315080064B079F0AEF8214628466EF0BAF9044620B9B6
S315080064C040F21241744B724AF1E76FF0B5FD20B104
S315080064D040F21641714B6E4AE9E74FF0011120462A
S315080064E0BDF0C6FB20B140F21A416C4B684ADEE7A4
S315080064F002212046BDF0CEF920B140F21D41674B7E
S31508006500634AD4E7204666496FF05AFB20B14FF438
S315080065108461624B5E4ACAE701212046BDF05EFDF2
S3150800652020B140F225415D4B594AC0E7012120467A
S31508006530BDF06BFD064620B14FF48561574B544AB2
S31508006540B5E7014638225748BEF03CFF802332465D
S31508006550204605F11401BDF0B9FB802804D040F2AD
S315080065602F41514B4A4AA2E7504D0120BCF00FFF7C
S315080065703DA3D3E900232C602046CDE900234FF044
S31508006580FF324FF0FF33BDF03EFA014620B140F22C
S315080065906E31424B464A8AE738480CF079FA0121AF
S315080065A008460CF0E9FA01212868BDF0BDF8044652
S315080065B020B140F2C141394B3E4A78E701464FF4D3
S315080065C008723D48BEF0FEFE3C4A3D4B02F188018A
S315080065D01A60996202F5887102F5CC729C809A67F6
S315080065E09C85384AA3F854401965A3F87C40364B75
S315080065F06FF063001A609C80344A354B1A60354A3E
S315080066009C801470344A5A6115F0F6FD0B200CF084
S31508006610F9F9324B186020B940F2D941304B254A76
S3150800662045E705F017FE20460CF012FB08222868FD
S315080066301146BDF003FA044620B140F2DE41294B6B
S315080066401C4A34E70DF07AFB274B28481C70284B68
S315080066501C70284B1C7002B0BDE8704083F06EBDFC
S3150800666002B070BDAFF300800BE020FFE20300002C
S315080066701AFA0120A84D0120D52E0108A04D0120A7
S315080066801AFE01200BFE01200080E00F72820C0822
S3150800669018840C0815800C088B820C08737F0C086C
S315080066A028850C08484E01209A820C089C4D01202A
S315080066B00B840C0894840C08804E0120884E012017
S315080066C0202100202BFE0120F8200020B0FE01200A
S315080066D0C0210020AAFE0120E8210020444E012006
S315080066E0D2820C08ED820C080EFE012071830C087C
S315080066F0AFFE0120AEFE01202DE9F3411F46204BD7
S31508006700044683424FF000038B410E46154611D2CC
S3150800671019A3D3E9002378F0EBFD1A490246284667
S3150800672086F0C5FA14A3D3E900232046314678F04B
S31508006730DFFD144614484FF47A78B4FBF0F200FBF8
S3150800674012444EF66020B4FBF0F300FB1344B4FB8E
S31508006750F8F628460D49009686F0A9FA47B1284664
S3150800676008FB16420A4902B0BDE8F04186F09FBA16
S3150800677002B0BDE8F08100BF005C260500000000FD
S31508006780FF5B260518C20C0880EE3600DF690D0887
S315080067901EC20C08000000002DE9F04F2DED028BFB
S315080067A0804600680C4691461D468DB030B90327D1
S315080067B038460DB0BDEC028BBDE8F08F0668766CE6
S315080067C0B0472D2807460CD00028F1D09C4A9D4B8F
S315080067D00221A52808BF13460D209B4AA8F089FE6A
S315080067E0E6E76378202B01D10027E1E7974BD8F835
S315080067F00000049358B1036822461B6C04A9984705
S31508006800074630B1049803689B689847D0E7032782
S31508006810F8E78F4B8F4E05934FF48973EE40F64396
S31508006820EB40DB43102D06F0010688BF0126082D34
S3150800683003F0010388BF01239FED7F8B6FF0010BE7
S315080068400193049805A90368DB689847002840F077
S31508006850EC808DF80E0005980DF10E010368DB68D3
S3150800686098470746002843D19DF80E30402B03D0A1
S31508006870802B01D003273BE062789A42E1D10123BD
S3150800688005988DF80F3003680DF10F015B6998477D
S31508006890074668BB9DF80F30082B17D8002BD0D0B9
S315080068A0013B072BCDD801A252F823F0FD6800085A
S315080068B0D768000843680008F968000843680008B4
S315080068C0436800084368000803690008102BB8D11C
S315080068D0002EB6D102E06B1E012BB2D80023059814
S315080068E00693036806A95B6A9847824668B1074615
S315080068F005A894F06EFA85E7042DEFD0012DA0D1F6
S31508006900ECE7019B002B9CD1E8E7069B002B46D0C1
S315080069108DED088B05985146036808AA9B6A984727
S3150800692007460028E4D1DDE90830591E40F1FF3258
S315080069308B456FF0100171EB020210D39DF80E2003
S31508006940402A97D1D4E90212904208BF8B4226D03A
S31508006950069B0AF1010A53457FF673AFD8E74FF055
S31508006960FF31C21C994277EB020231D39DF80E2003
S31508006970402A7FF47FAF1F0C04F1100104F11C00BC
S315080069809BB28842E4D051F8042B002AF9D0B7EB21
S31508006990124FF6D1002BF4D092B29342F1D80023CD
S315080069A005980793036807A99B6B9847074600282D
S315080069B09ED1079B002B36D082460598CDF820A09D
S315080069C003683946DB6B08AA984758B107468FE72C
S315080069D013F5803F70F1FF32FFF44CAF9DF80E209F
S315080069E0802AAEE7089BD90704D5D9F8002009996B
S315080069F0914212D19A0705D5BDF82810B9F8042096
S31508006A0091420AD15B070ED5D8F80400B9F80420DC
S31508006A1003680B999B68984728B9079B0137BB42BF
S31508006A207FF60FAFC9E7002762E702210D200A4A61
S31508006A30A8F05FFDA5275BE7000000000000000046
S31508006A40D8D40C08D94E0E08ACD40C081C18002053
S31508006A502018002016010100C9D40C080000000007
S31508006A602DE9F04F2DED028B9FED658B83ED008BA5
S31508006A7017460026C1B09946D0E90623CDE900237A
S31508006A8004468A4697F820201CA926A80F9695F052
S31508006A9083FD03238DED188B5B4DCDE912662868BF
S31508006AA0ADF8683014961696036810A95B6998477E
S31508006AB0002840F08D800126109B0A93119B0B93AA
S31508006AC000234FF0030BCDE91333ADF848300A9B8A
S31508006AD04FF0FF3218930B9B21681CA819938DF869
S31508006AE05860ADF868B0A7F07EF997E807003B8CC8
S31508006AF00DF1480888E80700ADF868305146D4E932
S31508006B0006232046CDE93223D4E90A23CDE93023EA
S31508006B100FAB424632F0DAFC05460346002866D13A
S31508006B20204697F820200F9932F02AFE054603469C
S31508006B3000285CD143465246204626A995F04CFDCE
S31508006B4005460346002852D1E368229A2046134494
S31508006B50E360D4E90623C9E9002332F01DFD0A9B48
S31508006B609DF858C0A3620B9B2848E362284B84F81B
S31508006B702060BCF1000F18BF03461898139F0890B1
S31508006B801998D9F80020CDE906309DF86810BDF8A7
S31508006B90485014983E0CBFB2CDE90021D9F804300C
S31508006BA059461C4ACDE90470CDE902561A20A8F0C8
S31508006BB0A0FC33F0CFF94146E26800F5CE603FF01D
S31508006BC053F90546284641B0BDEC028BBDE8F08F67
S31508006BD029680CA80B68DB689847D4E90C310C9A2D
S31508006BE0D31A0A930D9B63EB01030B9368E7012104
S31508006BF01A20094AA8F07DFCE4E700BFAFF300803D
S31508006C0000000000000000006419002082E00C0863
S31508006C107EE00C0888E00C0810E10C080000000073
S31508006C202DE9F04F2DED028B884204460D4690461D
S31508006C301E4697B00AD1034601211D202E4A17B0D9
S31508006C40BDEC028BBDE8F04FA8F053BC9FED288B36
S31508006C500DF10C092A21484605AF42F0CBF899E810
S31508006C60030087E80300DFF894A0DFF894B0BDF8C6
S31508006C701400BDF81630834234D042F055F9337803
S31508006C8081468DF824408DF825508DF826808DF89C
S31508006C9028300BB173680B9309AB0893CDF81CA089
S31508006CA032F05AFB00230E938DF840308DF85130A0
S31508006CB02A23ADF830904FF001090D930CAA6B46C4
S31508006CC007A98DED128B8DF8509095F06CFD034653
S31508006CD020B15A4649461D20A8F00BFC38469FF0BD
S31508006CE0A3FEC4E717B0BDEC028BBDE8F08F00BF6A
S31508006CF00000000000000000901F0D087C200D0811
S31508006D00D01F0D08000000002DE9F04F2DED028B75
S31508006D109FED318B9DB00DF108092A21054604AC7B
S31508006D20484616461F46DDF8A48042F063F899E8FF
S31508006D30030084E80300DFF8A8A0DFF8A8B0BDF8D0
S31508006D401000BDF8123083423ED042F0EDF8289B81
S31508006D5081461B78CDE90A6708958DF830301BB156
S31508006D60289B5B788DF8313098F800308DF83830EC
S31508006D701BB1D8E90223CDE9102308AB0793CDF858
S31508006D8018A032F0E9FA00232A228DF858308DF837
S31508006D9069300223ADF848904FF00109CDE9132375
S31508006DA006A96B4612AA8DED188B8DF8689095F09A
S31508006DB0FAFC034620B15A4649461D20A8F099FB1D
S31508006DC020469FF031FEBAE71DB0BDEC028BBDE848
S31508006DD0F08F00BFAFF30080000000000000000045
S31508006DE0A4200D0827200D082DE9F04F2DED028B64
S31508006DF0083089B00E469146DDF86080A8F068FA3A
S31508006E000446002800F0A1806D4614AB0FCB85E838
S31508006E100F0000259FED508B4FF0010B41F2A45A4D
S31508006E2004AF87E80F004E4BC4E90355236003F10E
S31508006E302C02C4E905554833A3604A4B04F1480CB3
S31508006E4062600FCB84ED0E8BC4E90755C4E90C5577
S31508006E5084F8245084F840508CE80F00424B1022E6
S31508006E60236604F17803C4E91E3304F1A003C4E9D8
S31508006E7028333E4B2946C4F8D030C4E91955C4E92D
S31508006E80355584F858B0A4F85AA0E56584F86C50CE
S31508006E906467C4F89850C4F8C050C4F8DC5004F1CC
S31508006EA0E000BEF08FFA84F8F0B0A4F8F2A0C4F8B7
S31508006EB0F45004F1F800A8F076FF4AF6C873C82221
S31508006EC084ED428B84ED448BC4E9462304F598731C
S31508006ED0C4E94C3384F80051A4F80451C4F8285185
S31508006EE084F82C51C4F850513368E3607368236101
S31508006EF0B3686361F368A3613369E3617369236205
S31508006F00337E84F824302BB1D6E9070104F128032F
S31508006F1083E80300304694F044FCB0B9B9F1000F99
S31508006F2013D0B8F1000F10D003CF3B78C4F83090D7
S31508006F3084F84030012384F8283104F10803A0635B
S31508006F40E163C4F8C880C4F8DC30204609B0BDEC5B
S31508006F50028BBDE8F08F00BF0000000000000000B3
S31508006F60D4EB0C08688F012094EB0C08C0EB0C08D6
S31508006F702DE9F04F2DED028B9946002300240025BC
S31508006F80CDB08DF8C83049938DF828319C4BCDE9A2
S31508006F902E45CDE93045CDE934450C934FF6FF74BF
S31508006FA00123DFF874A2064688461746CDF8D8A00E
S31508006FB0ADF820410D936AB1054600F53E74A54229
S31508006FC000F00C81284695F0C8FC002800F00881DE
S31508006FD09835F4E7A2F0DAF9044630B9AC2420462D
S31508006FE04DB0BDEC028BBDE8F08F06F53E75284620
S31508006FF093F089FAB4F868308DF8C880ADF8203176
S3150800700094ED028B6A3420212046BEF044FBCDE97C
S315080070100C407C4B4FF4C8710E93002309A8CDE9A8
S3150800702009330F930B93CDF870A09CF084FF099B4E
S3150800703053B90B240BA894F0D1FA0AA894F0CEFA07
S3150800704009A894F0CBFACAE74FF4C8710AA89CF0CD
S3150800705072FF0A9B002BECD04FF4C8710BA89CF06A
S315080070606AFF0B990029E4D0099B0A9A10934FF4FA
S31508007070C8733046CDE91223CDE9141310AA414648
S315080070801193A2F0E0F908B10446D3E74146304629
S3150800709012AAA2F0BAF90028F6D14146304614AA37
S315080070A0A2F090F90028EFD1109B0DF1B80A1693BB
S315080070B0119B0DF1700B1793129B8DED008B189396
S315080070C0139BCDE905AB1993149B1AAA1A93159B22
S315080070D018A91B9336AB079330AB049334AB0393D1
S315080070E00EAB029316A845F017F90028CCD10BA8C9
S315080070F094F074FA0AA894F071FA09A894F06EFA52
S31508007100B9F1000F13D1D6F8940300285AD00368B2
S315080071109B689847D6F894331A6800284AD0546969
S3150800712041465A461846A04798B1044657E7D9F843
S31508007130003048465B699847036859465B6A984732
S3150800714008B9C5244BE79DF86031CDF824918DF830
S31508007150283151462846A2F0D4FB0028E5D1284616
S315080071600CA9A2F0E0F82B7C77B302211120264A5D
S31508007170A8F0BFF9D5E90012AB69CDE90121009362
S3150800718002211120EB69214AA8F0B3F90F9906F5F7
S31508007190697047F015FB034620B1012111201C4AEE
S315080071A0A8F0A7F927B196F8B233013386F8B233B7
S315080071B0002414E741461846D26890470028C8D1EB
S315080071C010240CE703240AE7D5E900121120CDE9BB
S315080071D0002102210F4AA8F08CF9D7E70B24FEE616
S315080071E0BDF864319FED048BADF820318DF8C88069
S315080071F00FE700BFAFF300800000000000000000AA
S31508007200A4930C0814670D0841660D0861660D08FD
S31508007210D9660D08A4660D08F0A90D08000000003F
S315080072202DE9F0478AB00DF10D03019315230646A3
S3150800723000934FF48072002308460C46A6F0D0FF50
S31508007240D8B9B37B0122009320460023A6F04FFF4E
S3150800725098B9F37B0222009320460023A6F047FF45
S3150800726058B90DF10E030193162303220093204605
S315080072700023A6F0B5FF054610B10AB0BDE8F087B1
S3150800728037464FF010090DF1180810220021404624
S31508007290BEF098F80DF10F03019315234FF4807291
S315080072A0009320460023A6F09BFF0028E5D1F27B39
S315080072B0EBB29A4250D997ED047BC446B7F818A0AA
S315080072C007F11A0307F12A0E624618685968083347
S315080072D003C273459446F7D18DED007B0422002343
S315080072E02046A6F0DFFE0028C7D105220023204647
S315080072F0CDF800A0A6F0FBFE0028BED140464946C0
S3150800730006228DE8030000232046CDE90489A7F06C
S3150800731023F80028B1D120469DF90F10A6F08FFF5B
S31508007320013530370028A8D1032DAED120469DF966
S315080073300E10A6F084FF00289FD1F3880722009339
S3150800734020460023A6F0D3FE002896D120469DF9B4
S315080073500D10A6F074FF90E782469FED017BBBE710
S315080073600000000000000000054B186803689969D2
S3150800737001A3D3E90023084700E0373B015D03007A
S3150800738064190020000000002A2110B57248ADF5E6
S31508007390956D02914DF0ACFD08B1BDF063FF02900A
S315080073A002A96D484DF05EFC0028F6D1029B2A2BF7
S315080073B0F3D167A3D3E900236848CDE908234DF044
S315080073C0AFFD0028E9D100220023644808A9CDE9C9
S315080073D008234DF06BFC0028DFD1DDE9080240F6F2
S315080073E0FA035F499A4208BF8842D6D101215D480F
S315080073F08DF807104DF064FD0028CED18DF80700F2
S315080074000DF1070157484DF005FC0028C5D19DF838
S315080074100730002BC1D050484DF078FB0028BCD16E
S315080074204D4803A94DF01EFC40F20124A042B4D1F8
S315080074304D494E48A8F0D9FF0028AED140224B4806
S3150800744004AB0AA94DF05AFC0028A6D1049B0E2BC2
S31508007450A3D10F2244490AA8BDF07DFF00289CD17C
S3150800746043494248A8F0C1FF002896D104AB402200
S315080074703E480AA94DF042FC049B03438DD19DF872
S315080074802810002989D13948A8F0AFFF002884D1EF
S315080074904022364805AB1AA94DF030FCA0427FF4CD
S315080074A07CAFF122334934484DF06CFD00287FF457
S315080074B074AF4FF40072304806AB2AA94DF06CFC45
S315080074C000287FF46AAF069AF12A7FF466AF294945
S315080074D02AA8BDF040FF024600287FF45EAF0146A9
S315080074E025484DF04FFD00287FF457AF4FF4007242
S315080074F0214807ABAAA94DF04FFCA0427FF44DAF37
S3150800750016484DF00FFB00283FF447AF15484DF0DD
S3150800751009FB00283FF441AF17484DF003FB00284C
S315080075207FF43BAF4DF058FB00287FF436AF0B488D
S315080075304DF0F8FA00283FF430AF0A484DF0F2FA59
S3150800754000287FF42AAF0DF5956D10BDAFF30080C6
S31508007550316EE595FA080000057308000172080007
S31508007560316EE595067308006DA20D0802730800D2
S315080075706CA20D087BA10D0802720800000000002D
S31508007580002370B5404C05468AB0E36318B10088FD
S31508007590236061F051FE3D48BCF065F93C4E3D4B19
S315080075A0304633603C4B736062F018F80021304671
S315080075B06DF03EF932A3D3E90023A062C4E906239D
S315080075C0B6F0DCFDD4E90623194310434FF0FF3328
S315080075D0C4E90601CDE900014FF0FF32A06ABCF00C
S315080075E012FA02224FF0FF31A06ABCF027FA0120F6
S315080075F061F088FB4FF4007300222849A06ABCF0AA
S3150800760065FBB0F5007F38D100239422CDE9073316
S3150800761009933C23CDE9033205939623A06A03A96F
S3150800762006936DF021FD35B3287C62F095F8054682
S31508007630F0B9A06ABCF024FD62F036F861F044FBAC
S3150800764020B14FF4807000215EF0A4FB61F04CFB82
S3150800765020B14FF4006000215EF09CFBB6F053FDAC
S315080076600120BBF094FE0E4A0E49A06AB6F07AFDD8
S3150800767028460AB070BDFF20D7E70725F8E700BF00
S315080076800DD5015520000000183A0120690345EC84
S3150800769058F20120919406084CF201204CF0012082
S315080076A00DE10B084DE10B0810B5054C237833B9ED
S315080076B0044B13B1044800E000BF0123237010BD3A
S315080076C0803F01200000000018550E0808B5034B3E
S315080076D01BB10349034800E000BF08BD00000000D5
S315080076E0843F012018550E08A3F5803A704700BF5D
S315080076F0174B002B08BF134B9D46FFF7F5FF0021DC
S315080077008B460F461348144A121ABDF05BFE0E4B01
S31508007710002B00D098470D4B002B00D0984700202F
S31508007720002104000D000D48002802D00C48BDF0C9
S31508007730A0FD78F0B3F9200029005AF0C3F977F0D4
S3150800774099FF00BF000008000000000000000000CC
S31508007750001200200020002044BD022073520C08AD
S315080077600000000010B5224C03F0B0FC236F23F094
S31508007770070343F00203236779F080FFD4F820312A
S31508007780002023F0070343F00103C4F82031D4F89E
S31508007790283123F0070343F00103C4F82831D4F84D
S315080077A0403123F0030343F00103C4F84031D4F811
S315080077B0603123F0030343F00103C4F86031D4F8C1
S315080077C0403223F0030343F00103C4F84032D4F8EF
S315080077D0003223F0070343F00103C4F80032D4F85B
S315080077E0083223F0070343F00103C4F8083210BD3A
S315080077F00080005007B501A804F04EFB9DF805303F
S31508007800012B14D19DF804308BB94FF48012154B17
S315080078101549586E03F580535A664B6B23F0E053AF
S3150800782043F040634B63C3025CBF104B5A6609F0D2
S3150800783005FA09F05DF97BF02DFE09F0BBF97BF03E
S3150800784023FE09F06BF9FFF78DFF09F0A1F901F0A6
S31508007850EDFA01F08FFF0CF0A5FB03B05DF804EB21
S3150800786009F070BC008000500040005A00A000508B
S3150800787008B5044879F013FDBDE80840024879F0D8
S315080078800EBD00BF885A0C08A05A0C0808B5054852
S3150800789079F033FD044879F030FDBDE80840034827
S315080078A079F02BBDB85A0C08D05A0C08E85A0C08BF
S315080078B018B1034B1860002070472520704700BF99
S315080078C0FC3F012010B5054C0549206802F074FB01
S315080078D02068BDE81040FFF7EBBF00BF3C12002050
S315080078E01012002070B58B680646012B0D4614460B
S315080078F08CB023D0022B31D0002B3CD119461C2248
S3150800790005A8BDF05FFD214605A8AFF060FE044658
S3150800791030B92946304605AA36F01EF900283BD16B
S3150800792029468522304694F0A6F9234602211D20D1
S315080079301A4A0CB0BDE87040A7F0DBBD002311461B
S3150800794005A8ADF81430AFF08CFE04460028E7D140
S315080079502946304605AA36F08BF9DFE7114605A811
S31508007960AFF0ABFE04460028DAD12946304605AA10
S3150800797036F0E6F9D2E7812294F07DF9D5E90123BC
S3150800798091B2120C01929AB20291009201211D2025
S31508007990034A1B0CA7F0ADFD0CB070BD345B0C0898
S315080079A0005B0C0870B50D46AB6806460A2B1146F7
S315080079B088B037D9403B0C2B14D98122294630464A
S315080079C094F059F9D5E9012391B2120C01929AB2B1
S315080079D00291009201211D20B14A1B0CA7F089FDD6
S315080079E008B070BD0C2BE8D801A252F823F000BFEE
S315080079F0857B0008A57B0008C77B0008E77B000895
S31508007A00077C0008BB790008BB790008377C0008AA
S31508007A10BB790008BB790008BB7900085B7C0008C5
S31508007A207F7C00085A1E00230593092A06D8DFE83A
S31508007A3002F0212D3B495563717E8C9A05A8ADF855
S31508007A401830B2F0C3F9044630B92946304605AABB
S31508007A5036F0B2FD0028C3D129468522304694F077
S31508007A600AF9234602211D208E4A08B0BDE8704057
S31508007A70A7F03FBD05A8B2F04AFA04460028EBD1A4
S31508007A802946304605AA36F07BFDE3E705A88DF8BA
S31508007A901830B2F01DFB04460028DDD129463046D1
S31508007AA005AA36F0BDFDD5E705A8ADF81830B0F043
S31508007AB038F804460028CFD12946304605AA36F0BC
S31508007AC091FDC7E705A8B0F06DF804460028C3D1B4
S31508007AD02946304605AA36F067FDBBE705A88DF8A6
S31508007AE01830B0F0ACF804460028B5D1294630461F
S31508007AF005AA36F0ABFDADE705A8ADF81830B0F02D
S31508007B00EDF804460028A7D12946304605AA36F0DE
S31508007B1071FD9FE705A80693B0F024F904460028EE
S31508007B209AD12946304605AA36F0F6FD92E705A809
S31508007B30ADF81830B0F05AF9044600288CD1294619
S31508007B40304605AA36F0F0FD84E705A80693B0F09E
S31508007B508EF9044600287FF47FAF2946304605AAE9
S31508007B6036F0EAFD76E705A8ADF81830B0F0C6F9A4
S31508007B70044600287FF470AF2946304605AA36F039
S31508007B80E3FD67E7002305A8CDE90533B2F065F9FB
S31508007B90044600287FF460AF2946304605AA36F029
S31508007BA071FD57E7002305A80593ADF81830B2F024
S31508007BB0EFF9044600287FF44FAF2946304605AA58
S31508007BC036F04CFD46E7002305A8CDE90533B2F0AB
S31508007BD0C3FA044600287FF43FAF2946304605AA73
S31508007BE036F07CFD36E7002305A8CDE90533B0F06D
S31508007BF0C6F9044600287FF42FAF2946304605AA61
S31508007C0036F056FD26E7002305A8ADF814308DF8A2
S31508007C101630ADF81830ADF81A30ADF81C30B0F0A3
S31508007C20F2F9044600287FF417AF2946304605AA1C
S31508007C3036F06AFD0EE7002305A88DF814308DF896
S31508007C401530B0F04DFA044600287FF405AF2946F2
S31508007C50304605AA36F096FDFCE6002305A8CDE9D0
S31508007C600533ADF81C30B2F0D7F9044600287FF486
S31508007C70F3AE2946304605AA36F06EFDEAE600233D
S31508007C8005A8CDE905330793B2F0ADFA04460028F6
S31508007C907FF4E2AE2946304605AA36F065FDD9E6F8
S31508007CA0005B0C08345B0C0870B58B6806460C46FE
S31508007CB088B0EBB9114604A8ADF810308DF8143029
S31508007CC0B0F0E8FA054628B92146304604AA9AF0E3
S31508007CD057F9F0B921468522304693F0CCFF2B465A
S31508007CE002211D200C4A08B0BDE87040A7F001BC6F
S31508007CF0812293F0C0FFD4E9012391B2120C0192BC
S31508007D009AB20291009201211D20044A1B0CA7F089
S31508007D10F0FB08B070BD00BF345B0C08005B0C08B4
S31508007D2070B58B6806460C4686B0CBB9114605A8D1
S31508007D30AFF04AFC054628B92146304605AA9AF00E
S31508007D405FF9F0B921468522304693F094FF2B4619
S31508007D5002211D200C4A06B0BDE87040A7F0C9BB39
S31508007D60812293F088FFD4E9012391B2120C019283
S31508007D709AB20291009201211D20044A1B0CA7F019
S31508007D80B8FB06B070BD00BF345B0C08005B0C087E
S31508007D9070B58B680646022B0D4614468AB024D069
S31508007DA0042B34D0002B3FD10022ADF8103000232D
S31508007DB0214604A8CDE90623AFF026FA044630B9D1
S31508007DC02946304604AA36F041FE00283DD1294608
S31508007DD08522304693F04FFF234602211D201C4A78
S31508007DE00AB0BDE87040A7F084BB1822002104A899
S31508007DF0BDF0E8FA214604A8B1F0CCFB04460028F9
S31508007E00E5D12946304604AA36F042FFDDE7114699
S31508007E1004A8AFF02FFA04460028D8D129463046E0
S31508007E2004AA36F091FED0E7812293F024FFD5E923
S31508007E30012391B2120C01929AB202910092012189
S31508007E401D20044A1B0CA7F054FB0AB070BD00BFE6
S31508007E50345B0C08005B0C0870B58B6806460C464C
S31508007E6088B0FBB900200021CDE90601114604A817
S31508007E70CDE90433AFF0BAFA054628B921463046AB
S31508007E8004AA37F0D5F9F0B921468522304693F091
S31508007E90F2FE2B4602211D200C4A08B0BDE87040B0
S31508007EA0A7F027BB812293F0E6FED4E9012391B21D
S31508007EB0120C01929AB20291009201211D20044AE5
S31508007EC01B0CA7F016FB08B070BD00BF345B0C088E
S31508007ED0005B0C0870B58B6806460D4614469CB0C8
S31508007EE0042B64D8DFE803F0032F633F4F00002319
S31508007EF0214604A8ADF810308DF812308DF81430EC
S31508007F008DF820308DF830308DF840308DF85030AF
S31508007F108DF86030B1F0E8FC044630B929463046A1
S31508007F2004AA37F00BFA002852D129468522304692
S31508007F3093F0A1FE234602211D20264A1CB0BDE867
S31508007F407040A7F0D6BA0023214604A8ADF8103031
S31508007F50AFF08FFD04460028E7D12946304604AA2B
S31508007F609AF06AFDDFE70023214604A8ADF8103031
S31508007F70AFF0ABFD04460028D7D12946304604AAFF
S31508007F8037F0BCFACFE7002204A811468DF848203E
S31508007F90A5F0CCFA214604A8B2F0C4F90446002894
S31508007FA0C3D12946304604AA9AF0CBFBBBE7812207
S31508007FB093F061FED5E9012391B2120C01929AB2AF
S31508007FC00291009201211D20034A1B0CA7F091FA89
S31508007FD01CB070BD345B0C08005B0C0870B58B6870
S31508007FE006460D46144694B0052B77D8DFE803F00D
S31508007FF00323334757640023214604A8CDE90533F4
S31508008000ADF81030AEF013FC044630B929463046B8
S3150800801004AA9AF093FD002871D129468522304694
S3150800802093F029FE234602211D20364A14B0BDE8E6
S315080080307040A7F05EBA0023214604A8ADF81030B8
S31508008040AEF04EFC04460028E7D12946304604AA7D
S315080080509AF0AFFDDFE7002204A811468DF8482004
S31508008060A5F064FA214604A8B2F030F904460028BF
S31508008070D3D12946304604AA37F09EFECBE7002323
S31508008080214604A8ADF81030AEF087FC0446002857
S31508008090C3D12946304604AA37F0D6FDBBE72146A8
S315080080A004A8AEF0CAFC04460028B6D129463046D4
S315080080B004AA37F027FEAEE70023214604A8CDE937
S315080080C00533ADF81030AEF0D6FC04460028A4D12E
S315080080D02946304604AA37F037FE9CE7812293F0FA
S315080080E0CAFDD5E9012391B2120C01929AB2029106
S315080080F0009201211D20044A1B0CA7F0FAF914B0BE
S3150800810070BD00BF345B0C08005B0C0870B58B684B
S3150800811006460D4686B0A3B1402B2FD0812293F098
S31508008120AAFDD5E9012391B2120C01929AB20291E5
S31508008130009201211D201A4A1B0CA7F0DAF906B095
S3150800814070BD114605A8ADF81430AEF0F6FA04462F
S3150800815030B92946304605AA9AF0EDFD0028EED139
S3150800816029468522304693F086FD234602211D20A6
S315080081700C4A06B0BDE87040A7F0BBB9002311460B
S3150800818005A88DF814308DF81530AEF002FB0446BC
S315080081900028E5D12946304605AA37F0AFFEDDE7C7
S315080081A0005B0C08345B0C0870B50D46AB680646D8
S315080081B0114686B0072B00F2AE80DFE803F00426EE
S315080081C03B4E5F72879A002304A88DF81030ADF8ED
S315080081D01230ADF81630B2F0DDF8044638B9294643
S315080081E0304604AA9AF0DFFD002840F0A68029460A
S315080081F08522304693F03FFD234602211D20504A32
S3150800820006B0BDE87040A7F074B9002304A88DF83D
S3150800821010308DF811308DF813308DF81430B2F017
S31508008220FDF804460028E2D12946304604AA38F06B
S315080082301BFCD9E7002304A8ADF81030ADF81230BE
S31508008240ADF81630B2F02EF904460028CFD12946EB
S31508008250304604AA38F04CFDC6E7002304A88DF87A
S3150800826010308DF81130B2F067F904460028BED1F7
S315080082702946304604AA38F0CBFDB5E7002304A802
S315080082808DF81030ADF81230ADF81630B2F086F928
S3150800829004460028ABD12946304604AA38F034FAF9
S315080082A0A2E7002304A88DF810308DF811308DF858
S315080082B013308DF81430B2F0B5F90446002896D17B
S315080082C02946304604AA38F011FC8DE7002304A895
S315080082D0ADF81030ADF81230ADF81630B2F0E6F958
S315080082E00446002883D12946304604AA38F048FDBA
S315080082F07AE7002304A88DF810308DF81130B2F013
S315080083001FFA044600287FF472AF2946304604AAAD
S3150800831038F0A0FD68E78122294693F0ACFCD5E940
S31508008320012391B2120C01929AB202910092012194
S315080083301D20044A1B0CA7F0DCF806B070BD00BF70
S31508008340345B0C08005B0C0870B58B6806460C4657
S315080083508CB02BBB00200021CDE90401114604A8EE
S31508008360ADF818308DF81A308DF81C30ADF8283075
S31508008370B0F08AFF054628B92146304604AA3CF0E3
S315080083807DFEF0B921468522304693F074FC2B46D3
S3150800839002211D200C4A0CB0BDE87040A7F0A9B810
S315080083A0812293F068FCD4E9012391B2120C019260
S315080083B09AB20291009201211D20044A1B0CA7F0D3
S315080083C098F80CB070BD00BF345B0C08005B0C0855
S315080083D070B50D46AB680646402B114686B062D08E
S315080083E019D8012B47D0022B51D053B381222946E5
S315080083F0304693F040FCD5E9012391B2120C019264
S315080084009AB20291009201211D20354A1B0CA7F051
S3150800841070F806B070BD412B56D0422BE6D100232A
S3150800842004A88DF81030ADF81230ADF81430AEF05F
S31508008430A1FB044688B92946304604AA39F0E0FC6F
S3150800844009E004A8AEF04CFB044630B9294630468C
S3150800845004AA39F0ADFC0028DBD12946852230462E
S3150800846093F009FC234602211D201E4A06B0BDE8EA
S315080084707040A7F03EB804A8AEF035FB04460028C5
S31508008480EBD12946304604AA39F09AFCE3E704A85A
S31508008490AEF02CFB04460028DFD12946304604AA54
S315080084A039F096FCD7E7002304A88DF810308DF82C
S315080084B01130AEF01EFB04460028CED129463046C0
S315080084C004AA39F08DFCC6E704A8AEF050FB0446B2
S315080084D00028C2D12946304604AA39F089FCBAE7F1
S315080084E0005B0C08345B0C082DE970430D46AB683D
S315080084F00646114690B00B2B00F2A080DFE803F089
S31508008500069E249E339E445F9E707F8E002304A899
S31508008510CDE90433AFF0D4F8044638B929463046D5
S3150800852004AA3AF093FA002840F09A802946852250
S31508008530304693F0A0FB234602211D204A4A10B07C
S31508008540BDE87043A6F0D5BF002304A88DF8103007
S31508008550AFF00FF904460028E8D12946304604AAA8
S315080085603AF01EFADFE7002304A8CDE904338DF8B4
S315080085701830B0F061FD04460028D7D129463046A8
S3150800858004AA3AF029FBCEE700234FF000084FF083
S31508008590000904A8CDE90433CDE90933CDE90C89EE
S315080085A08DF81830ADF83830B0F0BCFD0446002818
S315080085B0BCD12946304604AA3AF018F8B3E7002396
S315080085C004A8CDE904338DF81830B0F075FD0446DB
S315080085D00028ABD12946304604AA39F0FBFEA2E7AB
S315080085E0002304A8CDE90433AFF047F90446002870
S315080085F09CD12946304604AA39F072FE93E7002337
S3150800860004A88DF81030AFF064F9044600288DD11F
S315080086102946304604AA39F0EFFD84E7002304A86A
S31508008620CDE90433AFF081F9044600287FF47EAF24
S315080086302946304604AA39F077FF74E7812229468D
S3150800864093F019FBD5E9012391B2120C01929AB263
S315080086500291009201211D20044A1B0CA6F049FF35
S3150800866010B0BDE8708300BF345B0C08005B0C08D3
S3150800867070B58B6806460C4686B0CBB9114605A878
S31508008680AEF00CFF054628B92146304605AA9CF0EF
S3150800869023FEF0B921468522304693F0ECFA2B46A4
S315080086A002211D200C4A06B0BDE87040A6F021BF85
S315080086B0812293F0E0FAD4E9012391B2120C0192D7
S315080086C09AB20291009201211D20044A1B0CA6F0C1
S315080086D010FF06B070BD00BF345B0C08005B0C08C9
S315080086E070B58B6806460C4686B0CBB9114605A808
S315080086F0AEF0FBFE054628B92146304605AA3CF0F1
S3150800870049FDF0B921468522304693F0B4FA2B4646
S3150800871002211D200C4A06B0BDE87040A6F0E9BE4D
S31508008720812293F0A8FAD4E9012391B2120C01929E
S315080087309AB20291009201211D20044A1B0CA6F050
S31508008740D8FE06B070BD00BF345B0C08005B0C0891
S3150800875070B58B6806460C4686B0CBB9114605A897
S31508008760AEF0C6FE054628B92146304605AA9DF054
S3150800877077F8F0B921468522304693F07CFA2B46E5
S3150800878002211D200C4A06B0BDE87040A6F0B1BE15
S31508008790812293F070FAD4E9012391B2120C019266
S315080087A09AB20291009201211D20044A1B0CA6F0E0
S315080087B0A0FE06B070BD00BF345B0C08005B0C0859
S315080087C037B5436804463F2B154659D8292B12D886
S315080087D0DA1E052A42D99AB2009201211D206A4A58
S315080087E01B0CA6F086FEC3222146284603B0BDE828
S315080087F0304093F040BAA3F12A02152AEBD801A01B
S3150800880050F822F027890008D7870008D78700087C
S31508008810D7870008D7870008D7870008C7880008C1
S31508008820D7870008A7880008D7880008578900084E
S315080088306789000877890008B7880008D78700087D
S31508008840D7870008D7870008D787000897880008C1
S31508008850D787000847890008E7880008052ABAD894
S3150800886001A050F822F000BF07890008F788000821
S31508008870D787000837890008D787000817890008AE
S31508008880B3F5407FA7D10A460146284603B0BDE89E
S315080088903040FFF787B80A462846214603B0BDE8A8
S315080088A03040FFF71FB80A462846214603B0BDE800
S315080088B03040FFF7F9B90A462846214603B0BDE815
S315080088C03040FFF72DBA0A462846214603B0BDE8D0
S315080088D03040FFF75DBA0A462846214603B0BDE890
S315080088E03040FFF7B9BA0A462846214603B0BDE824
S315080088F03040FFF7EFBA0A462846214603B0BDE8DE
S315080089003040FFF76BBB0A462846214603B0BDE850
S315080089103040FFF7FBBB0A462846214603B0BDE8B0
S315080089203040FFF741BC0A462846214603B0BDE859
S315080089303040FFF709BD0A462846214603B0BDE880
S315080089403040FFF745BD0A462846214603B0BDE834
S315080089503040FFF7C9BD0A462846214603B0BDE8A0
S315080089603040FFF785BE0A462846214603B0BDE8D3
S315080089703040FFF7B5BE0A462846214603B0BDE893
S315080089803040FFF7E5BE00BF5D5B0C0808B500F098
S315080089902DF8124B12498B4212D30020114B124963
S315080089A08B4218D3FEF7A4FE186850F82240586880
S315080089B040F82240013298688242F5D30C33EAE740
S315080089C00022F8E71C6844F8220001325C68A242DB
S315080089D0F8D30833E4E70022F8E700BF20550E086D
S315080089E02C550E082C550E082C550E084FF48041B0
S315080089F04FF0FF3010B5114B114A9A60D3F8882012
S31508008A0042F47002C3F888200E4A91660E4901F5B1
S31508008A10005210660D4850660220C3F8D000BFF316
S31508008A204F8FBFF36F8F01244FF440330848C0F8C7
S31508008A308041D36004600B6110BD00BF00ED00E00B
S31508008A40006000080090005000800044F7FF3700DF
S31508008A5000E100E0014B1868704700BF541700207A
S31508008A60014B1860704700BF54170020084B1B6F56
S31508008A7003F00703022B04D0032B05D0012B05D0E6
S31508008A80FEE7044B18687047034BFBE7034870473B
S31508008A90008000505417002058170020002D31017F
S31508008AA008B5FFF7E3FF054B1B6FC3F30333013329
S31508008AB0B0FBF3F0024B186008BD00BF0080005001
S31508008AC0501700200048704700B4C404014B1868CA
S31508008AD0704700BF58170020054B1860054B1B6FE1
S31508008AE003F00703032B01D1FFF7DABF704700BF76
S31508008AF0581700200080005000487047002D3101AB
S31508008B004FF0B4439868C0F304400C2822D8DFE835
S31508008B1000F0092121212121071719211B1D1F00FA
S31508008B200F4870479B6803F04073B3F1807F13D0FA
S31508008B30B3F1007F12D00B4A002B08BF10467047CE
S31508008B4009487047094870470948704709487047F7
S31508008B50094870470020704708487047084870471A
S31508008B60405DC60000093D000024F400C0EA21016A
S31508008B7080BA8C010048E801005A620280841E000F
S31508008B8040420F00014B1868704700BF5C17002071
S31508008B90BFF34F8F0549064BCA6802F4E0621343D8
S31508008BA0CB60BFF34F8F00BFFDE700BF00ED00E0CD
S31508008BB00400FA054FF000639A6A02F17841B1F5AC
S31508008BC0C04F03D21168074A914203D000230370AD
S31508008BD083607047012202709A6A926842609B6AB3
S31508008BE09B69F5E707B0CD5E08B54FF00053024A1A
S31508008BF01A60FFF7CDFF00BF02020FF073B54F4BA7
S31508008C0004461A781AB102221A7002B070BDCDE96C
S31508008C1000220028F9D001261E7078F04BFD484D39
S31508008C20484B186071F0D8FD2B785BB900F0A2FDAF
S31508008C3040B945480823454A454900686BF0C2F8DB
S31508008C4000B92E70434B5A6E62619B6E424AA3610D
S31508008C504FF480439366414B5968E16140499960F6
S31508008C60196E2160596E6160D3F87011A160196C94
S31508008C70E160596C21613B49086C1864496C596478
S31508008C80012151661B6E9C0441D5374AD368D80723
S31508008C90FCD4364B1A68531C3ED04FF480139340CD
S31508008CA0334A13664FF400730426314C266623664E
S31508008CB078F058FA01300DD078F054FA40F20113E2
S31508008CC0984207D04FF4005323664FF48043236637
S31508008CD0C4F870610823264C684623664FF480530F
S31508008CE023664FF0006323664FF4002301A96366E9
S31508008CF078F0DFF9009B2366019B63662B78002BCF
S31508008D0083D0124B1A6822665B6863667DE7194A48
S31508008D10D368D907FCD4BCE7174B1B78002BC1D105
S31508008D204FF400720C4B5A6603F5A6235B68002BBA
S31508008D30B8D14FF480120E4B1A66B3E7CEFC012069
S31508008D40CCFC012028400120641700202040012087
S31508008D500071080000800050009000500080004418
S31508008D6055CEAC0000C00054000004406017002037
S31508008D700090004400000450CDFC012070B5224D3F
S31508008D8004462E78012E02D001232B7070BD0028D0
S31508008D90FCD078F0E7F901300BD078F0E3F940F22F
S31508008DA00113984205D0194B194A5E66D368DE0747
S31508008DB0FCD42268174B1A6662685A66A268C3F81A
S31508008DC07021E2681A6422695A64E269D00744BFCE
S31508008DD000229A60104B1A68013207D10F4A12789E
S31508008DE022B90F494968C90748BF1A6062690D4B1D
S31508008DF05A66A2699A6671F0F7FC0B4B186878F008
S31508008E005FFC0023C1E700BFCEFC012000900040B4
S31508008E10000004400080004460170020CDFC0120BB
S31508008E2000C00550008000502840012070B54FF062
S31508008E300064A36A03F17842B2F5C04F21D21A68DA
S31508008E40124B9A421DD1124E337813F0FD0F1BD1E7
S31508008E501048FFF7D3FE01254FF480330E4A0F4919
S31508008E60C2F88051CB6015600D4A1361A36ADB69AD
S31508008E70984704460748FFF781FF04B9357020462E
S31508008E8070BD4FF48174FAE70024F8E707B0CD5EA9
S31508008E90CDFC01200040012000E100E000A00044D4
S31508008EA00090004413B51F4B1B7803B9FEE7002357
S31508008EB01D4CCDE900336A4608231C4920686AF030
S31508008EC081FFF0B91A4AD2F84031D2F840211F2B57
S31508008ED04FF0010310D9203A9340019A13430193A6
S31508008EE008236A46114920686AF022FF4FF00053AA
S31508008EF0104A1A60FFF74CFE9340009A13430093FA
S31508008F00EEE70D4B9842F1D1094AD2F84031D2F832
S31508008F1040211F2B4FF0010302D9203A9340DEE788
S31508008F209340ECE7CEFC012064170020007108008E
S31508008F30008000440B020FF00BE000F038B54FF04C
S31508008F400065AB6A044603F17842B2F5C04F12D207
S31508008F501B6B03F17843B3F5C04F0CD20648FFF7F5
S31508008F604DFEAB6A20461B6B5B689847BDE83840E8
S31508008F700148FFF703BF38BD2C40012013B54FF059
S31508008F8000640190A36A03F17842B2F5C04F15D286
S31508008F901B6B03F17843B3F5C04F0FD20948FFF7AF
S31508008FA02DFEA36A01211B6B01A89B6998470446FD
S31508008FB00448FFF7E3FE204602B010BD4FF4817463
S31508008FC0F9E700BF2C40012037B54FF00065CDE921
S31508008FD00021AB6A044603F17840B0F5C04F12D2BF
S31508008FE01B6B83B10948FFF709FEDDE90021AB6A6F
S31508008FF020461B6B5B6A984704460448FFF7BEFE8B
S31508009000204603B030BD4FF40174F9E72C40012027
S3150800901037B54FF000650191AB6A044603F1784213
S31508009020B2F5C04F15D21B6B03F17843B3F5C04FA9
S315080090300FD20948FFF7E2FDAB6A20461B6B019980
S315080090409B6A984704460448FFF798FE204603B0F3
S3150800905030BD4FF40174F9E72C40012037B54FF0C5
S315080090600065CDE90021AB6A044603F17840B0F506
S31508009070C04F16D21B6B03F17843B3F5C04F10D21D
S315080090800948FFF7BBFDDDE90021AB6A20461B6BEB
S315080090909B6B984704460448FFF770FE204603B0CA
S315080090A030BD40F20114F9E72C40012037B54FF0E6
S315080090B000650191AB6A044603F17842B2F5C04FE8
S315080090C015D21B6B03F17843B3F5C04F0FD209488D
S315080090D0FFF794FDAB6A20461B6B0199DB6B98473B
S315080090E004460448FFF74AFE204603B030BD40F266
S315080090F00114F9E72C40012010B40A681378022BF2
S3150800910011D014203023147913FB040307481B5885
S315080091105079C340DB4303F00103137008465DF83A
S31508009120044B58F019BD5DF8044B704730C0035026
S3150800913037B50468012105463A2001F08DFB012365
S3150800914003226179207902F051FD14223023217916
S3150800915013FB01230E4A9B586279D340DB4303F085
S3150800916001032370A379022B0ED100F089FA2A464F
S315080091700849607900F0AEFA012302466179207940
S31508009180CDE9003302F0DAFC002003B030BD00BFA1
S3150800919030C00350F990000802681378022B24D0D7
S315080091A014213023107913FB001310495B585179A9
S315080091B0CB40917903F00103012912D1508843EA83
S315080091C040034FF6E07063F03F039BB2834202D13F
S315080091D01170538070474FF6DF718B42F9D1002129
S315080091E0F6E711B983F001031370704730C00350D6
S315080091F010B5012243780178847830209A40054BCF
S3150800920000FB01331CB903F501531A6010BD03F5C1
S315080092108253FAE700C0035010B50122437801785B
S31508009220847830209A40054B00FB01331CB903F5BE
S3150800923082531A6010BD03F50153FAE700C00350C4
S315080092400122437801789A4030235943014B5A50FA
S31508009250704700BF40F003501021302302460078C3
S3150800926013FB0013054950785B58C34003F001000F
S3150800927093780BB980F00100704700BF30C00350E7
S315080092802DE9F04F9A46554B85B01B7806460F4692
S315080092901546DDF83C909DF844B0DDF85080002B6B
S315080092A000F08C80072A00F28B800E9B002B00F0C2
S315080092B08780B9F1000F00F08380129BB3F5006F29
S315080092C07EDC012802D1109B002B79D0444B03EB9E
S315080092D005131B7B002B75D0424C102200216846D3
S315080092E0BCF070F804EB45141022002F58D139460B
S315080092F02046BCF067F843F210036380BBF1000F09
S3150800930003D1E37843F00303E370364A0E9B02EB7E
S31508009310451CCCE90193129BCDF800A0013BC3F391
S315080093200A009DF84C30690103F003039B0643EAE3
S31508009330001E53582C48012E00EA03004EEA00038B
S31508009340535041D113230CF1100ECCF80C309CE885
S315080093500F008EE80F006FF00301DCF81C20109B4D
S3150800936061F39F02012FCCF81C20CCF8143003D1EE
S31508009370CCF81890CCF804300027194A290102EBDA
S31508009380051342F80180159A28465A60694622460E
S315080093909F605E7302F0AAFC384605B0BDE8F08F00
S315080093A000212046BCF00EF84FF444736380BBF1ED
S315080093B0000FAAD1E37843F03003A5E70B48ECE7A2
S315080093C00B48EAE70B48E8E7B8F1000FD4D19CF858
S315080093D0023068F304138CF80230CDE7CFFC012085
S315080093E04C400120CC4001200F80FFF3028000F0A2
S315080093F0018000F0078000F038B5124B05461B784F
S31508009400DBB1E0B178F056F90F4A00231146147B18
S3150800941054B92B6001251A0101EB03131D738C50F7
S3150800942078F04EF9204638BD0133082B02F11002B8
S31508009430EDD178F045F90548F5E70548F3E705481D
S31508009440F1E700BFCFFC01204C400120048000F06A
S31508009450028000F0018000F0154B13B51868002350
S3150800946001908DF8043078F025F9124B1C7824B158
S3150800947078F026F9104802B010BD01221A7078F06B
S315080094801FF90E4B01A81C731C7783F82C4083F830
S315080094903C4083F84C4083F85C4083F86C4083F882
S315080094A07C4008238DF8073002F0EEFB2046E2E701
S315080094B0CC5B0C08CFFC0120038000F04C40012057
S315080094C008B50A4A12785AB107280BD8084A02EB97
S315080094D000131B7B43B1002102F0C8FB002008BD26
S315080094E00448FCE70448FAE70448F8E7CFFC0120FB
S315080094F04C400120028000F0018000F0078000F057
S3150800950008B50A4A12785AB107280BD8084A02EB56
S3150800951000131B7B43B1012102F0A8FB002008BD04
S315080095200448FCE70448FAE70448F8E7CFFC0120BA
S315080095304C400120028000F0018000F0078000F016
S315080095400D4B1B7893B1072812D889B10B4B03EB47
S3150800955000131B7B73B10A4BDA6A012303FA00F086
S3150800956010401ABF00200B700870704705487047F6
S315080095700548704705487047CFFC01204C4001203C
S3150800958000000450028000F0018000F0078000F01F
S3150800959010B50B4A0C46127862B107280CD859B197
S315080095A0084A02EB00131B7B43B102F0E7FB20607D
S315080095B0002010BD0448FCE70448FAE70448F8E729
S315080095C0CFFC01204C400120028000F0018000F011
S315080095D0078000F02DE9F843174B1F6D5B6D1F40A0
S315080095E000D5FEE701260025144CDFF85480DFF885
S315080095F05490374217D0C8F8506023689BB1A168C9
S31508009600284601316268A1609847637B012B0AD11D
S3150800961048B909EB45131A7B60F341021A731A7F9E
S3150800962060F341021A770135082D4FEA460604F120
S315080096301004DED1BDE8F883000004504C40012038
S3150800964000200450CC40012070B5044601250B4E7D
S3150800965004B970BD94FAA4F0B0FA80F005FA00F3E4
S3150800966006EB001224EA03045368002BF0D0117BA2
S3150800967011B191689847EBE79847E9E7CC41012093
S3150800968008B5192001F04AFE28B14FF00072074BC1
S31508009690C3F880211A601A2001F040FE28B14FF065
S315080096A08062024BC3F880211A6008BD00E100E021
S315080096B038B505460C4677F0FDFF0022044B03EB50
S315080096C005135C601A73BDE8384077F0F9BF00BF30
S315080096D0CC410120F8B505460F46164677F0EAFF55
S315080096E0104B05F0FC02D3F824140023EC1804F000
S315080096F00304144321FA04FC1CF0010F07D00133BC
S31508009700042BF3D1FF2477F0DBFF2046F8BDFF2CAE
S31508009710F9D00122044B03EB0413C3E901761A734B
S31508009720F1E700BF00C00350CC410120074BD3F836
S315080097302404D3F8202403F50053104000F05530D4
S3150800974020F05020C3F82004FFF77EBF00C0035066
S31508009750074BD3F82404D3F8202403F5005310400C
S3150800976000F0AA3020F0A020C3F82004FFF76CBF51
S3150800977000C00350024B1968024B18686AF002BA17
S31508009780681700206417002037B5920004460D4676
S315080097900192BCF039F8431C0BD060B92946204623
S315080097A0019ABBF0D8FD0028044808BF002003B082
S315080097B030BD0348FBE70348F9E700BF10E000F0B7
S315080097C021E000F024E000F010B50446BCF024F8CF
S315080097D0431C10D088B902F08BFB234620F0030007
S315080097E02044984201D1002010BD53F8042B0132C1
S315080097F0F7D00348F8E70348F6E70348F4E700BF5D
S315080098000EE000F021E000F024E000F038B141B1AC
S31508009810013AB2F5006F044838BF00207047034884
S3150800982070470148704700BF037000F0027000F0EF
S3150800983038B504460D4677F03DFFA3889BB223B999
S315080098402B6077F03DFF064838BD142263889BB22B
S3150800985002FB034408342C6077F032FF0020F3E75C
S315080098600B7000F0F8B5044616460F4677F022FF4F
S31508009870A388E2889BB29A42054605D8002333603E
S3150800988077F01EFF1748F8BD1422238807F1100C3D
S315080098909BB202FB03433A460833174603CF674594
S315080098A0186059603A4603F10803F6D1142238685D
S315080098B01860238828469BB202FB034308333360AB
S315080098C02388E2889BB20133B3FBF2F102FB113322
S315080098D09BB22380A38801339BB2A38077F0F0FE66
S315080098E00020D0E70A7000F090F83530022B0DD131
S315080098F014223023417F90F8210013FB0123044AE8
S315080099009B5823FA00F000F00100704700207047CA
S3150800991030C00350002313B51D4A52F8044B94F87F
S31508009920211081420ED00133042BF6D102B010BDAE
S315080099300028FBD19DF80730002BF7D0A068FFF769
S31508009940BFFDF3E794F83530022BEFD12046FFF739
S31508009950CBFF637E2076022BE8D194F8323003F0F1
S31508009960FF02002BE2D1A0680DF107018DF8072050
S31508009970FFF7E6FD237E1BB194F83330002BD7D0D2
S315080099800023A06884F83330FFF7BAFDCEE700BF9E
S31508009990BC4A012030B51049104A0B782BB9C2E9E8
S315080099A00033C2E9023301230B700C4C0023214615
S315080099B051F8045B854208D00133042BF8D1002105
S315080099C054F8043B1BB942F82100002003E001319A
S315080099D00429F5D1024830BDD0FC0120BC4A01203B
S315080099E0027000F010B50446FFF736FD002104F1B9
S315080099F00800FFF701FD014620B904F10C00FFF746
S31508009A00FBFC00B1004810BD0E7000F090F836302F
S31508009A1053B9042103790A4A03F239135B01D15079
S31508009A20022203685A617047022B07D10068816CCD
S31508009A3011F0020118BF062177F085BE704700BFF6
S31508009A4000C0035090F836306BB9012203685A619A
S31508009A5002689369D907FCD504210379074AB93303
S31508009A605B01D1507047022B07D10068836C9B07B6
S31508009A704CBF0521092177F066BE704700C0035028
S31508009A8010B590F8363004466BB9042203685A615B
S31508009A90026893699907FCD523790C4AB9335B01A7
S31508009AA01021995010BD022BFCD10068836CDB078E
S31508009AB04CBF0521062177F046FE237941F29442F0
S31508009AC05B0103F1A04303F57033E9E700C00350D7
S31508009AD01FB50B460A6891F83610184602290CBFBE
S31508009AE0926C9269920604D505B05DF804EB77F09E
S31508009AF014BD039377F0FAFC0022039B0146CDE9D7
S31508009B00002203F13C00034A79F0FBFC05B05DF83E
S31508009B1004FB00BFD19A0008012370B580F83030E5
S31508009B2090F8363004460E4686B0A3B90568243543
S31508009B30204677F00CFD0D4B326803930023029301
S31508009B407368616901930123E068009304942B46C6
S31508009B5077F00DFC07E0022B02D105683C35E7E7F4
S31508009B60002380F8303006B070BD00BFAD9E0008F7
S31508009B7001232DE9F04180F8313090F8363004465B
S31508009B800E4688B05BBB05683C3577F093FD04F15B
S31508009B903C0807460DF11F01404607F081FF40B912
S31508009BA09DF81F302BB1404607F052FF204677F04C
S31508009BB0B4FC384677F084FD204677F0C8FC0D4B98
S31508009BC02A460393002302937368216901930123AC
S31508009BD0A06800930494336877F0AFFB07E0022B84
S31508009BE002D105684435D0E7002380F8313008B043
S31508009BF0BDE8F081F99B0008F0B585B0D06A03A9E5
S31508009C001446FFF715FE0646204677F06FFC00253A
S31508009C1001462346CDE90055164A04F13C0079F081
S31508009C2070FC154B9E421FD0039B1D619D6077F00B
S31508009C3041FD039A0646D76827B1D2E9002329468B
S31508009C402046B847E06A03A977F09AFCE06A838859
S31508009C509BB263B103A9FFF7EBFD20460399FFF713
S31508009C6087FF304677F02CFD012005B0F0BD84F85B
S31508009C703130F6E7D19A00080B7000F0F8B50746C0
S31508009C800D461646FFF7C2FD00286BD1152001F0D8
S31508009C9053FB0446FA6A93889BB213B197F832309D
S31508009CA0E3B197F83630F3B93B689C6904F00204CF
S31508009CB01CB93846FFF7E4FE0024012387F8343040
S31508009CC097F83630CBB92E44B542386810D1836937
S31508009CD09A06FCD51CB300242046F8BD002CDAD021
S31508009CE0FFF778FCD6E7022BE3D13B689C6CDDE7EF
S31508009CF015F8011B77F0BAFDE6E7022BEAD12E44E8
S31508009D00B542386806D142F22003826C33EA020271
S31508009D10FBD1DFE715F8011B77F01AFDF0E797F896
S31508009D20363053B910213B790F4A03F239135B01D8
S31508009D30D15008223B685A61CEE7022BCCD138684D
S31508009D40836CDB074CBF0921214677F0FCFC42F205
S31508009D50944210213B795B0103F1A04303F570336C
S31508009D609950B9E70446B7E700C0035010B5044652
S31508009D7080B190F832302BB9FFF7B6FD10B9A0685C
S31508009D80FFF79EFB002094F832300133DBB284F8EB
S31508009D90323010BD0048FCE7027000F010B50446EA
S31508009DA0A0B190F832309BB190F83230012B05D132
S31508009DB0FFF79AFD10B9A068FFF7A2FB002094F8F8
S31508009DC03230013BDBB284F8323010BD0148FCE783
S31508009DD00148FAE7027000F0057000F037B590F810
S31508009DE035500446022D1DD1012290F82230457EB9
S31508009DF0817F9A403020164B25B900FB013303F5C5
S31508009E00015305E0012D07D100FB013303F5825309
S31508009E101A60002003B030BD247E00FB0133002CFD
S31508009E20F4D1ECE7012DF4D1037E73B911238DF833
S31508009E300730FFF79BFF2A4620460DF10701FFF77B
S31508009E401DFF2046FFF7AAFFE3E71323EFE700BF4E
S31508009E5000C00350F0B587B005461646FFF7D6FC96
S31508009E600446F0B90493104BCDE901166A46A86A70
S31508009E7001A903960593FFF7F5FC044688B995F8FA
S31508009E80303073B92846FFF7DDFD28460099FFF7FD
S31508009E9043FE95F83530032B03D028462C76FFF77A
S31508009EA09DFF204607B0F0BD017000F073B5906ABB
S31508009EB001A91446FFF7BCFC0546204677F02DFBA2
S31508009EC03A4B9D4232D094F83610019B00293CD17A
S31508009ED02068826C12F400722BD0354A99601A6198
S31508009EE04FF40072236803F500539A6477F0E2FB97
S31508009EF001990646CD6835B14A688B682046D31A5B
S31508009F000A680969A847A06A01A977F039FBA06A17
S31508009F108588ADB2002D3AD001A9FFF789FC204605
S31508009F200199FFF7F9FD304677F0CAFB012002B028
S31508009F3070BD816CC80526D51E499A6019612368CB
S31508009F404FF4807203F50053CFE702291BD121682D
S31508009F50CA6C12F400720AD0154A1A6100229A6075
S31508009F604FF40072236803F50053DA64BEE7C96C40
S31508009F70C90508D50F499A60196123684FF480729C
S31508009F8003F50053F1E700221A619A60AEE7012350
S31508009F9020462376FFF722FF94F8353084F83050B0
S31508009FA0032BC0D02046FFF731FDBCE70B7000F04D
S31508009FB00D7000F00C7000F02DE9F04104468CB0ED
S31508009FC0884F04AE0D460FCF0FC697E80F0086E8F8
S31508009FD00F00102200216846BBF0F4F9002C00F0AF
S31508009FE0FE8025B9804E30460CB0BDE8F08160226F
S31508009FF000212046BBF0E6F92B68204623600223A1
S3150800A00084F836302B7C2371FFF7C4FC06460028FB
S3150800A010E9D12B7F754A84F835302B68934240F096
S3150800A020B88056236362724B23614FF470236361D1
S3150800A0300123ADF80630002384F8316084F83060D7
S3150800A040D5E90912A1620B80A16A3A204B80A16A60
S3150800A050684E8B8084F83030E2621380E26A012110
S3150800A0605380E26A938084F8313084F833300223CF
S3150800A0708DF81D30AB6806936B8AADF82030AB8A35
S3150800A080ADF81E30AB7D8DF81C30AB690993CDF861
S3150800A0902CD000F0E1FB0121606A00F0DDFB2B7992
S3150800A0A0002B00F081800121362000F0D5FBD6F880
S3150800A0B0203223F0070343F003031022C6F82032A8
S3150800A0C02B7C4D4F204607EB4313C3F89424A97BFA
S3150800A0D02B7C2A7B07EB431342EA0142C3F8AC24E4
S3150800A0E02B7CE97B6A7B253342EA014207EB431363
S3150800A0F05A602B7B0121E376AB7BE3776B7B237777
S3150800A100EB7B84F820306B7F6377AB7F84F8213054
S3150800A110EB7FA37795F8203084F8223077F076F92C
S3150800A120064600287FF45FAF77F0C4FA2A7F804698
S3150800A130032A40D141F2944102202B7C07EB4313BA
S3150800A14058502B7C95F82000E97F07EB431341EA2A
S3150800A150004103F5A5531960297CA87F07EB411731
S3150800A16041F29C416B7F43EA00437B508DF8002007
S3150800A17006238DF810302B79286804A963B377F085
S3150800A180F0FA2046FFF72EFC0646404677F098FA86
S3150800A19029E71A4A93427FF425AF57236362184B7F
S3150800A1A023614FF4801342E7D6F8203223F00703E1
S3150800A1B043F0010381E7022ADAD194F82100114914
S3150800A1C0FFF776FAFFF75CFA4FF40073204623830D
S3150800A1D0A676FFF703FECBE777F0BFFAD1E70A4E7C
S3150800A1E001E700BF105C0C08037000F00000015B7B
S3150800A1F001000F000080005000C0035000000A5004
S3150800A2000100100015990008027000F0F0B587B03B
S3150800A21004461646FFF7FAFA054658BB0493194B47
S3150800A220CDE90116059394F8363003962BBB2368BF
S3150800A2309B6903F0020313B92046FFF721FC6A461F
S3150800A240E06A01A9FFF70EFB054698B994F8313084
S3150800A25083B977F02FFAE36A06469B889BB233B137
S3150800A26020460099FFF784FC012384F834303046F1
S3150800A27077F026FA284607B0F0BD022BDCD1236812
S3150800A2809B6CD6E7017000F0044BD3F88420D20605
S3150800A290FBD4D3F88400C0F3811070470040005007
S3150800A2A02E4B98424AD022D82D4B984240D014D8EB
S3150800A2B02C4B984239D00AD82B4B984232D02B4B8C
S3150800A2C098422FD02A4B98422CD000207047294B11
S3150800A2D09842FAD1284B186F7047284B98422AD0D3
S3150800A2E0274B9842F1D1244BD3F880007047254B71
S3150800A2F098422BD009D8244B984223D0234B984216
S3150800A300E3D11D4BD3F88C007047214B984221D0DE
S3150800A31003F5740303F510539842D6D1164BD3F8B8
S3150800A32098007047144B986D7047134B586E7047DA
S3150800A330114B586F7047104B986F70470E4BD3F8F8
S3150800A340840070470C4BD3F8880070470A4BD3F843
S3150800A35090007047084BD3F8940070470048E8010E
S3150800A3600024F400C0CF6A0080841E0000093D0066
S3150800A37040420F00405DC6000080E00FC0EA2101A0
S3150800A38080BA8C01007E560380D54302006CDC023D
S3150800A3900090D00338B5104B0546D3F880300C46EC
S3150800A3A003F00303022B0BD0032B0DD0012B0FD187
S3150800A3B0FEF75CFB0E2305B1286004B1236038BDA7
S3150800A3C0FEF79EFB0723F6E7FEF744FB0623F2E7B4
S3150800A3D000231846EFE700BF0080005038B5184B39
S3150800A3E00546D3F820010C4600F00700062805D8D4
S3150800A3F0DFE800F0230B0F17131B1F000023184676
S3150800A40005B1286004B1236038BDFEF723FB052398
S3150800A410F6E7FEF75BFB0323F2E7FEF771FB07237C
S3150800A420EEE7FEF769FB0223EAE7FEF713FB0623CE
S3150800A430E6E7FEF74BFB0423E2E70123E0E700BF6C
S3150800A4400080005038B5174B0546D3F828310C461E
S3150800A45003F00703013B052B20D8DFE803F00313BD
S3150800A4601B0F0B17FEF7F6FA052305B1286004B192
S3150800A470236038BDFEF7EEFA0623F6E7FEF740FB43
S3150800A4800723F2E7FEF722FB0323EEE7FEF71EFBA0
S3150800A4900423EAE7FEF730FB0223E6E70023184623
S3150800A4A0E3E700BF0080005073B50D460021114B4D
S3150800A4B00191D3F88041064604F00304022C13D018
S3150800A4C0032C0CD0012C13D101A8FFF787FF102409
S3150800A4D00EB1019B336005B12C6002B070BDFEF76A
S3150800A4E00FFB07240190F3E7FEF706FB0190EFE761
S3150800A4F00C46EDE700800050002337B50193164B54
S3150800A5000546D3F820320C4603F00703042B04D87B
S3150800A510DFE803F0200B11161B0000230DB1019A8A
S3150800A5202A6004B1236003B030BD002101A8FFF7FB
S3150800A53089FF1223F2E7FEF7E3FA07230190EDE716
S3150800A54076F0B1FD0A230190E8E7FEF71BFB092325
S3150800A5500190E3E70123E1E70080005038B5104B8E
S3150800A5600546D3F840310C4603F00303022B0BD003
S3150800A570032B0DD0012B0FD176F095FD0A2305B1DB
S3150800A580286004B1236038BDFEF7FCFA0923F6E714
S3150800A59076F08CFD0C23F2E701230020EFE700BFDD
S3150800A5A000800050002337B50193164B0546D3F8B3
S3150800A5B060320C4603F00703013B032B1FD8DFE884
S3150800A5C003F0020E1914002101A8FFF707FF102354
S3150800A5D00DB1019A2A6004B1236003B030BD002191
S3150800A5E001A8FFF7BBFF1123F2E7FEF789FA072355
S3150800A5F00190EDE7FEF780FA02230190E8E70023D1
S3150800A600E6E700BF00800050002337B50193164BDC
S3150800A6100546D3F894320C4603F00703013B032B97
S3150800A6201FD8DFE803F0020E1914002101A8FFF76E
S3150800A630D5FE10230DB1019A2A6004B1236003B038
S3150800A64030BD002101A8FFF789FF1123F2E7FEF7C5
S3150800A65057FA07230190EDE7FEF74EFA0223019019
S3150800A660E8E70023E6E700BF0080005038B5144B42
S3150800A6700546D3F800020C4600F00700042804D863
S3150800A680DFE800F01B0A0E1216000023184605B173
S3150800A690286004B1236038BD76F005FD0A23F6E785
S3150800A6A0FEF770FA0923F2E776F000FD0C23EEE7D1
S3150800A6B0FEF7F6F90F23800AE9E70123E7E700BF6B
S3150800A6C00080005038B5144B0546D3F808020C46EE
S3150800A6D000F00700042804D8DFE800F01B0A0E1271
S3150800A6E016000023184605B1286004B1236038BD5A
S3150800A6F076F0D9FC0A23F6E7FEF744FA0923F2E7CF
S3150800A70076F0D4FC0C23EEE7FEF7CAF90F23800A8D
S3150800A710E9E70123E7E700BF0080005038B5104B92
S3150800A7200546D3F840320C4603F00303022B0BD040
S3150800A730032B0DD0012B0FD176F0B5FC0A2305B1FA
S3150800A740286004B1236038BDFEF71CFA0923F6E732
S3150800A75076F0ACFC0C23F2E701230020EFE700BFFC
S3150800A7600080005038B5104B0546D3F860310C46CA
S3150800A77003F00303022B0BD0032B0DD0012B0FD1B3
S3150800A78076F091FC0A2305B1286004B1236038BD30
S3150800A790FEF7F8F90923F6E776F088FC0C23F2E7CA
S3150800A7A001230020EFE700BF00800050B0F5207FAE
S3150800A7B01FD009D8B0F5007F15D003D868B1B0F519
S3150800A7C0C07F0AD000200CE0B0F5607FFAD10B4BB1
S3150800A7D0D3F88000C0F3011003E0084B186FC0F3EC
S3150800A7E0033001307047054BD3F89000C0F304607E
S3150800A7F0F7E7024B186FC0F38020F2E7008000509D
S3150800A80002464FF48030104B10B598660020FFF7CB
S3150800A810CDFF504341F671320C4BDC69DA635A6856
S3150800A82004F4803422F4401259B9094988428CBF8D
S3150800A8304FF480100020104358600CB10022DA63F0
S3150800A84010BD0449F2E700BF009000500000035015
S3150800A850005A6202002D3101430905D0012B0DD0A3
S3150800A860022B094B18BF002300F01F0041B103F566
S3150800A8708053012202FA00F018607047034BF3E791
S3150800A88003F50053F5E700BF688000506480005068
S3150800A8901FB5002180280446CDE9001100F09980F3
S3150800A8A029D8002800F09980A0F120043D2C35D83D
S3150800A8B03D2C33D8DFE804F091999199A8A8A8A867
S3150800A8C0A899B23CC8603C999999323232323232F0
S3150800A8D0323299999968D2993232323232323232D8
S3150800A8E03232323232A8919191CD3C3CD7774DAD78
S3150800A8F0323232323288B0F5B06F00F08F802DD800
S3150800A900B0F5207F71D00CD8B0F5C07F65D0B0F512
S3150800A910007F65D0B0F5807F00F08580009804B090
S3150800A92010BDB0F5607F6AD00DD8B0F5407FF5D17F
S3150800A930FEF7B6F802464FF42070FFF737FFB2FB72
S3150800A940F0F0400847E0B0F5806F5DD0B0F5A06F35
S3150800A950E4D100216846FFF7CFFDDFE7B0F5106FB9
S3150800A96077D016D8B0F5E06F78D00AD8B0F5C06FB2
S3150800A9706AD0B0F5D06FD1D100216846FFF776FED0
S3150800A980CCE7B0F5F06FC9D100216846FFF7EAFEBB
S3150800A990C4E7B0F5406F3CD013D8B0F5206F62D04D
S3150800A9A0B0F5286FBAD10021314B0391D3F8703234
S3150800A9B003F00303012B02D103A8FFF7CFFD039B86
S3150800A9C03BE0B0F5486FA9D100216846FFF71CFEA9
S3150800A9D0A4E7FEF74BF80090A0E7FEF761F8FAE760
S3150800A9E0FEF744F80246204604E0FEF759F8024608
S3150800A9F04FF42070FFF7DAFEB2FBF0F0EBE701A8A0
S3150800AA00FFF7C8FC019AEEE700216846FFF7E6FC67
S3150800AA1084E700216846FFF715FD7FE700216846B1
S3150800AA20FFF742FD7AE74FF0E02302911B695B07C7
S3150800AA3005D5FEF735F80290029B00936EE703A949
S3150800AA4002A8FFF78BFDF7E700216846FFF786FDAA
S3150800AA5064E700216846FFF735FE5FE70021684690
S3150800AA60FFF75CFE5AE700216846FFF79BFD55E7AE
S3150800AA700080005008B58020FFF70AFF034B984274
S3150800AA809EBF4FF48032024B1A6708BD005A620215
S3150800AA9000A000501FB50023B0F5807F019300F099
S3150800AAA0C38064D85D2855D84C2807D82D2847D8A0
S3150800AAB023282BD8019805B05DF804FB4D381028DB
S3150800AAC0F8D801A353F820F01FAC0008B5AA00086F
S3150800AAD0B5AA0008B5AA0008D1AB0008B5AA0008AF
S3150800AAE0B5AA0008A5AC0008EFAB000895AB0008AE
S3150800AAF09BAC0008B5AA0008B5AA0008B5AA0008C4
S3150800AB00B5AA0008B5AA0008AFAC00082438092879
S3150800AB10D0D801A353F820F01FAC00081FAC0008DA
S3150800AB201FAC00081FAC00081FAC0008B5AA000837
S3150800AB3015AC0008B5AA0008B1AB000855AC00086A
S3150800AB403D2800F082803E28B4D1002001A9FFF7F5
S3150800AB50E5FDAFE78028ADD15A4B1B6F03F007031D
S3150800AB60013B032BA6D8DFE803F05350878FB0F5D7
S3150800AB70F06F6AD021D8B0F5B06F4BD00FD8B0F5CA
S3150800AB80607F00F0858095D3B0F5806F47D0B0F52B
S3150800AB90A06F8FD1002001A9FFF7AEFC8AE7B0F5B8
S3150800ABA0D06F57D0B0F5E06FCFD0B0F5C06F81D178
S3150800ABB0002001A9FFF7D2FC7CE7B0F5206F71D021
S3150800ABC00BD8B0F5086F4AD0B0F5106F7FF472AFA6
S3150800ABD0002001A9FFF776FD6CE7B0F5406F5CD061
S3150800ABE0B0F5486F63D0B0F5286F7FF463AF0021E6
S3150800ABF0344B0391D3F8703203F00303012B5BD077
S3150800AC00022B14BF0B46152300E00523019351E7D9
S3150800AC100223FBE7002001A9FFF746FC4AE70020CC
S3150800AC2001A9FFF7DBFB45E702934FF0E0231B6919
S3150800AC305B0705D5FDF734FF0D230393039BE5E773
S3150800AC4003A902A8FFF78AFCF8E7002001A9FFF785
S3150800AC5089FD2FE7002001A9FFF708FD2AE7194B10
S3150800AC60D3F8003103F00303022B07D0032B09D0D6
S3150800AC70012B0BD1FDF72AFF0323C7E7FDF782FF58
S3150800AC800923C3E776F00DFA0823BFE70123BDE7DA
S3150800AC90184601A9FFF77EFB0CE7002001A9FFF77C
S3150800ACA0D1FB07E7002001A9FFF77CFC02E700209B
S3150800ACB001A9FFF7A9FCFDE603A8FFF74FFC11233E
S3150800ACC0A4E700BF0080005008B5FFF7E3FE092897
S3150800ACD011D00A38012811D84FF48002094B4FF6D3
S3150800ACE0FF705A6603F5D8335B6A13F0010F18BF75
S3150800ACF04FF4FA7008BD044B1888FBE74FF6FF704F
S3150800AD00F8E700BF009000504E1D002038B50446F5
S3150800AD108020FFF7BFFE032800F08A804FF48012D8
S3150800AD20544B4FF0A0615A6645F60E03524AC2F8D4
S3150800AD308030524B99624FF4803103F58053996203
S3150800AD40936DD903FCD4916D11F08041FBD1D4E900
S3150800AD5000031B0543EA0063E07B0343207B43EAC9
S3150800AD600043607B43EA0033A07B43EA8013136108
S3150800AD709069D4E904531B0643EA856300F0004052
S3150800AD800343A07E0343207E43EA0043607E43EAF2
S3150800AD9000239361136AE269E57E002A0CBF00204E
S3150800ADA0082023F00F03134343EA8503324A03437B
S3150800ADB01362E369324D002B3BD194F82430916A33
S3150800ADC094F82000DB000D4043EA401394F8211064
S3150800ADD02B4343EA011343F480339362294B916D65
S3150800ADE033EA0101FBD14FF080712448816213696F
S3150800ADF0A56823F4700343EA055313614FF0004333
S3150800AE00836194F822300BB91F4B996294F823306A
S3150800AE103BB94FF480321C4B9A62174A936D5B001C
S3150800AE20FCD494F825301BB1134B184AC3F880207C
S3150800AE3038BD022B08D11161154891614FF40852AB
S3150800AE404FF47F4176F0F6FB0B4994F822308A6A74
S3150800AE5094F820001B06154043EA401394F8242072
S3150800AE602B4343EAC20394F8232043EA02438B6246
S3150800AE70D7E700BF009000500040005A0050005A23
S3150800AE80C7FFFEFE030001000060005AF1A7FFFF9E
S3150800AE903440005A37B5194CA26AA36D13F4803FA3
S3150800AEA018BF4FF48031164B18BF99624FF0807166
S3150800AEB09962144BA56993F9003025F47F0503447C
S3150800AEC0000280B225F47F4583F30803284340EA4D
S3150800AED00340A0610C48019276F0ACFBA36D019A81
S3150800AEE013F4803F07D04FF48031074803B0BDE81C
S3150800AEF0304076F09FBB03B030BD00BF0040005A1B
S3150800AF000050005A6B1D00202840005A014B93F947
S3150800AF10000070476B1D00204FF480300E490F4B20
S3150800AF208A6A9862886D00F003000328FAD14FF008
S3150800AF3080709862896D01211965074B996D89079B
S3150800AF40FCD4996D8807FCD5996D8907FCD5044909
S3150800AF50044876F06FBB00BF0040005A0050005A04
S3150800AF60000001012840005A014B1880704700BFB5
S3150800AF704C1D00204FF4800208B5184B5A66022370
S3150800AF80174A5360936813F48033FBD1012822D102
S3150800AF90FDF79CFD134B984215D003F5122303F5D4
S3150800AFA0F863984213D0104B00EB8002400AB3FBBB
S3150800AFB0F0F0520A0A4BDA62012218635A6200223A
S3150800AFC0074B5A6008BD45F67A10084AF2E745F677
S3150800AFD01A00074AEEE75362F1E700BF00900050F7
S3150800AFE00040025000F0490264666666D8B805005B
S3150800AFF0BBCF0500B0F5207F10B50C4657D008D852
S3150800B000B0F5007F48D003D830B3B0F5C07F23D061
S3150800B01010BDB0F5607FFBD129492A48D1F8FC203C
S3150800B02012F080721EBFD1F8FC3023F08073C1F88D
S3150800B030FC30D0F88030611E23F0300444EA011455
S3150800B040C0F88040002AE3D01D4AD2F8FC3043F00D
S3150800B0508073C2F8FC30DBE776F0FDFA76F009FB80
S3150800B0604FF48031184B174A1967136F611E23F482
S3150800B070704444EA01341467FDF712FD0446FFF7ED
S3150800B08003F9C0F10201204676F0EDFA00F02EF839
S3150800B090BDE81040FFF7EEBC0A4A0139D2F89030F5
S3150800B0A023F0F85444EA0164C2F89040B0E7054B2F
S3150800B0B0013C196F21F4806141EA84241C67A7E7E3
S3150800B0C000ED00E0008000500090005008B5012116
S3150800B0D0022000F0A5F976F0BEFA76F0CAFA4FF427
S3150800B0E08032014B1A6708BD0090005008B54FF42E
S3150800B0F0C070FFF7CDFBBDE80840044988428CBF05
S3150800B100022101214FF42070FFF774BF80F0FA0284
S3150800B1104FF4C02201212DE9F04105466A4B5A66D3
S3150800B1206A4A03F598335C6851605E6816F0020651
S3150800B130FBD1FFF7A9F80128286805D1644B984286
S3150800B14002D90020BDE8F081624A0023114617683B
S3150800B150B84202D35768B84205D90133192B02F110
S3150800B1601002F4D1002301EB0313D3E9028028B1BE
S3150800B170FFF796F800F07F0048EA00088020FFF7FE
S3150800B18089FC05285FD176F066FA76F072FA4FF4F4
S3150800B19080324D4B4FF4C0701A67FFF707FB012842
S3150800B1A006464CD102214FF4C070FFF723FF012752
S3150800B1B04948C16811F00601FBD1D0F808C0C0F8AB
S3150800B1C00880836808F4F81203F4F8139A424ED1FB
S3150800B1D0AA88EB8843EA0243404AD360AB68032B4C
S3150800B1E033D1A2F5A032D2F8003123F0030343F09D
S3150800B1F00103C2F800312B7D287B002B6B7D14BF21
S3150800B20004220022002B18BF40212B694FF00008AA
S3150800B21043EA40031343314A0B4393602868FDF71A
S3150800B2201FFC0722294B1A610122A3F580535A6095
S3150800B230A3F580531C6914F00704FBD01EE002280E
S3150800B24001D10421AFE70027B2E7092B07D1244A29
S3150800B250D2F8003123F0030343F00203C9E7082BB1
S3150800B260C9D11F4AD2F8003143F00303C1E714F0ED
S3150800B27001044FF00108C0F808C0D2D18020FFF7BA
S3150800B28009FC052817D127B131464FF4C070FFF7DE
S3150800B290B1FEFDF705FC0546FDF7DCFBFDF7DAFB1D
S3150800B2A0FEF7F2FFC0F10201284676F0DCF9FFF757
S3150800B2B01DFFFFF7DFFBB8F1000F7FF442AF631EF7
S3150800B2C0584258413EE700BF0090005000E0015048
S3150800B2D0005A6202305C0C080000015000C00150A0
S3150800B2E0008000500028ABBF00F16040054B00F518
S3150800B2F0614000F00F00ACBF90F80003185C00092D
S3150800B300704700BF14ED00E0034B5868C0F308000F
S3150800B310003818BF0120704700ED00E0054B4209D0
S3150800B32053F8223000F01F0023FA00F0C04300F063
S3150800B3300100704700E100E0014608B5EFF310830D
S3150800B340DB0702D50122104608BDFFF7E7FF0246D4
S3150800B3500028F7D10846FFF7C5FF0146EFF311832A
S3150800B36013B1B0EB131FEDD2074B5B68C3F30803A9
S3150800B370002BE8D0103B58B2FFF7B4FF88428CBFC9
S3150800B38000220122DFE700BF00ED00E0024A536B0E
S3150800B3900342FCD1704700BF00400950044A417877
S3150800B3A0536F23F4407343EA01235367704700BF82
S3150800B3B00040005010B50A4A0446136943F00403D6
S3150800B3C0136106F073F976F07EF930BF76F07CF9F2
S3150800B3D006F080F91CB9BDE81040FDF761BB10BD49
S3150800B3E000ED00E010B5084A0446136943F004036B
S3150800B3F0136106F05BF930BF06F06CF91CB9BDE8BD
S3150800B4001040FDF74DBB10BD00ED00E0034A017981
S3150800B410D36E23F030030B43D366704700400050C9
S3150800B420F8B504461C4BD3F88420D106FBD4D3F8D0
S3150800B4308430C3F381139C422CD0FDF717FB012CF3
S3150800B440064602D1214676F00EF976F02CF94FF031
S3150800B4500072124B07465A66204676F038F94FF4C2
S3150800B46080630D4D621E93402B676B6E9A0103D461
S3150800B470D5F884309B060AD5384676F018F9022C9A
S3150800B48008D13046BDE8F840002176F0ECB8D5F88A
S3150800B4908430EAE7F8BD00BF004000500060005065
S3150800B4A007B518B90191FDF7E1FA0199064B1B7822
S3150800B4B043B1064B984205D8012003B05DF804EB6A
S3150800B4C0FFF7AEBF0220F8E7D1FC0120005A62025E
S3150800B4D00278034B012100201A70FFF7E1BF00BF75
S3150800B4E0D1FC01204FF0004238B5284B28495A664E
S3150800B4F04AF6CD334D6C044605F001050B6460BB76
