S01B0000534654505F4D4F43434F542D784C4344784C45442E733337B3
S3150800600000120020C1800008D1B90608A13209088B
S315080060103BDA0608D1B90608D1B90608D1B9060887
S31508006020D1B90608D1B90608D1B9060841620008EF
S31508006030D1B90608EC690A08E16100085BE40608BC
S31508006040D9850008D1B90608D1B90608D1B9060814
S31508006050D1B90608D1B90608D1B90608D1B90608D2
S31508006060D1B90608D1B90608D1B90608D1B90608C2
S31508006070D1B90608D1B90608D1B90608D1B90608B2
S31508006080D1B90608D1B90608D1B90608D1B90608A2
S31508006090D1B9060825890008D1B90608D1B9060874
S315080060A0D1B90608A18A00087D8A0008D1B9060870
S315080060B0D1B90608F58406080D8F0608FB5B0A08A1
S315080060C0F75B0A08D9860608075C0A08FF5B0A0810
S315080060D0E58E0608035C0A084D8F0608B18F060888
S315080060E0D1B90608D1B90608D1B90608D1B9060842
S315080060F037DA0608D1B90608D1B90608D1B90608AB
S31508006100D1B90608D1B90608D1B90608D1B9060821
S31508006110D1B90608D1B90608D1B90608D1B9060811
S31508006120D1B90608D1B90608D1B90608D1B9060801
S31508006130D1B90608D1B90608D1B90608D1B90608F1
S31508006140D1B90608D5A50008D1B9060841DB060865
S31508006150A16A0608D1B906084F580A0855580A0808
S31508006160D1B90608D1B90608D1B90608D1B90608C1
S315080061700B4A1168086806C881F30B88022181F367
S315080061801488203080F30988BFF36F8F4FF0000022
S3150800619080F31188104700BFAFF30080AFF300808B
S315080061A0781C01200000000000000000000000002C
S315080061B007480068006880F3088862B661B6BFF3CE
S315080061C04F8FBFF36F8F02DF00BF00BFAFF30080B2
S315080061D008ED00E0000000000000000000000000DC
S315080061E0EFF30980EFF30B82734620E9FC0F104AA0
S315080061F0116808604FF0300080F31188BFF34F8FA5
S31508006200BFF36F8F0DF084FB4FF0000080F3118809
S31508006210074A11680868B0E8FC0F82F30B8880F318
S3150800622009881847AFF30080AFF30080AFF300800A
S31508006230781C01200000000000000000000000009B
S315080062401EF0040F0CBFEFF30880EFF30980044932
S31508006250084700BFAFF30080AFF30080AFF30080BC
S3150800626085470108000000002DE9F04F2DED028B4F
S31508006270DFF8E8918FB0B9F800309B0706D440F2F2
S3150800628082616F4B6F4A704864F060F8DFF8D0B1EE
S31508006290DBF8003023B940F283616C4B694AF2E7B8
S315080062A06B4C0DF1200894E8070088E807009B88E6
S315080062B0684D8DF817300123B9F800200DF1170144
S315080062C01A4628689EF08EFE9DF81720DBF8001007
S315080062D0023A0023096892B20C3428680DF12C0A98
S315080062E09EF080FE94E807008AE80700DBF8003095
S315080062F01B681C7814F0200421D028689EF08BFCBB
S31508006300002870D028689EF086FC04460D9863F035
S3150800631009FB064620460F4663F004FB02460B4679
S3150800632043A1D1E9000163F0A1FC02460B463046C1
S31508006330394663F0BBF963F009FE0D90012428681D
S315080063409EF085FC9DF81730002850D0981DC00097
S3150800635063F0F8FA38A3D3E9002363F05DFB41EC58
S31508006360180B28689EF073FC03900D9863F0DAFA10
S31508006370039B064618460F4663F0D4FA02460B46B8
S3150800638051EC180B63F072FC02460B463046394650
S3150800639063F08CF963F0DAFD0D90B9F80020DBF8AC
S315080063A0003012F02002286827D00D9A02F5FA72FA
S315080063B00D9293F8202099798DF82220264A434693
S315080063C01278CDF800A08DF8232022469EF09CF97D
S315080063D020B102200AF030FD3DF076FE0FB0BDEC8C
S315080063E0028BBDE8F08F0D9BC0330D93A6E70D9881
S315080063F0063300EB43130D93CFE79D6999797DB179
S31508006400DB69154E2B4436780693ADF81C20CDE98A
S31508006410008A224606AB8DF823609EF080F9D7E7FE
S31508006420534622469EF05AF9D2E700BFAFF30080E2
S315080064300000000060E366410000000080842E41F1
S31508006440CE8F0A0899920A08418E0A08F48F0A081C
S31508006450B4910A0818190120FA170020029E012093
S315080064601C1C01200000000073B5814B1C8814F029
S31508006470010440F0F58041F60B227E4D7E4B7F21CC
S31508006480C5E9003405F11003AB607C4B7C489A8063
S3150800649010221C609FF0F3FE7F227A4B1A707A4B0B
S315080064A01B6ADB0706D440F20E41784B784A7948D6
S315080064B063F04CFF2146284659F058F8044620B99F
S315080064C040F21241744B724AF1E75AF053FC20B17C
S315080064D040F21641714B6E4AE9E74FF0011120462A
S315080064E09EF068FD20B140F21A416C4B684ADEE71F
S315080064F0022120469EF070FB20B140F21D41674BF9
S31508006500634AD4E7204666495AF0F8F920B14FF4B1
S315080065108461624B5E4ACAE7012120469EF0E9FE85
S3150800652020B140F225415D4B594AC0E7012120467A
S315080065309EF0F6FE064620B14FF48561574B544A45
S31508006540B5E70146382257489FF099FE8023324620
S31508006550204605F114019EF05BFD802804D040F228
S315080065602F41514B4A4AA2E7504D01209EF0B1F8FF
S315080065703DA3D3E900232C602046CDE900234FF044
S31508006580FF324FF0FF339EF0E0FB014620B140F2A8
S315080065906E31424B464A8AE738480AF0C1FA012169
S315080065A008460AF031FB012128689EF05FFA044686
S315080065B020B140F2C141394B3E4A78E701464FF4D3
S315080065C008723D489FF05BFE3C4A3D4B02F188014C
S315080065D01A60996202F5887102F5CC729C809A67F6
S315080065E09C85384AA3F854401965A3F87C40364B75
S315080065F06FF063001A609C80344A354B1A60354A3E
S315080066009C801470344A5A6113F03AFC0B200AF045
S3150800661041FA324B186020B940F2D941304B254A2D
S3150800662045E703F035FF20460AF05AFB082228689A
S3150800663011469EF0A5FB044620B140F2DE41294BE7
S315080066401C4A34E70BF060FB274B28481C70284B84
S315080066501C70284B1C7002B0BDE870406DF092B9F2
S3150800666002B070BDAFF300800BE020FFE20300002C
S31508006670029E012024190120650F01081C1901201A
S31508006680F2A10120E3A101200080E00F9E900A08F4
S3150800669028920A08418E0A08B7900A089F8D0A08A8
S315080066A020930A08C4190120C6900A08181901205F
S315080066B01B920A088A920A08FC190120041A01206A
S315080066C0201D002003A20120F81C002088A201201A
S315080066D0C01D002082A20120E81D0020C01901204B
S315080066E0FE900A0819910A08E6A101209D910A0858
S315080066F087A2012086A201202DE9F04F2DED028BFD
S31508006700804600680C4691461D468DB030B9032771
S3150800671038460DB0BDEC028BBDE8F08F0668766C86
S31508006720B0472D2807460CD00028F1D09C4A9D4B2F
S315080067300221A52808BF13460D209B4A8BF082FE2E
S31508006740E6E76378202B01D10027E1E7974BD8F8D5
S315080067500000049358B1036822461B6C04A99847A5
S31508006760074630B1049803689B689847D0E7032723
S31508006770F8E78F4B8F4E05934FF48973EE40F64337
S31508006780EB40DB43102D06F0010688BF0126082DD5
S3150800679003F0010388BF01239FED7F8B6FF0010B88
S315080067A00193049805A90368DB689847002840F018
S315080067B0EC808DF80E0005980DF10E010368DB6874
S315080067C098470746002843D19DF80E30402B03D042
S315080067D0802B01D003273BE062789A42E1D101235E
S315080067E005988DF80F3003680DF10F015B6998471E
S315080067F0074668BB9DF80F30082B17D8002BD0D05A
S31508006800013B072BCDD801A252F823F05D6800089A
S3150800681037680008A367000859680008A3670008D6
S31508006820A3670008A367000863680008102BB8D19F
S31508006830002EB6D102E06B1E012BB2D800230598B4
S315080068400693036806A95B6A9847824668B10746B5
S3150800685005A878F0C2FF85E7042DEFD0012DA0D159
S31508006860ECE7019B002B9CD1E8E7069B002B46D062
S315080068708DED088B05985146036808AA9B6A9847C8
S3150800688007460028E4D1DDE90830591E40F1FF32F9
S315080068908B456FF0100171EB020210D39DF80E20A4
S315080068A0402A97D1D4E90212904208BF8B4226D0DB
S315080068B0069B0AF1010A53457FF673AFD8E74FF0F6
S315080068C0FF31C21C994277EB020231D39DF80E20A4
S315080068D0402A7FF47FAF1F0C04F1100104F11C005D
S315080068E09BB28842E4D051F8042B002AF9D0B7EBC2
S315080068F0124FF6D1002BF4D092B29342F1D800236E
S3150800690005980793036807A99B6B984707460028CD
S315080069109ED1079B002B36D082460598CDF820A03D
S3150800692003683946DB6B08AA984758B107468FE7CC
S3150800693013F5803F70F1FF32FFF44CAF9DF80E203F
S31508006940802AAEE7089BD90704D5D9F8002009990B
S31508006950914212D19A0705D5BDF82810B9F8042036
S3150800696091420AD15B070ED5D8F80400B9F804207D
S3150800697003680B999B68984728B9079B0137BB4260
S315080069807FF60FAFC9E7002762E702210D200A4A02
S315080069908BF058FDA5275BE700000000000000000B
S315080069A000BA0A088F0D0C08D4B90A08D0120020BC
S315080069B0D412002016010100F1B90A0800000000EF
S315080069C02DE9F04F2DED028B9FED5B8B83ED008B50
S315080069D016460024BFB09846D0E90623CDE9002321
S315080069E0054696F820208A464FF0030B1AA924A8D4
S315080069F00F947AF0D5FA8DED168B514BCDE91044EC
S31508006A00196814941294ADF860B00B680CA8DB688A
S31508006A109847D5E90C310C9A1AA8B2EB03090D9BD5
S31508006A204FF0FF3263EB01032968CDE91144CDE944
S31508006A3016930B93ADF840408DF85040ADF860B012
S31508006A408AF0EAFA96E80700338C10AF87E8070061
S31508006A50ADF860305146D5E906232846CDE93023FE
S31508006A60D5E90A23CDE92E230FAB3A4620F078FE66
S31508006A7004460346002857D1284696F820200F9941
S31508006A8020F0C8FF0446034600284DD13B4652462F
S31508006A90284624A97AF0A4FA04460346002843D1D6
S31508006AA0EB68209A28461344EB60D5E90623C8E923
S31508006AB0002320F0BBFE0B9B9DF850E0EB622148BB
S31508006AC0214B85F82040BEF1000F18BF03461698E3
S31508006AD0119A08901798C5F82890CDE906309DF8C0
S31508006AE06010BDF840401298D8F80030160C92B2E3
S31508006AF0CDE90420CDE90246144A1A2001910093F3
S31508006B005946D8F804308BF09DFC21F06DFB3946C8
S31508006B10EA6800F5CE602BF097FD044620463FB0A4
S31508006B20BDEC028BBDE8F08F01211A20084A8BF0D4
S31508006B3089FCF3E7AFF300800000000000000000C6
S31508006B40FC130020AAC50A08A6C50A08B0C50A0883
S31508006B5038C60A08000000002DE9F04F2DED028B1B
S31508006B60884204460D4690461E4697B00AD103460B
S31508006B7001211D202E4A17B0BDEC028BBDE8F04F4F
S31508006B808BF060BC9FED288B0DF10C092A21484635
S31508006B9005AF2EF073FC99E8030087E80300DFF8D9
S31508006BA094A0DFF894B0BDF81400BDF816308342FF
S31508006BB034D02EF0B3FC337881468DF824408DF816
S31508006BC025508DF826808DF828300BB173680B9305
S31508006BD009AB0893CDF81CA020F008FD00230E93FE
S31508006BE08DF840308DF851302A23ADF830904FF0AB
S31508006BF001090D930CAA6B4607A98DED128B8DF82A
S31508006C0050907AF0D5FA034620B15A4649461D20D7
S31508006C108BF018FC384683F049F8C4E717B0BDEC8A
S31508006C20028BBDE8F08F00BF0000000000000000E6
S31508006C30B0FC0A087CFD0A08F0FC0A0800000000FF
S31508006C402DE9F04F2DED028B9FED318B9DB00DF1A7
S31508006C5008092A21054604AC484616461F46DDF8AB
S31508006C60A4802EF00BFC99E8030084E80300DFF803
S31508006C70A8A0DFF8A8B0BDF81000BDF8123083420E
S31508006C803ED02EF04BFC289B81461B78CDE90A673F
S31508006C9008958DF830301BB1289B5B788DF831301C
S31508006CA098F800308DF838301BB1D8E90223CDE9C1
S31508006CB0102308AB0793CDF818A020F097FC002303
S31508006CC02A228DF858308DF869300223ADF848909D
S31508006CD04FF00109CDE9132306A96B4612AA8DEDDB
S31508006CE0188B8DF868907AF063FA034620B15A46F5
S31508006CF049461D208BF0A6FB204682F0D7FFBAE74F
S31508006D001DB0BDEC028BBDE8F08F00BFAFF300806D
S31508006D100000000000000000A4FD0A0847FD0A085C
S31508006D202DE9F04F2DED028B083089B00E469146BD
S31508006D30DDF860808BF075FA0446002800F0A18023
S31508006D406D4614AB0FCB85E80F0000259FED508BE1
S31508006D504FF0010B41F2A45A04AF87E80F004E4BDF
S31508006D60C4E90355236003F12C02C4E905554833E9
S31508006D70A3604A4B04F1480C62600FCB84ED0E8B7E
S31508006D80C4E90755C4E90C5584F8245084F84050E2
S31508006D908CE80F00424B1022236604F17803C4E9FD
S31508006DA01E3304F1A003C4E928333E4B2946C4F830
S31508006DB0D030C4E91955C4E9355584F858B0A4F853
S31508006DC05AA0E56584F86C506467C4F89850C4F80E
S31508006DD0C050C4F8DC5004F1E0009FF050FA84F883
S31508006DE0F0B0A4F8F2A0C4F8F45004F1F8008BF05F
S31508006DF065FF4AF6C873C82284ED428B84ED448B3E
S31508006E00C4E9462304F59873C4E94C3384F8005161
S31508006E10A4F80451C4F8285184F82C51C4F85051E8
S31508006E203368E36073682361B3686361F368A361D9
S31508006E303369E36173692362337E84F824302BB1A6
S31508006E40D6E9070104F1280383E80300304679F000
S31508006E50ACF9B0B9B9F1000F13D0B8F1000F10D0E2
S31508006E6003CF3B78C4F8309084F84030012384F887
S31508006E70283104F10803A063E163C4F8C880C4F8A4
S31508006E80DC30204609B0BDEC028BBDE8F08F00BFB0
S31508006E900000000000000000FCD00A08883D012020
S31508006EA0BCD00A08E8D00A082DE9F04F2DED028B70
S31508006EB09946002300240025CDB08DF8C8304993A3
S31508006EC08DF828319C4BCDE92E45CDE93045CDE9E5
S31508006ED034450C934FF6FF740123DFF874A2064677
S31508006EE088461746CDF8D8A0ADF820410D936AB16B
S31508006EF0054600F53E74A54200F00C8128467AF056
S31508006F0031FA002800F008819835F4E785F057FB38
S31508006F10044630B9AC2420464DB0BDEC028BBDE822
S31508006F20F08F06F53E75284682F0C3FDB4F8683042
S31508006F308DF8C880ADF8203194ED028B6A34202193
S31508006F4020469FF005FBCDE90C407C4B4FF4C871F9
S31508006F500E93002309A8CDE909330F930B93CDF8B7
S31508006F6070A080F000F9099B53B90B240BA879F09F
S31508006F7039F80AA879F036F809A879F033F8CAE793
S31508006F804FF4C8710AA880F0EEF80A9B002BECD0E3
S31508006F904FF4C8710BA880F0E6F80B990029E4D0E5
S31508006FA0099B0A9A10934FF4C8733046CDE9122309
S31508006FB0CDE9141310AA4146119385F05DFB08B17B
S31508006FC00446D3E74146304612AA85F037FB002827
S31508006FD0F6D14146304614AA85F00DFB0028EFD1BC
S31508006FE0109B0DF1B80A1693119B0DF1700B1793B0
S31508006FF0129B8DED008B1893139BCDE905AB199366
S31508007000149B1AAA1A93159B18A91B9336AB0793B8
S3150800701030AB049334AB03930EAB029316A831F04E
S3150800702069FC0028CCD10BA878F0DCFF0AA878F018
S31508007030D9FF09A878F0D6FFB9F1000F13D1D6F811
S31508007040940300285AD003689B689847D6F8943367
S315080070501A6800284AD0546941465A461846A04735
S3150800706098B1044657E7D9F8003048465B6998470F
S31508007070036859465B6A984708B9C5244BE79DF8E3
S315080070806031CDF824918DF828315146284685F08F
S3150800709051FD0028E5D128460CA985F05DFA2B7C20
S315080070A077B302211120264A8BF0CCF9D5E90012D4
S315080070B0AB69CDE90121009302211120EB69214A30
S315080070C08BF0C0F90F9906F5697033F067FE034631
S315080070D020B1012111201C4A8BF0B4F927B196F88A
S315080070E0B233013386F8B233002414E74146184612
S315080070F0D26890470028C8D110240CE703240AE771
S31508007100D5E900121120CDE9002102210F4A8BF0A2
S3150800711099F9D7E70B24FEE6BDF864319FED048B99
S31508007120ADF820318DF8C8800FE700BFAFF30080B7
S315080071300000000000000000B8A00A08F4370B0899
S3150800714021370B0841370B08B9370B0884370B086A
S31508007150986B0B08000000002DE9F0478AB00DF186
S315080071600D0301931523064600934FF480720023FE
S3150800717008460C468AF04DF9D8B9B37B012200932C
S31508007180204600238AF0CCF898B9F37B02220093B4
S31508007190204600238AF0C4F858B90DF10E0301936E
S315080071A0162303220093204600238AF032F9054667
S315080071B010B10AB0BDE8F08737464FF010090DF157
S315080071C018081022002140469FF059F80DF10F03C8
S315080071D0019315234FF480720093204600238AF00A
S315080071E018F90028E5D1F27BEBB29A4250D997ED0F
S315080071F0047BC446B7F818A007F11A0307F12A0E4C
S31508007200624618685968083303C273459446F7D12D
S315080072108DED007B0422002320468AF05CF80028C6
S31508007220C7D1052200232046CDF800A08AF078F8B9
S315080072300028BED14046494606228DE803000023B1
S315080072402046CDE904898AF0A0F90028B1D1204664
S315080072509DF90F108AF00CF9013530370028A8D1AE
S31508007260032DAED120469DF90E108AF001F90028AB
S315080072709FD1F38807220093204600238AF050F80E
S31508007280002896D120469DF90D108AF0F1F890E76E
S3150800729082469FED017BBBE700000000000000006E
S315080072A0054B18680368996901A3D3E900230847C1
S315080072B000E0373B015D0300FC13002000000000DE
S315080072C02A2110B57248ADF5956D029139F024F86A
S315080072D008B19EF02BFF029002A96D4838F0D6FE41
S315080072E00028F6D1029B2A2BF3D167A3D3E9002302
S315080072F06848CDE9082339F027F80028E9D10022A3
S315080073000023644808A9CDE9082338F0E3FE0028DD
S31508007310DFD1DDE9080240F6FA035F499A4208BF61
S315080073208842D6D101215D488DF8071038F0DCFF78
S315080073300028CED18DF807000DF10701574838F01F
S315080073407DFE0028C5D19DF80730002BC1D05048D6
S3150800735038F0F0FD0028BCD14D4803A938F096FE58
S3150800736040F20124A042B4D14D494E488BF0BFFFEC
S315080073700028AED140224B4804AB0AA938F0D2FE09
S315080073800028A6D1049B0E2BA3D10F2244490AA894
S315080073909EF03EFF00289CD1434942488BF0A7FF48
S315080073A0002896D104AB40223E480AA938F0BAFE16
S315080073B0049B03438DD19DF82810002989D13948AB
S315080073C08BF095FF002884D14022364805AB1AA9D0
S315080073D038F0A8FEA0427FF47CAFF1223349344846
S315080073E038F0E4FF00287FF474AF4FF40072304899
S315080073F006AB2AA938F0E4FE00287FF46AAF069A9D
S31508007400F12A7FF466AF29492AA89EF001FF0246B1
S3150800741000287FF45EAF0146254838F0C7FF0028EC
S315080074207FF457AF4FF40072214807ABAAA938F08A
S31508007430C7FEA0427FF44DAF164838F087FD0028F6
S315080074403FF447AF154838F081FD00283FF441AFB7
S31508007450174838F07BFD00287FF43BAF38F0D0FDA5
S3150800746000287FF436AF0B4838F070FD00283FF44B
S3150800747030AF0A4838F06AFD00287FF42AAF0DF5C8
S31508007480956D10BDAFF30080316EE595FA080000E2
S315080074900573080001720800316EE5950673080049
S315080074A018640B080273080017640B0826630B0898
S315080074B00272080000000000002370B5404C054623
S315080074C08AB0E36318B1008823604CF053FD3D4849
S315080074D09DF06BFB3C4E3D4B304633603C4B736036
S315080074E04CF01AFF0021304658F040F832A3D3E991
S315080074F00023A062C4E9062397F0E2FFD4E9062335
S31508007500194310434FF0FF33C4E90601CDE90001E2
S315080075104FF0FF32A06A9DF018FC02224FF0FF31AF
S31508007520A06A9DF02DFC01204CF08AFA4FF40073F6
S3150800753000222849A06A9DF06BFDB0F5007F38D17E
S3150800754000239422CDE9073309933C23CDE903327E
S3150800755005939623A06A03A9069358F023FC35B32E
S31508007560287C4CF097FF0546F0B9A06A9DF013FFFA
S315080075704CF038FF4CF046FA20B14FF480700021E9
S3150800758049F0A6FA4CF04EFA20B14FF400600021FB
S3150800759049F09EFA97F059FF01209DF09AF80E4A95
S315080075A00E49A06A97F080FF28460AB070BDFF20F2
S315080075B0D7E70725F8E700BF0DD5015520000000DD
S315080075C008060120690345ECD8970120CD41050836
S315080075D0CC970120CC95012051F4090891F40908AB
S315080075E010B5054C237833B9044B13B1044800E0B1
S315080075F000BF0123237010BD700B0120000000009E
S31508007600D0130C0808B5034B1BB10349034800E027
S3150800761000BF08BD00000000740B0120D0130C0841
S31508007620A3F5803A704700BF174B002B08BF134BD2
S315080076309D46FFF7F5FF00218B460F461348144A6F
S31508007640121A9EF01CFE0E4B002B00D098470D4BCD
S31508007650002B00D098470020002104000D000D489B
S31508007660002802D00C4800E000BF63F0AFF8200005
S31508007670290045F0BDF862F095FE00BF000008003D
S31508007680000000000000000000120020841A0020FC
S31508007690E8470220000000000000000010B5224C58
S315080076A002F07EF9236F23F0070343F002032367F2
S315080076B064F014FBD4F82031002023F0070343F0CC
S315080076C00103C4F82031D4F8283123F0070343F026
S315080076D00103C4F82831D4F8403123F0030343F0FA
S315080076E00103C4F84031D4F8603123F0030343F0B2
S315080076F00103C4F86031D4F8403223F0030343F0A1
S315080077000103C4F84032D4F8003223F0070343F0EB
S315080077100103C4F80032D4F8083223F0070343F013
S315080077200103C4F8083210BD0080005007B501A84F
S3150800773002F000FD9DF80530012B14D19DF80430A8
S315080077408BB94FF48012154B1549586E03F58053C3
S315080077505A664B6B23F0E05343F040634B63C30216
S315080077605CBF104B5A6607F0C3FA07F01BFA66F0BF
S3150800777060F907F079FA66F056F907F029FAFFF783
S315080077808DFF07F05FFA00F0EBFE01F09BF90AF0B7
S3150800779035FB03B05DF804EB07F02EBD0080005002
S315080077A00040005A00A0005008B5044864F00FFADB
S315080077B0BDE80840024864F00ABA00BF40690A08F2
S315080077C058690A0870B58B6806460D4614468CB08B
S315080077D0A3B1022B32D0812278F051FFD5E90123DB
S315080077E091B2120C01929AB20291009201211D20C7
S315080077F0194A1B0C8AF026FE0CB070BD19461C22CD
S3150800780005A89EF03CFD214605A892F012F904460B
S3150800781030B92946304605AA24F0E8FA0028EBD103
S3150800782029468522304678F02AFF234602211D2064
S315080078300A4A0CB0BDE870408AF004BE114605A895
S3150800784092F041F904460028EAD12946304605AAAD
S3150800785024F058FBE2E700BF70690A08A4690A0821
S3150800786070B58B6806460C4688B0EBB9114604A875
S31508007870ADF810308DF8143092F001FC054628B9A1
S315080078802146304604AA7DF0F2FDF0B9214685224C
S31508007890304678F0F4FE2B4602211D200C4A08B02B
S315080078A0BDE870408AF0CEBD812278F0E8FED4E9C2
S315080078B0012391B2120C01929AB20291009201210F
S315080078C01D20044A1B0C8AF0BDFD08B070BD00BF20
S315080078D0A4690A0870690A0870B58B680646022BFF
S315080078E00D4614468AB024D0042B34D0002B3FD141
S315080078F00022ADF810300023214604A8CDE906235E
S3150800790091F0C0FE044630B92946304604AA24F050
S3150800791019FF00283DD129468522304678F0AFFE6A
S31508007920234602211D201C4A0AB0BDE870408AF091
S3150800793089BD1822002104A89EF0A1FC214604A8AE
S3150800794093F089FC04460028E5D12946304604AA66
S3150800795025F01AF8DDE7114604A891F0C9FE044699
S315080079600028D8D12946304604AA24F069FFD0E772
S31508007970812278F084FED5E9012391B2120C019296
S315080079809AB20291009201211D20044A1B0C8AF02A
S3150800799059FD0AB070BD00BFA4690A0870690A08D3
S315080079A070B58B6806460C4688B0FBB900200021E6
S315080079B0CDE90601114604A8CDE9043391F054FF38
S315080079C0054628B92146304604AA25F0ADFAF0B98D
S315080079D021468522304678F052FE2B4602211D208C
S315080079E00C4A08B0BDE870408AF02CBD812278F0B8
S315080079F046FED4E9012391B2120C01929AB2029181
S31508007A00009201211D20044A1B0C8AF01BFD08B0B8
S31508007A1070BD00BFA4690A0870690A0870B58B684A
S31508007A2006460D4614469CB0042B64D8DFE803F0DE
S31508007A30032F633F4F000023214604A8ADF81030FA
S31508007A408DF812308DF814308DF820308DF83030DE
S31508007A508DF840308DF850308DF8603093F0A5FDE4
S31508007A60044630B92946304604AA25F0E3FA002828
S31508007A7052D129468522304678F001FE2346022156
S31508007A801D20264A1CB0BDE870408AF0DBBC0023E6
S31508007A90214604A8ADF8103092F0F1F90446002802
S31508007AA0E7D12946304604AA7EF02DFADFE70023FF
S31508007AB0214604A8ADF8103092F00DFA04460028C5
S31508007AC0D7D12946304604AA25F094FBCFE70022F1
S31508007AD004A811468DF8482088F041FE214604A8DE
S31508007AE094F016F804460028C3D12946304604AA5D
S31508007AF07EF08EF8BBE7812278F0C1FDD5E9012337
S31508007B0091B2120C01929AB20291009201211D20A3
S31508007B10034A1B0C8AF096FC1CB070BDA4690A08BF
S31508007B2070690A0870B58B6806460D46144694B007
S31508007B30052B77D8DFE803F0032333475764002380
S31508007B40214604A8CDE90533ADF8103091F038F98F
S31508007B50044630B92946304604AA7EF056FA00286B
S31508007B6071D129468522304678F089FD23460221BF
S31508007B701D20364A14B0BDE870408AF063BC002365
S31508007B80214604A8ADF8103091F073F90446002890
S31508007B90E7D12946304604AA7EF072FADFE70022CA
S31508007BA004A811468DF8482088F0D9FD214604A876
S31508007BB093F082FF04460028D3D12946304604AA0A
S31508007BC025F076FFCBE70023214604A8ADF8103050
S31508007BD091F0ACF904460028C3D12946304604AAD8
S31508007BE025F0AEFEBBE7214604A891F0EFF904465E
S31508007BF00028B6D12946304604AA25F0FFFEAEE78E
S31508007C000023214604A8CDE90533ADF8103091F0DC
S31508007C10FBF904460028A4D12946304604AA25F0D3
S31508007C200FFF9CE7812278F02AFDD5E9012391B25E
S31508007C30120C01929AB20291009201211D20044A67
S31508007C401B0C8AF0FFFB14B070BD00BFA4690A08BC
S31508007C5070690A0870B58B6806460D4686B0A3B1EA
S31508007C60402B2FD0812278F00AFDD5E9012391B265
S31508007C70120C01929AB20291009201211D201A4A11
S31508007C801B0C8AF0DFFB06B070BD114605A8ADF8DF
S31508007C90143091F01BF8044630B92946304605AA37
S31508007CA07EF0B0FA0028EED129468522304678F0D3
S31508007CB0E6FC234602211D200C4A06B0BDE87040AA
S31508007CC08AF0C0BB0023114605A88DF814308DF83C
S31508007CD0153091F027F804460028E5D129463046A4
S31508007CE005AA25F087FFDDE770690A08A4690A086E
S31508007CF02DE970430D46AB680646114690B00B2B2E
S31508007D0000F2A080DFE803F0069E249E339E445FBF
S31508007D109E707F8E002304A8CDE9043391F0D6FE29
S31508007D20044638B92946304604AA27F0C5FA002879
S31508007D3040F09A8029468522304678F0A0FC2346F2
S31508007D4002211D204A4A10B0BDE870438AF07ABB6A
S31508007D50002304A88DF8103091F011FF044600287E
S31508007D60E8D12946304604AA27F050FADFE700236F
S31508007D7004A8CDE904338DF8183093F013F80446B7
S31508007D800028D7D12946304604AA27F05BFBCEE760
S31508007D9000234FF000084FF0000904A8CDE904338A
S31508007DA0CDE90933CDE90C898DF81830ADF83830AE
S31508007DB093F06EF804460028BCD12946304604AA3A
S31508007DC027F04AF8B3E7002304A8CDE904338DF871
S31508007DD0183093F027F804460028ABD129463046D8
S31508007DE004AA26F02DFFA2E7002304A8CDE9043350
S31508007DF091F049FF044600289CD12946304604AA3A
S31508007E0026F0A4FE93E7002304A88DF8103091F01D
S31508007E1066FF044600288DD12946304604AA26F076
S31508007E2021FE84E7002304A8CDE9043391F083FFFB
S31508007E30044600287FF47EAF2946304604AA26F079
S31508007E40A9FF74E78122294678F019FCD5E90123B0
S31508007E5091B2120C01929AB20291009201211D2050
S31508007E60044A1B0C8AF0EEFA10B0BDE8708300BF16
S31508007E70A4690A0870690A0837B5436804463F2B9F
S31508007E80154605D82F2B13D8032B69D0042B5FD0A2
S31508007E909AB2009201211D20394A1B0C8AF0D2FAA7
S31508007EA0C3222146284603B0BDE8304078F0E7BB38
S31508007EB0A3F130020F2AEBD801A050F822F000BF38
S31508007EC0217F0008917E0008117F0008317F000895
S31508007ED0917E0008917E0008917E0008917E000838
S31508007EE0917E0008917E0008917E0008917E000828
S31508007EF0017F0008917E0008717F0008417F000815
S31508007F000A462846214603B0BDE83040FFF75ABC6A
S31508007F100A462846214603B0BDE83040FFF7A0BC14
S31508007F200A462846214603B0BDE83040FFF7D4BCD0
S31508007F300A462846214603B0BDE83040FFF730BD63
S31508007F400A462846214603B0BDE83040FFF766BD1D
S31508007F500A460146284603B0BDE83040FFF7E2BDB1
S31508007F600A460146284603B0BDE83040FFF772BE10
S31508007F700A462846214603B0BDE83040FFF7B8BE9A
S31508007F80CD690A08412908B556D81C2904D80329F9
S31508007F9077D0042972D008BD1D392429FBD801A23F
S31508007FA052F821F059800008977F0008478000089A
S31508007FB0977F0008977F0008977F0008977F00083B
S31508007FC0977F0008977F0008977F0008977F00082B
S31508007FD053800008958000089B8000088980000867
S31508007FE0B3800008977F0008977F0008977F0008EE
S31508007FF06B8000088F8000085F8000087180000889
S31508008000A7800008AD800008977F0008977F0008C2
S31508008010977F0008977F0008977F0008977F0008DA
S315080080204D800008977F0008A18000087780000827
S3150800803065800008B980000840F206439942AAD133
S3150800804063F0C0FCA7E763F0AEFCA4E763F0ACFC02
S31508008050A1E763F0AAFC9EE763F0A8FC9BE763F040
S31508008060A6FC98E763F0A4FC95E763F0A2FC92E708
S3150800807063F0A0FC8FE763F09EFC8CE763F09CFC42
S3150800808089E763F09AFC86E763F098FC83E763F078
S3150800809096FC80E763F094FC7DE763F092FC7AE750
S315080080A063F091FC77E763F08FFC74E763F08DFC6F
S315080080B071E763F08BFC6EE763F089FC6BE700BF42
S315080080C008B500F02DF8124B12498B4212D3002046
S315080080D0114B12498B4218D3FFF7A6FA186850F8C5
S315080080E02240586840F82240013298688242F5D307
S315080080F00C33EAE70022F8E71C6844F8220001324C
S315080081005C68A242F8D30833E4E70022F8E700BF28
S31508008110D8130C08E4130C08E4130C08E4130C0831
S315080081204FF480414FF0FF3010B5114B114A9A6059
S31508008130D3F8882042F47002C3F888200E4A916664
S315080081400E4901F5005210660D4850660220C3F824
S31508008150D000BFF34F8FBFF36F8F01244FF4403326
S315080081600848C0F88041D36004600B6110BD00BFA9
S3150800817000ED00E000600008009000500080004418
S31508008180F7FF370000E100E0014B1868704700BFB1
S3150800819008120020014B1860704700BF0812002023
S315080081A0084B1B6F03F00703022B04D0032B05D0E3
S315080081B0012B05D0FEE7044B18687047034BFBE715
S315080081C00348704700800050081200200C12002057
S315080081D0002D310108B5FFF7E3FF054B1B6FC3F30D
S315080081E003330133B0FBF3F0024B186008BD00BF40
S315080081F000800050041200200048704700B4C404F0
S31508008200014B1868704700BF0C120020054B186018
S31508008210054B1B6F03F00703032B01D1FFF7DABFEA
S31508008220704700BF0C1200200080005000487047BD
S31508008230002D31014FF0B4439868C0F304400C2870
S3150800824022D8DFE800F00921212121210717192169
S315080082501B1D1F000F4870479B6803F04073B3F15E
S31508008260807F13D0B3F1007F12D00B4A002B08BFD2
S3150800827010467047094870470948704709487047CB
S3150800828009487047094870470020704708487047F2
S3150800829008487047405DC60000093D000024F40008
S315080082A0C0EA210180BA8C010048E801005A62023E
S315080082B080841E0040420F00014B1868704700BFBB
S315080082C010120020BFF34F8F0549064BCA6802F407
S315080082D0E0621343CB60BFF34F8F00BFFDE700BFDB
S315080082E000ED00E00400FA054FF000639A6A02F117
S315080082F07841B1F5C04F03D21168074A914203D0BD
S315080083000023037083607047012202709A6A92689C
S3150800831042609B6A9B69F5E707B0CD5E08B54FF0EA
S315080083200053024A1A60FFF7CDFF00BF02020FF0A2
S3150800833073B54F4B04461A781AB102221A7002B066
S3150800834070BDCDE900220028F9D001261E7063F021
S31508008350E1FC484D484B18605DF0DCF82B785BB9BA
S3150800836000F0B0FB40B945480823454A454900682E
S3150800837056F0C6FB00B92E70434B5A6E62619B6E6F
S31508008380424AA3614FF480439366414B5968E161C1
S3150800839040499960196E2160596E6160D3F8701171
S315080083A0A160196CE160596C21613B49086C18643D
S315080083B0496C5964012151661B6E9C0441D5374AA4
S315080083C0D368D807FCD4364B1A68531C3ED04FF4F2
S315080083D080139340334A13664FF400730426314CD6
S315080083E02666236663F056FB01300DD063F052FB18
S315080083F040F20113984207D04FF4005323664FF416
S3150800840080432366C4F870610823264C68462366B1
S315080084104FF4805323664FF0006323664FF400231E
S3150800842001A9636663F0DDFA009B2366019B636618
S315080084302B78002B83D0124B1A6822665B6863661A
S315080084407DE7194AD368D907FCD4BCE7174B1B78D4
S31508008450002BC1D14FF400720C4B5A6603F5A623C4
S315080084605B68002BB8D14FF480120E4B1A66B3E73F
S31508008470ACA00120AAA00120B40B012018120020EC
S31508008480AC0B0120007108000080005000900050DD
S315080084900080004455CEAC0000C0005400000440E3
S315080084A0141200200090004400000450ABA00120E4
S315080084B070B5224D04462E78012E02D001232B706A
S315080084C070BD0028FCD063F0E5FA01300BD063F0EC
S315080084D0E1FA40F20113984205D0194B194A5E6633
S315080084E0D368DE07FCD42268174B1A6662685A6698
S315080084F0A268C3F87021E2681A6422695A64E269BC
S31508008500D00744BF00229A60104B1A68013207D17F
S315080085100F4A127822B90F494968C90748BF1A6035
S3150800852062690D4B5A66A2699A665CF0FBFF0B4BB3
S31508008530186863F0F5FB0023C1E700BFACA0012073
S3150800854000900040000004400080004414120020FF
S31508008550ABA0012000C0055000800050B40B0120DC
S3150800856070B54FF00064A36A03F17842B2F5C04FC4
S3150800857021D21A68124B9A421DD1124E337813F043
S31508008580FD0F1BD11048FFF7D3FE01254FF48033AA
S315080085900E4A0F49C2F88051CB6015600D4A136127
S315080085A0A36ADB69984704460748FFF781FF04B9C1
S315080085B03570204670BD4FF48174FAE70024F8E759
S315080085C007B0CD5EABA001208C0B012000E100E0D6
S315080085D000A000440090004413B51F4B1B7803B954
S315080085E0FEE700231D4CCDE900336A4608231C49E3
S315080085F0206856F085FAF0B91A4AD2F84031D2F80E
S3150800860040211F2B4FF0010310D9203A9340019ABD
S315080086101343019308236A461149206856F026FA3F
S315080086204FF00053104A1A60FFF74CFE9340009A29
S3150800863013430093EEE70D4B9842F1D1094AD2F85D
S315080086404031D2F840211F2B4FF0010302D9203ABE
S315080086509340DEE79340ECE7ACA001201812002017
S3150800866000710800008000440B020FF00BE000F0D8
S3150800867038B54FF00065AB6A044603F17842B2F5A7
S31508008680C04F12D21B6B03F17843B3F5C04F0CD21F
S315080086900648FFF74DFEAB6A20461B6B5B6898479A
S315080086A0BDE838400148FFF703BF38BDB80B0120C5
S315080086B013B54FF000640190A36A03F17842B2F54E
S315080086C0C04F15D21B6B03F17843B3F5C04F0FD2D9
S315080086D00948FFF72DFEA36A01211B6B01A89B69B8
S315080086E0984704460448FFF7E3FE204602B010BD4B
S315080086F04FF48174F9E700BFB80B012037B54FF086
S315080087000065CDE90021AB6A044603F17840B0F56F
S31508008710C04F12D21B6B83B10948FFF709FEDDE98A
S315080087200021AB6A20461B6B5B6A984704460448DF
S31508008730FFF7BEFE204603B030BD4FF40174F9E7DB
S31508008740B80B012037B54FF000650191AB6A0446B6
S3150800875003F17842B2F5C04F15D21B6B03F178438B
S31508008760B3F5C04F0FD20948FFF7E2FDAB6A2046C2
S315080087701B6B01999B6A984704460448FFF798FEC5
S31508008780204603B030BD4FF40174F9E7B80B012059
S3150800879037B54FF00065CDE90021AB6A044603F111
S315080087A07840B0F5C04F16D21B6B03F17843B3F58A
S315080087B0C04F10D20948FFF7BBFDDDE90021AB6ABF
S315080087C020461B6B9B6B984704460448FFF770FED0
S315080087D0204603B030BD40F20114F9E7B80B01207A
S315080087E037B54FF000650191AB6A044603F178424C
S315080087F0B2F5C04F15D21B6B03F17843B3F5C04FE2
S315080088000FD20948FFF794FDAB6A20461B6B019906
S31508008810DB6B984704460448FFF74AFE204603B038
S3150800882030BD40F20114F9E7B80B012010B40A680C
S315080088301378022B11D014203023147913FB040368
S3150800884007481B585079C340DB4303F001031370F4
S3150800885008465DF8044B44F01DB85DF8044B7047B4
S3150800886030C0035037B50468012105463A2000F0A8
S315080088705DFC002301226179207901F0ABFB14220B
S315080088803023217913FB01230E4A9B586279D34082
S31508008890DB4303F001032370A379022B0ED100F00A
S315080088A097F82A460849607900F0BCF80123024681
S315080088B061792079CDE9003301F034FB002003B05B
S315080088C030BD00BF30C003502D88000802681378F9
S315080088D0022B24D014213023107913FB00131049DE
S315080088E05B585179CB40917903F00103012912D1E4
S315080088F0508843EA40034FF6E07063F03F039BB2AB
S31508008900834202D11170538070474FF6DF718B4254
S31508008910F9D10021F6E711B983F001031370704706
S3150800892030C003502DE9F843174B1F6D5B6D1F4090
S3150800893000D5FEE701260025144CDFF85480DFF841
S315080089405490374217D0C8F8506023689BB1A16885
S31508008950284601316268A1609847637B012B0AD1DA
S3150800896048B909EB45131A7B60F341021A731A7F5B
S3150800897060F341021A770135082D4FEA460604F1DD
S315080089801004DED1BDE8F88300000450D80B01209E
S3150800899000200450580C012070B5044601250B4EE2
S315080089A004B970BD94FAA4F0B0FA80F005FA00F3A1
S315080089B006EB001224EA03045368002BF0D0117B5F
S315080089C011B191689847EBE79847E9E7580D0120F8
S315080089D008B5192001F0FAF828B14FF00072074BD4
S315080089E0C3F880211A601A2001F0F0F828B14FF078
S315080089F08062024BC3F880211A6008BD00E100E0DE
S31508008A0038B505460C4663F085F90022044B03EB9E
S31508008A1005135C601A73BDE8384063F081B900BF7E
S31508008A20580D0120F8B505460F46164663F072F94B
S31508008A30104B05F0FC02D3F824140023EC1804F0BC
S31508008A400304144321FA04FC1CF0010F07D0013378
S31508008A50042BF3D1FF2463F063F92046F8BDFF2CFD
S31508008A60F9D00122044B03EB0413C3E901761A7308
S31508008A70F1E700BF00C00350580D0120074BD3F89B
S31508008A802404D3F8202403F50053104000F0553091
S31508008A9020F05020C3F82004FFF77EBF00C0035023
S31508008AA0074BD3F82404D3F8202403F500531040C9
S31508008AB000F0AA3020F0A020C3F82004FFF76CBF0E
S31508008AC000C00350024B1968024B186855F0F8BEEF
S31508008AD01C1200201812002037B5920004460D46D5
S31508008AE001929DF0F5FD431C0BD060B9294620463E
S31508008AF0019A9DF08DFB0028044808BF002003B0AA
S31508008B0030BD0348FBE70348F9E700BF10E000F073
S31508008B1021E000F024E000F010B504469DF0D0FDF9
S31508008B20431C10D088B901F031FB234620F003001E
S31508008B302044984201D1002010BD53F8042B01327D
S31508008B40F7D00348F8E70348F6E70348F4E700BF19
S31508008B500EE000F021E000F024E000F0044BD3F82A
S31508008B608420D206FBD4D3F88400C0F38110704762
S31508008B70004000502E4B98424AD022D82D4B98429E
S31508008B8040D014D82C4B984239D00AD82B4B98424F
S31508008B9032D02B4B98422FD02A4B98422CD000200B
S31508008BA07047294B9842FAD1284B186F7047284BC3
S31508008BB098422AD0274B9842F1D1244BD3F880000B
S31508008BC07047254B98422BD009D8244B984223D07E
S31508008BD0234B9842E3D11D4BD3F88C007047214BA9
S31508008BE0984221D003F5740303F510539842D6D161
S31508008BF0164BD3F898007047144B986D7047134B73
S31508008C00586E7047114B586F7047104B986F7047E6
S31508008C100E4BD3F8840070470C4BD3F88800704786
S31508008C200A4BD3F890007047084BD3F89400704766
S31508008C300048E8010024F400C0CF6A0080841E00C2
S31508008C4000093D0040420F00405DC6000080E00F6D
S31508008C50C0EA210180BA8C01007E560380D5430202
S31508008C60006CDC020090D00338B5104B0546D3F8EB
S31508008C7080300C4603F00303022B0BD0032B0DD0D8
S31508008C80012B0FD1FFF78CFA0E2305B1286004B12A
S31508008C90236038BDFFF7CEFA0723F6E7FFF774FA25
S31508008CA00623F2E700231846EFE700BF00800050CE
S31508008CB038B5184B0546D3F820010C4600F00700D6
S31508008CC0062805D8DFE800F0230B0F17131B1F0033
S31508008CD00023184605B1286004B1236038BDFFF7A4
S31508008CE053FA0523F6E7FFF78BFA0323F2E7FFF7B4
S31508008CF0A1FA0723EEE7FFF799FA0223EAE7FFF757
S31508008D0043FA0623E6E7FFF77BFA0423E2E70123A3
S31508008D10E0E700BF0080005038B5174B0546D3F88A
S31508008D2028310C4603F00703013B052B20D8DFE862
S31508008D3003F003131B0F0B17FFF726FA052305B1DC
S31508008D40286004B1236038BDFFF71EFA0623F6E74C
S31508008D50FFF770FA0723F2E7FFF752FA0323EEE765
S31508008D60FFF74EFA0423EAE7FFF760FA0223E6E77D
S31508008D7000231846E3E700BF0080005073B50D4690
S31508008D800021114B0191D3F88041064604F00304F3
S31508008D90022C13D0032C0CD0012C13D101A8FFF7F9
S31508008DA087FF10240EB1019B336005B12C6002B019
S31508008DB070BDFFF73FFA07240190F3E7FFF736FA8D
S31508008DC00190EFE70C46EDE700800050002337B529
S31508008DD00193164B0546D3F820320C4603F00703D9
S31508008DE0042B04D8DFE803F0200B11161B00002320
S31508008DF00DB1019A2A6004B1236003B030BD002189
S31508008E0001A8FFF789FF1223F2E7FFF713FA0723F2
S31508008E100190EDE762F0DFFD0A230190E8E7FFF72E
S31508008E204BFA09230190E3E70123E1E700800050AC
S31508008E3038B5104B0546D3F840310C4603F003030A
S31508008E40022B0BD0032B0DD0012B0FD162F0C3FDE3
S31508008E500A2305B1286004B1236038BDFFF72CFA50
S31508008E600923F6E762F0BAFD0C23F2E70123002096
S31508008E70EFE700BF00800050002337B50193164B7B
S31508008E800546D3F860320C4603F00703013B032B73
S31508008E901FD8DFE803F0020E1914002101A8FFF716
S31508008EA007FF10230DB1019A2A6004B1236003B0AD
S31508008EB030BD002101A8FFF7BBFF1123F2E7FFF73A
S31508008EC0B9F907230190EDE7FFF7B0F902230190FE
S31508008ED0E8E70023E6E700BF00800050002337B527
S31508008EE00193164B0546D3F894320C4603F0070354
S31508008EF0013B032B1FD8DFE803F0020E19140021EB
S31508008F0001A8FFF7D5FE10230DB1019A2A6004B116
S31508008F10236003B030BD002101A8FFF789FF1123A4
S31508008F20F2E7FFF787F907230190EDE7FFF77EF9E8
S31508008F3002230190E8E70023E6E700BF008000501F
S31508008F4038B5144B0546D3F800020C4600F0070066
S31508008F50042804D8DFE800F01B0A0E1216000023C6
S31508008F60184605B1286004B1236038BD62F033FDA8
S31508008F700A23F6E7FFF7A0F90923F2E762F02EFDC8
S31508008F800C23EEE7FFF726F90F23800AE9E701230A
S31508008F90E7E700BF0080005038B5144B0546D3F804
S31508008FA008020C4600F00700042804D8DFE800F0A1
S31508008FB01B0A0E1216000023184605B1286004B1D4
S31508008FC0236038BD62F007FD0A23F6E7FFF774F958
S31508008FD00923F2E762F002FD0C23EEE7FFF7FAF841
S31508008FE00F23800AE9E70123E7E700BF0080005066
S31508008FF038B5104B0546D3F840320C4603F0030348
S31508009000022B0BD0032B0DD0012B0FD162F0E3FC02
S315080090100A2305B1286004B1236038BDFFF74CF96F
S315080090200923F6E762F0DAFC0C23F2E701230020B5
S31508009030EFE700BF0080005038B5104B0546D3F85F
S3150800904060310C4603F00303022B0BD0032B0DD023
S31508009050012B0FD162F0BFFC0A2305B1286004B1C9
S31508009060236038BDFFF728F90923F6E762F0B6FC56
S315080090700C23F2E701230020EFE700BF0080005031
S31508009080B0F5207F1FD009D8B0F5007F15D003D8DA
S3150800909068B1B0F5C07F0AD000200CE0B0F5607F5B
S315080090A0FAD10B4BD3F88000C0F3011003E0084B4C
S315080090B0186FC0F3033001307047054BD3F89000A2
S315080090C0C0F30460F7E7024B186FC0F38020F2E79D
S315080090D00080005002464FF48030104B10B5986659
S315080090E00020FFF7CDFF504341F671320C4BDC6987
S315080090F0DA635A6804F4803422F4401259B90949EB
S3150800910088428CBF4FF480100020104358600CB181
S315080091100022DA6310BD0449F2E700BF0090005050
S3150800912000000350005A6202002D3101430905D0A0
S31508009130012B0DD0022B094B18BF002300F01F008E
S3150800914041B103F58053012202FA00F01860704716
S31508009150034BF3E703F50053F5E700BF68800050BB
S31508009160648000501FB5002180280446CDE900110F
S3150800917000F0998029D8002800F09980A0F12004F1
S315080091803D2C35D83D2C33D8DFE804F091999199D8
S31508009190A8A8A8A8A899B23CC8603C99999932325F
S315080091A032323232323299999968D299323232321F
S315080091B0323232323232323232A8919191CD3C3C3F
S315080091C0D7774DAD323232323288B0F5B06F00F013
S315080091D08F802DD8B0F5207F71D00CD8B0F5C07F20
S315080091E065D0B0F5007F65D0B0F5807F00F085804A
S315080091F0009804B010BDB0F5607F6AD00DD8B0F500
S31508009200407FF5D1FEF7E6FF02464FF42070FFF7E0
S3150800921037FFB2FBF0F0400847E0B0F5806F5DD04D
S31508009220B0F5A06FE4D100216846FFF7CFFDDFE770
S31508009230B0F5106F77D016D8B0F5E06F78D00AD8A9
S31508009240B0F5C06F6AD0B0F5D06FD1D100216846AD
S31508009250FFF776FECCE7B0F5F06FC9D10021684676
S31508009260FFF7EAFEC4E7B0F5406F3CD013D8B0F577
S31508009270206F62D0B0F5286FBAD10021314B039127
S31508009280D3F8703203F00303012B02D103A8FFF7CA
S31508009290CFFD039B3BE0B0F5486FA9D10021684696
S315080092A0FFF71CFEA4E7FEF77BFF0090A0E7FEF79A
S315080092B091FFFAE7FEF774FF0246204604E0FEF740
S315080092C089FF02464FF42070FFF7DAFEB2FBF0F092
S315080092D0EBE701A8FFF7C8FC019AEEE7002168460C
S315080092E0FFF7E6FC84E700216846FFF715FD7FE7F0
S315080092F000216846FFF742FD7AE74FF0E023029126
S315080093001B695B0705D5FEF765FF0290029B009374
S315080093106EE703A902A8FFF78BFDF7E70021684669
S31508009320FFF786FD64E700216846FFF735FE5FE72D
S3150800933000216846FFF75CFE5AE700216846FFF7FA
S315080093409BFD55E70080005008B58020FFF70AFF0F
S31508009350034B98429EBF4FF48032024B1A6708BDF2
S31508009360005A620200A000501FB50023B0F5807FA6
S31508009370019300F0C38064D85D2855D84C2807D8D7
S315080093802D2847D823282BD8019805B05DF804FB6B
S315080093904D381028F8D801A353F820F0F3940008A4
S315080093A0899300088993000889930008A594000802
S315080093B0899300088993000879950008C3940008E2
S315080093C0699400086F950008899300088993000836
S315080093D089930008899300088993000883950008F3
S315080093E024380928D0D801A353F820F0F3940008AC
S315080093F0F3940008F3940008F3940008F394000823
S3150800940089930008E9940008899300088594000860
S31508009410299500083D2800F082803E28B4D1002016
S3150800942001A9FFF7E5FDAFE78028ADD15A4B1B6FC1
S3150800943003F00703013B032BA6D8DFE803F05350DC
S31508009440878FB0F5F06F6AD021D8B0F5B06F4BD0E2
S315080094500FD8B0F5607F00F0858095D3B0F5806FA2
S3150800946047D0B0F5A06F8FD1002001A9FFF7AEFC59
S315080094708AE7B0F5D06F57D0B0F5E06FCFD0B0F52A
S31508009480C06F81D1002001A9FFF7D2FC7CE7B0F5B7
S31508009490206F71D00BD8B0F5086F4AD0B0F5106FB1
S315080094A07FF472AF002001A9FFF776FD6CE7B0F5EF
S315080094B0406F5CD0B0F5486F63D0B0F5286F7FF485
S315080094C063AF0021344B0391D3F8703203F00303E2
S315080094D0012B5BD0022B14BF0B46152300E0052396
S315080094E0019351E70223FBE7002001A9FFF746FC99
S315080094F04AE7002001A9FFF7DBFB45E702934FF097
S31508009500E0231B695B0705D5FEF764FE0D2303936D
S31508009510039BE5E703A902A8FFF78AFCF8E7002002
S3150800952001A9FFF789FD2FE7002001A9FFF708FD2C
S315080095302AE7194BD3F8003103F00303022B07D0AF
S31508009540032B09D0012B0BD1FEF75AFE0323C7E7DD
S31508009550FEF7B2FE0923C3E762F03BFA0823BFE72A
S315080095600123BDE7184601A9FFF77EFB0CE700209B
S3150800957001A9FFF7D1FB07E7002001A9FFF77CFC4B
S3150800958002E7002001A9FFF7A9FCFDE603A8FFF7FB
S315080095904FFC1123A4E700BF0080005008B5FFF771
S315080095A0E3FE092811D00A38012811D84FF48002A1
S315080095B0094B4FF6FF705A6603F5D8335B6A13F00A
S315080095C0010F18BF4FF4FA7008BD044B1888FBE763
S315080095D04FF6FF70F8E700BF00900050E217002032
S315080095E038B504468020FFF7BFFE032800F08A80BE
S315080095F04FF48012544B4FF0A0615A6645F60E039D
S31508009600524AC2F88030524B99624FF4803103F5C2
S3150800961080539962936DD903FCD4916D11F0804102
S31508009620FBD1D4E900031B0543EA0063E07B03434F
S31508009630207B43EA0043607B43EA0033A07B43EA8E
S31508009640801313619069D4E904531B0643EA8563C2
S3150800965000F000400343A07E0343207E43EA004314
S31508009660607E43EA00239361136AE269E57E002A75
S315080096700CBF0020082023F00F03134343EA850399
S31508009680324A03431362E369324D002B3BD194F807
S315080096902430916A94F82000DB000D4043EA401319
S315080096A094F821102B4343EA011343F48033936261
S315080096B0294B916D33EA0101FBD14FF080712448A3
S315080096C081621369A56823F4700343EA055313619D
S315080096D04FF00043836194F822300BB91F4B99620F
S315080096E094F823303BB94FF480321C4B9A62174AE0
S315080096F0936D5B00FCD494F825301BB1134B184AC4
S31508009700C3F8802038BD022B08D111611548916134
S315080097104FF408524FF47F4162F0BCFA0B4994F8B3
S3150800972022308A6A94F820001B06154043EA401343
S3150800973094F824202B4343EAC20394F8232043EAEF
S3150800974002438B62D7E700BF009000500040005AE2
S315080097500050005AC7FFFEFE030001000060005AD1
S31508009760F1A7FFFF3440005A37B5194CA26AA36D1A
S3150800977013F4803F18BF4FF48031164B18BF996217
S315080097804FF080719962144BA56993F9003025F45E
S315080097907F050344000280B225F47F4583F308035E
S315080097A0284340EA0340A0610C48019262F072FA2D
S315080097B0A36D019A13F4803F07D04FF48031074810
S315080097C003B0BDE8304062F065BA03B030BD00BFF3
S315080097D00040005A0050005AF61700202840005A48
S315080097E0014B93F900007047F61700204FF48030BC
S315080097F00E490F4B8A6A9862886D00F003000328A9
S31508009800FAD14FF080709862896D01211965074B6E
S31508009810996D8907FCD4996D8807FCD5996D8907D8
S31508009820FCD50449044862F035BA00BF0040005A26
S315080098300050005A000001012840005A014B1880C8
S31508009840704700BFE01700204FF4800208B5184B98
S315080098505A660223174A5360936813F48033FBD180
S31508009860012822D1FEF7CCFC134B984215D003F5FC
S31508009870122303F5F863984213D0104B00EB8002CD
S31508009880400AB3FBF0F0520A0A4BDA620122186367
S315080098905A620022074B5A6008BD45F67A10084AF4
S315080098A0F2E745F61A00074AEEE75362F1E700BF0A
S315080098B0009000500040025000F049026466666657
S315080098C0D8B80500BBCF0500B0F5207F10B50C460B
S315080098D057D008D8B0F5007F48D003D830B3B0F5D4
S315080098E0C07F23D010BDB0F5607FFBD129492A4837
S315080098F0D1F8FC2012F080721EBFD1F8FC3023F09C
S315080099008073C1F8FC30D0F88030611E23F0300433
S3150800991044EA0114C0F88040002AE3D01D4AD2F870
S31508009920FC3043F08073C2F8FC30DBE762F0C3F921
S3150800993062F0CFF94FF48031184B174A1967136F45
S31508009940611E23F4704444EA01341467FEF742FCAE
S315080099500446FFF703F9C0F10201204662F0B3F9A5
S3150800996000F02EF8BDE81040FFF7EEBC0A4A0139B0
S31508009970D2F8903023F0F85444EA0164C2F89040D3
S31508009980B0E7054B013C196F21F4806141EA842454
S315080099901C67A7E700ED00E000800050009000502B
S315080099A008B50121022000F069F962F084F962F035
S315080099B090F94FF48032014B1A6708BD00900050A9
S315080099C008B54FF4C070FFF7CDFBBDE80840044961
S315080099D088428CBF022101214FF42070FFF774BF23
S315080099E080F0FA024FF4C02201212DE9F041054624
S315080099F06A4B5A666A4A03F598335C6851605E6832
S31508009A0016F00206FBD1FFF7A9F80128286805D148
S31508009A10644B984202D90020BDE8F081624A0023CF
S31508009A2011461768B84202D35768B84205D90133B8
S31508009A30192B02F11002F4D1002301EB0313D3E929
S31508009A40028028B1FFF796F800F07F0048EA000880
S31508009A508020FFF789FC05285FD162F02CF962F0B7
S31508009A6038F94FF480324D4B4FF4C0701A67FFF740
S31508009A7007FB012806464CD102214FF4C070FFF7B8
S31508009A8023FF01274948C16811F00601FBD1D0F828
S31508009A9008C0C0F80880836808F4F81203F4F813BD
S31508009AA09A424ED1AA88EB8843EA0243404AD360D9
S31508009AB0AB68032B33D1A2F5A032D2F8003123F0DC
S31508009AC0030343F00103C2F800312B7D287B002BEA
S31508009AD06B7D14BF04220022002B18BF40212B697E
S31508009AE04FF0000843EA40031343314A0B4393609F
S31508009AF02868FEF74FFB0722294B1A610122A3F5B6
S31508009B0080535A60A3F580531C6914F00704FBD0F0
S31508009B101EE0022801D10421AFE70027B2E7092B8E
S31508009B2007D1244AD2F8003123F0030343F0020395
S31508009B30C9E7082BC9D11F4AD2F8003143F00303FD
S31508009B40C1E714F001044FF00108C0F808C0D2D1EB
S31508009B508020FFF709FC052817D127B131464FF4B5
S31508009B60C070FFF7B1FEFEF735FB0546FEF70CFBA6
S31508009B70FEF70AFBFEF7F2FFC0F10201284662F083
S31508009B80A2F8FFF71DFFFFF7DFFBB8F1000F7FF420
S31508009B9042AF631E584258413EE700BF009000504E
S31508009BA000E00150005A6202606A0A08000001508B
S31508009BB000C0015000800050034B5868C0F30800ED
S31508009BC0003818BF0120704700ED00E0054B420938
S31508009BD053F8223000F01F0023FA00F0C04300F0CB
S31508009BE00100704700E100E0024A536B0342FCD1D2
S31508009BF0704700BF00400950044A4178536F23F468
S31508009C00407343EA01235367704700BF0040005082
S31508009C1010B50A4A0446136943F00403136105F0B4
S31508009C209FFD62F080F830BF62F07EF805F0ACFD6B
S31508009C301CB9BDE81040FEF7CDBA10BD00ED00E036
S31508009C4010B5084A0446136943F00403136105F086
S31508009C5087FD30BF05F098FD1CB9BDE81040FEF73A
S31508009C60B9BA10BD00ED00E0034A0179D36E23F0BE
S31508009C7030030B43D366704700400050F8B50446DE
S31508009C801C4BD3F88420D106FBD4D3F88430C3F315
S31508009C9081139C422CD0FEF783FA012C064602D18A
S31508009CA0214662F010F862F02EF84FF00072124B5F
S31508009CB007465A66204662F03AF84FF480630D4D1F
S31508009CC0621E93402B676B6E9A0103D4D5F88430D5
S31508009CD09B060AD5384662F01AF8022C08D1304697
S31508009CE0BDE8F840002161F0EEBFD5F88430EAE718
S31508009CF0F8BD00BF004000500060005007B518B915
S31508009D000191FEF74DFA0199064B1B7843B1064BB4
S31508009D10984205D8012003B05DF804EBFFF7AEBF03
S31508009D200220F8E7ADA00120005A62020278034B30
S31508009D30012100201A70FFF7E1BF00BFADA0012086
S31508009D404FF0004238B5284B28495A664AF6CD33B3
S31508009D504D6C044605F001050B6460BB0120FFF756
S31508009D6043FF4B68DA0708D4002415B11F4B204A75
S31508009D701A649BF038F8204638BD1E4B58602046BA
S31508009D801D4C0B6BDB0706D4A04202D14FF0FF3403
S31508009D90EBE70130F5E7A0424FF0FF3418BF002487
S31508009DA0E3E701320B6B13F0080307D08242F8D1C0
S31508009DB06FF00104D9E700220F48F3E78242F7D093
S31508009DC020210C4A91620121A2F58052516007496F
S31508009DD0094A886A800603D49342E9D00133F8E732
S31508009DE09342C1D1E4E700BF0090005000400950FB
S31508009DF03254FFFF0060095040420F004FF0004206
S31508009E0038B5164B01465A664AF6CD33144C154AF0
S31508009E10656C236443780B205B0043F00103D3632E
S31508009E20FFF7E2FE63688A7823F4F87343EA0213BD
S31508009E306360CA784B7943EA0223A3600A798B796F
S31508009E4043EA022323610878FFF77AFFEB0744BF4A
S31508009E50054B23649AF0C7FF012038BD00900050D7
S31508009E6000400950004000503254FFFF4FF00042B6
S31508009E7070B5124B04465D6E03F580535A664AF672
S31508009E80CD330F4980204E6C0B64FFF7ADFE0B6A8D
S31508009E9023F00F030F2C94BF234343F00F030B62E9
S31508009EA0F30744BF074B0B64002DA2BF4FF00042D7
S31508009EB0054B5A669AF097FF70BD00BF00800050A8
S31508009EC0004009503254FFFF00A000504FF00042F6
S31508009ED070B5104B04465D6E03F580535A664AF614
S31508009EE0CD330D4980204E6C0B64FFF77DFE0B6A5F
S31508009EF023F4F85343EA04230B62F30744BF074BE2
S31508009F000B64002DA2BF4FF00042054B5A669AF02B
S31508009F106AFF70BD00800050004009503254FFFFB0
S31508009F2000A00050072AF7B501F0030614461F469D
S31508009F304FF003012CD89500A94000FA05F21C48F9
S31508009F40019161F0F5FE01991A4806FA05F261F0E9
S31508009F50EFFE194B19499DF82000002F08BF194636
S31508009F60012303FA04F40C60154B1649002808BFB0
S31508009F700B461C60144B1031C3F820449DF824008E
S31508009F80A3F6DC33002808BF0B461C6003B0F0BDFF
S31508009F90A2F10805AD00A94000FA05F20B480191A7
S31508009FA061F0C6FE01990A4806FA05F2CFE700BF36
S31508009FB000C4035008C4035010E4035010D40350DF
S31508009FC014D4035014E4035000E0035004C40350AF
S31508009FD00CC403502DE9F04105460F461E4690462F
S31508009FE04AB101233022194C8B4002FB00443EB390
S31508009FF004F5825423600F21072F05EB450388BF1C
S3150800A000A7F108044FEA0313114895BFBC00A40042
S3150800A01004330C3308FA04F2A140184461F088FEB0
S3150800A020B8F1000F0AD101213020084A01FA07F7D2
S3150800A03000FB05223EB102F582521760BDE8F081A9
S3150800A04004F50154D6E702F50152F6E700C00350BD
S3150800A05030C003504FF48032054B9A6641F6713290
S3150800A06003F51C33DA63012203F50053DA607047FF
S3150800A0700090005041F671320121064BDA6303F570
S3150800A0800052D1600022DA634FF48032A3F5183308
S3150800A0909A66704700000350013831289ABF024B70
S3150800A0A0185C0020704700BFF06B0A08021E30B526
S3150800A0B04FF000000CBF1025042547F60774084921
S3150800A0C052B9831D51F82330234023B1013085420C
S3150800A0D0F6D14FF0FF3030BD00F11603F2E700BFAE
S3150800A0E00080035010B5C2F30623044602F00702A7
S3150800A0F041B942EA03220B4B42F44022063443F8A4
S3150800A100242010BD1846114661F023FE0146184664
S3150800A110FFF7C2FF034B41EA0020163443F8240038
S3150800A120EFE700BF00800350014BD3F89400704757
S3150800A130004000504FF48032064B5A6603F5E6237A
S3150800A1409B69C3F38512827003F03F021B0B4270B2
S3150800A150037070470090005040F6B732064B5B68B4
S3150800A1609BB293429FBF4FF47A72B3FBF2F3034A52
S3150800A170D05C88BF002070470080E00F226C0A0878
S3150800A180014B986CD96C70470080E00F0120034B97
S3150800A1909B680A3303F01F03984070470080E00F5E
S3150800A1A0054B9A689107FCD45A689207F9D4DA697C
S3150800A1B0002AF6D1704700BF00800A5008B5FFF79D
S3150800A1C0EFFF0122024B03F580514A601A6108BD70
S3150800A1D000800A50074B5A68012A0AD15A68D207E2
S3150800A1E002D5DA69002AF9D102221A610122024B44
S3150800A1F05A60704700800A5000A00A5010B5064CF5
S3150800A200FFF7CEFF6368012B03D1FFF7E3FFFFF7E4
S3150800A210C7FF0378E36010BD00800A50E8B94A68B2
S3150800A2200B7812B1127843EAC2034A78002A14BF9F
S3150800A2300222002213438A6812B1127843EA821373
S3150800A2408A78002A14BF042200221343CA6812B16E
S3150800A250127843EA4223014A9364704700800A5001
S3150800A26008B9014B5964704700900A5008B9014B68
S3150800A2705964704700A00A5008B9014B1964704721
S3150800A28000A00A5010B9024B186C7047002070479E
S3150800A29000800A5048B911B1012903D07047044B10
S3150800A2A0D86C7047024B186D70470020704700BF86
S3150800A2B000800A5040B911B1012903D07047034BF9
S3150800A2C0DA647047014B1A65704700BF00800A5070
S3150800A2D038B50446054D9AF004FE0FCC0FC594E830
S3150800A2E0030085E80300002038BD00BF481601209A
S3150800A2F047F6FF739A42F0B566D0012966D8344D01
S3150800A300CF0015F8313005EBC100012B847813D145
S3150800A3100025C3781B1B9D4202D3E018C0B2F0BDCE
S3150800A320591B4668A3EB510136F911609642D4BF12
S3150800A3300D4601F1FF33EEE740680028EFD0B0F98B
S3150800A3400030934204DBB0F902309342B8BF13469B
S3150800A35082883D44FF2A19BFC8214FF0280CB0F95E
S3150800A3600610B0F908C0A1EB03020CBF01260026AF
S3150800A37092FBFCF26D78324412B2954201DD002A56
S3150800A38001DA6A1E12B24FF47A7700EBC206F18838
S3150800A390B668013213FB016112B221EAE1715C3140
S3150800A3A09542B1FBF7F104DD00EBC206B6888E4292
S3150800A3B0EBD200EBC20232F8040C884228BF0846EA
S3150800A3C0A04238BF2046A9E7FF20A8E70020A6E755
S3150800A3D0481601200129F0B553D82B4800EBC104D3
S3150800A3E010F83110636801290FD1E078A4789042FB
S3150800A3F094BFC4EB0001C4EB0201001BCAB282423F
S3150800A400C8BF002233F91200F0BD002B39D0A1785D
S3150800A410914202D3B3F90200F6E7E178B3F90000F6
S3150800A4209142F1D999886478A1F1FF06013C7142FD
S3150800A43003F10405E4B2714103F10C071FFA82FC2B
S3150800A440CEB2B44216D805EBC1014FF47A756A4309
S3150800A450B1F902404968521A04EBD47102EB610261
S3150800A46092FBF4F29042CFDBB3F902009042CBDCC8
S3150800A47010B2C9E737F831E04E1CE645E3D331465A
S3150800A480DEE70248C0E700BF481601200080FFFF4C
S3150800A4900148FFF71DBF00BF84B00B08004870478E
S3150800A4A0E41700207FB51422002101A89BF0E7FEDF
S3150800A4B0044B01A94FF0FF3002939AF008FE07B04B
S3150800A4C05DF804FB006A18002DE9F84307F0B0FCB4
S3150800A4D00128074605D907F0DFFC061E02DA012423
S3150800A4E01EE00026DFF8808098F8003003F0FF04AD
S3150800A4F093BB4FF05009194D05F110032846C5E9DD
S3150800A5000044AB60C5F80C9007F03AFE286650B9CF
S3150800A5100124012F04D9304607F0E0FC0028DEDBD1
S3150800A5202046BDE8F8830E4D214605F110032A465C
S3150800A5300120C5E90044C5E9023907F0E1FE2866AD
S3150800A5400028E5D03022074B83F8412302229A607F
S3150800A550012388F80030DCE70024DAE7C416012076
S3150800A5606016012000E100E0AEA0012008B507F062
S3150800A5705FFC02280FD1094B4FF0FF31186E07F028
S3150800A58041FE002814BF0120002003D14FF4806249
S3150800A590034B9A6608BD0020F8E700BFC4160120E1
S3150800A5A0009000504FF4806208B5084B9A6607F091
S3150800A5B03FFC022807D1064B186E07F053FE0038F9
S3150800A5C018BF012008BD0020F9E700BF00A0005011
S3150800A5D0C416012008B54FF098435B6CD90208D51C
S3150800A5E007F026FC0238012803D8094B186E07F035
S3150800A5F013FF4FF098435A6CD202FCD55B6D054A9F
S3150800A60003F4702313600222034BC3F8882108BDA4
S3150800A610601601203C12002000E100E038B505462E
S3150800A62000283AD0FFF7A2FF0446002836D128466C
S3150800A63061F0D0FB95F8203043B94FF098435A6C37
S3150800A640D202FCD55D6D05F470251BE04FF09842EB
S3150800A650936D43F00203936507F0EAFB02281AD1CB
S3150800A660104B4FF0FF31186E07F0A0FE4FF09842DE
S3150800A670936D23F00203936590B94FF4A0220A4B19
S3150800A6801D681A60FFF78EFF04463DB12846BDE8EF
S3150800A690384061F0CABB2046E8E72124204638BD89
S3150800A6A00124FBE7601601203C1200202DE9F04149
S3150800A6B08CB08846DDE912761D460446002847D048
S3150800A6C0002945D0002F43D0002E41D013F00F03A8
S3150800A6D03ED120482049A360002A18BF0146E361FD
S3150800A6E0C4E90013404609A961F00FFD68BB20467E
S3150800A6F0099961F066FB2946204661F062FB6946C6
S3150800A700404600F079FF00BB6946204661F045FBEC
S3150800A710404603A961F0C7FDB8B9204603A961F010
S3150800A7203CFB06970127204645F0005506A90797E2
S3150800A730089561F032FB204609A909960A970B95F8
S3150800A74061F035FB2046FFF769FF0CB0BDE8F081E4
S3150800A7502120FAE700010104000100042DE9F04771
S3150800A76092B08846DDE91A571C460646DDF8709011
S3150800A770002864D0002962D0002F60D0B9F1000FFC
S3150800A7805DD0002D5BD013F00F0358D12D482E490C
S3150800A790B360002A18BF0146F361C6E900134046B4
S3150800A7A00FA961F0B2FC002846D130460F9961F036
S3150800A7B008FB2146304661F004FB6946404600F036
S3150800A7C01BFF002838D16946304661F0E6FA404654
S3150800A7D003A961F068FD78BB4FF001083046DFF841
S3150800A7E06CA003A961F0D9FA44F00054304606A9D2
S3150800A7F00695CDF81C80CDF820A00997CDF82880BD
S3150800A8000B9461F0CAFA304609A961F0C6FA3046D7
S3150800A8100CA9CDF83090CDF834800E940F95CDF86C
S3150800A8204080CDF844A061F0C2FA30460FA961F025
S3150800A830BEFA3046FFF7F2FE12B0BDE8F0872120D7
S3150800A840FAE700BF03020104030200041000002017
S3150800A8502DE9F04F97B0894690461F460546DDF824
S3150800A86080A0002800F0BD80002900F0BA803AB127
S3150800A870229B002B00F0B580239B002B00F0B180B3
S3150800A880BAF1000F00F0AD80219B002B00F0A980E3
S3150800A89077B13C680026229B43440293464509D378
S3150800A8A0002F00F0A08000203C6017B0BDE8F08FB4
S3150800A8B03C46EFE75CB1229B219A9B5D125D013411
S3150800A8C05340239A04F00F0493550136E6E7A8EBA4
S3150800A8D0060BBBF10F0F58D9444B4846C5E900345F
S3150800A8E0AC60EC6113A961F010FC0028DDD12846A4
S3150800A8F013992BF00F0B61F064FA5946284661F05C
S3150800A90060FA484604A900F077FE0028CDD128460B
S3150800A91004A961F042FA484607A961F0C4FC002878
S3150800A920C3D1284607A961F038FA01232299304A8B
S3150800A930CDF828A00B930C928A190D9228464BF055
S3150800A94000520AA90E9303920F9261F026FA28463E
S3150800A9500DA961F022FA239B039A991901231091F4
S3150800A96011931292224A284610A9CDF84CA01493A6
S3150800A970159261F01CFA284613A961F018FA2846C0
S3150800A980FFF74CFE5E4400288FD1229B03EB060B93
S3150800A990239B1E44029B5B4501D146467EE7ACB924
S3150800A9A0219B2246CDE900A3494610232846FFF7F6
S3150800A9B07DFE00287FF479AF0AF1100212F8013DF6
S3150800A9C00133DBB213700BB99245F7D1219A1BF804
S3150800A9D0013B125D0134534006F8013B04F00F04B5
S3150800A9E0D8E7212061E738465FE700BF0303000484
S3150800A9F0100000202DE9F04F97B00F4614469946EF
S3150800AA008346209EDDF88880DDF890A0269D0028E4
S3150800AA1000F09F80002900F09C801DB1259B002B2B
S3150800AA2000F09780B9F1000F00F09380B8F1000F9D
S3150800AA3003D0219B002B00F08C803CB1239B002B7C
S3150800AA4000F08780BAF1000F00F08380C6F10F028C
S3150800AA50D2B2032A05D80121D20001FA02F2A24293
S3150800AA6077D9022D75D0102D73D815F0010270D143
S3150800AA70F11F06296DD838490AEB0400884268D8C0
S3150800AA8036493846CBE90012CBF80820CBF81C200B
S3150800AA9013A961F03AFB002858D15846139961F07A
S3150800AAA090F9584645EA064161F08BF94146584601
S3150800AAB061F087F92146584661F083F9384601A9BD
S3150800AAC000F09AFD002841D1584601A961F065F9C0
S3150800AAD0384604A961F0E7FB002837D10127584614
S3150800AAE004A961F05AF9239B48F000520793219B69
S3150800AAF0584644F000540DA946F0005608970994A4
S3150800AB000A930B970C92CDF834900E970F9661F036
S3150800AB1044F958460AA961F040F9584607A961F070
S3150800AB203CF9259B584610A945F00055CDF840A09C
S3150800AB301197129413931497159561F038F958469E
S3150800AB4013A961F034F95846FFF768FD17B0BDE858
S3150800AB50F08F2120FAE700BFFFFF0320000005045D
S3150800AB602DE9F04F99B00F4614469B468046229E23
S3150800AB70DDF89890289D002800F0B280002900F0A2
S3150800AB80AF80279B002B00F0AB80BBF1000F00F0D5
S3150800AB90A780249B1BB1239B002B00F0A1803CB10E
S3150800ABA0259B002B00F09C80B9F1000F00F09880DF
S3150800ABB0C6F10F03DBB2032B06D80121DB0001FA2D
S3150800ABC003F3A34240F28C80022D00F089806B1EAD
S3150800ABD00F2B00F2858015F0010A40F08180F31FE3
S3150800ABE0062B7DD83F4B09EB0401994278D83E4B9A
S3150800ABF03846C8E9003AC8F808A0C8F81CA015A93C
S3150800AC0061F083FA0346002866D14046159961F03B
S3150800AC10D8F8404645EA064161F0D3F840462499FB
S3150800AC2061F0CFF82146404661F0CBF8384603A9D3
S3150800AC3000F0E2FC034600284ED1404603A961F025
S3150800AC40ACF8384606A961F02EFB0346002843D126
S3150800AC500127404606A961F0A0F8259B40460993BE
S3150800AC6044F000530A9701930B93239B46F0005632
S3150800AC700C93249B0D9743F000510E910FA9CDF824
S3150800AC803CB01097119661F088F840460CA961F01F
S3150800AC9084F8404609A961F080F8019B404612A94C
S3150800ACA0CDF848901397149361F081F8279B404696
S3150800ACB015A945F0005515931697179561F06DF887
S3150800ACC04046FFF7ABFC034630B101902246514699
S3150800ACD048469BF0D4FA019B184619B0BDE8F08F98
S3150800ACE02123F9E7FFFF0320000006042DE9F043BE
S3150800ACF08DB0884615461C460746DDF85090002854
S3150800AD0050D000294ED0002A4CD0B9F1000F49D0B6
S3150800AD100B68103B102B45D8012606FA03F303F0FF
S3150800AD20013323F08073002B3CD000231E4A836036
S3150800AD30C0E90023C36109A9404661F0E6F970BB82
S3150800AD403846099961F03DF82146384661F039F8E8
S3150800AD506946404600F050FC08BB6946384661F033
S3150800AD601CF8404603A961F09EFAC0B9384603A903
S3150800AD7061F013F844F00054384606A9069507967C
S3150800AD80089461F00AF8094B384609A9CDF82490C9
S3150800AD900A960B9361F00BF83846FFF73FFC0DB0A7
S3150800ADA0BDE8F0832120FAE7000004041000002023
S3150800ADB0F0B50C4617461E46054695B0002874D0D1
S3150800ADC0002972D0002A70D0002B6ED0036B0F2B8F
S3150800ADD05BD80023364A3846C4E90023A360E361FA
S3150800ADE011A961F092F900285BD12046119960F00B
S3150800ADF0E8FF296B20460F2984BF01F00F011031A7
S3150800AE0060F0DFFF384602A900F0F6FB002848D1BB
S3150800AE10204602A960F0C1FF384605A961F043FA49
S3150800AE2000283ED1204605A960F0B7FF0122214B34
S3150800AE30089509920A932B6B05F1100003F00F0190
S3150800AE4041F000510B900F2B0C920D910E900F9222
S3150800AE5043F00052109226D90A9B08A923F0005302
S3150800AE6020460A9360F099FF0BA9204660F095FFEB
S3150800AE700123119612930F4B204611A9139360F0E4
S3150800AE8096FF2046FFF7CAFB0BE000F1200301906E
S3150800AE9000930122102339462046FFF707FC0028B5
S3150800AEA097D015B0F0BD0EA9DFE72120F9E700BF5E
S3150800AEB000000404100000202DE9F04F9BB00D4659
S3150800AEC0914698460646DDF890A0002800F0B38023
S3150800AED0002900F0B080002A00F0AD80002B00F0B9
S3150800AEE0AA80026B02EB0A031B09B3EB121F02F0DE
S3150800AEF00F0700F098800023504A8B60C1E90023B1
S3150800AF00CB61484617A961F000F90446002840F0CD
S3150800AF10868007EB0A0323F00F0B28461799009340
S3150800AF2060F04FFF5946284660F04BFF484602A995
S3150800AF3000F062FB0446002871D1284602A960F099
S3150800AF402CFF484605A961F0AEF90446002866D1EB
S3150800AF504FF00109284605A960F01FFF384A284620
S3150800AF6008A90896CDF824900A9260F016FF47F0D3
S3150800AF700051ABEB070706F1100347F000570B9398
S3150800AF80CDF830900D91CDF83880CDF83C901097DB
S3150800AF900D99284621F000510D910BA9019360F0F7
S3150800AFA0FCFE28460EA960F0F8FEABF11001244A13
S3150800AFB041F000511194CDF84890139106F1200103
S3150800AFC01491CDF8549016921399284641F0804171
S3150800AFD01391139921F00051139111A960F0E7FE1E
S3150800AFE0284614A960F0E3FE154A17A928461796BD
S3150800AFF0CDF86090199260F0DAFE2846FFF70EFB4E
S3150800B000009B0446ABEB0301A3EB0B02019B5144E7
S3150800B010184641449BF00CF9336B5344336320467E
S3150800B0201BB0BDE8F08F10305246414638449BF0BD
S3150800B030FFF80024F0E72124F1E700BF030200042B
S3150800B040100000202DE9F0438DB08846DDE914593B
S3150800B0501E460746002850D000294ED0002B4CD05B
S3150800B060B9F1000F49D0531EDBB2042B45D8244949
S3150800B070CC5C169B9C4240D8224B09A903EB0222C2
S3150800B08000230260C0E90133C361404661F03DF820
S3150800B09080BB3846099960F094FE2946384660F028
S3150800B0A090FE6946404600F0A7FA18BB694638463E
S3150800B0B060F073FE404603A961F0F5F8D0B938464A
S3150800B0C003A960F06AFE06960126384606A945F0E9
S3150800B0D00055079644F00054089560F05EFE384621
S3150800B0E009A9CDF824900A960B9460F060FE3846BC
S3150800B0F0FFF794FA0DB0BDE8F0832120FAE700BF08
S3150800B100256C0A08000102032DE9FF4700230E46B5
S3150800B11017460446009300285BD00AB1002958D088
S3150800B12037F0030807F0030A25D04FF000094FF05F
S3150800B130E063C4E90039012301962046029301A978
S3150800B14048F00053C4F80890C4F81C90039360F0C4
S3150800B1502EFE4146204660F034FE2046FFF75EFA92
S3150800B160054640B14246494630469BF088F828468F
S3150800B17004B0BDE8F0874FF00009BAF1000F2AD0F5
S3150800B1804FF0E063C4E900390123CDF804D00293F7
S3150800B190124B204601A9C4F80890C4F81C900393E2
S3150800B1A060F005FE0421204660F00BFE2046FFF7FE
S3150800B1B035FA054608B13A46D5E7034600994644A6
S3150800B1C0DA00013321FA02F29A4506F8012BF7D183
S3150800B1D0CDE72125CBE75546C9E700BF0400002087
S3150800B1E0F0B5044608462178174601398DB004297A
S3150800B1F045D8DFE801F00330353A3F0040251426EC
S3150800B20020490C3400225D43C0E90122C261016075
S3150800B2102946019060F0D5FD0123019846F00056B5
S3150800B22006A945F0005503970493059506940793D8
S3150800B230089609940A930B9660F0AFFD019803A946
S3150800B24060F0ABFD019809A960F0B1FD0198FFF720
S3150800B250E5F90DB0F0BD402520260B490C34D1E7A1
S3150800B2604025202609490C34CCE780254026084984
S3150800B2701434C7E78025402606491434C2E721203E
S3150800B280E7E700BF0002010300030103000401030E
S3150800B290000501030006010310B591B188B100232A
S3150800B2A0C0E90133084B00F10C0203F1200153F801
S3150800B2B0044B8B4242F8044BF9D102230370002059
S3150800B2C010BD2120FCE700BF2A6C0A0810B591B111
S3150800B2D088B10023C0E90133084B00F10C0203F1E1
S3150800B2E0200153F8044B8B4242F8044BF9D103234F
S3150800B2F00370002010BD2120FCE700BF4B6C0A0834
S3150800B3002DE9F0470446174608468CB0002C7FD036
S3150800B31000297DD0002A7BD02278013A042A77D8E2
S3150800B320DFE802F0030C5A626D0014263A4A04F16B
S3150800B3300C0A04F104092C34B04608E020264FF024
S3150800B3401C08364A04F10C0A04F104092C3440217D
S3150800B35098455DD809F1040309EBD10553F804CBE8
S3150800B360BCF1000F56D1AB42F8D1D9F800300139FB
S3150800B37001EA0305C0E9002CC0F808C0C0F81CC0E3
S3150800B3802946019060F01DFDD9F80010019860F07B
S3150800B39018FD012248F00053019803A946F000560B
S3150800B3A045F00055CDF80CA0049205960694079230
S3150800B3B0089509970A920B9360F0EFFC019806A985
S3150800B3C060F0EBFC019809A960F0F1FC0198FFF721
S3150800B3D025F90CB0BDE8F08704F10C0A04F104095C
S3150800B3E020260F4A2C34A7E740264FF030080D4A8E
S3150800B3F004F1140A04F1040954348021A8E740260C
S3150800B40004F1140A04F10409B046074A5434F4E76F
S3150800B4102120DEE70F20DCE7000203030003030315
S3150800B4200004030300050303000603032DE9F041A6
S3150800B43086B090461D4604460C9F002833D097B325
S3150800B44002B983BB4B1EDBB2042B2CD8174AD65C39
S3150800B4500D9B9E4227D80023080200F1407000F594
S3150800B46080702946C4E901332060E361204660F014
S3150800B470A8FC01236946204645F0005546F00056CB
S3150800B480CDF800800193029503970493059660F022
S3150800B49084FC204603A960F08AFC2046FFF7BEF824
S3150800B4A006B0BDE8F0812120FAE700BF6C6C0A08F7
S3150800B4B0F0B50F4616461D46044693B010B921202E
S3150800B4C013B0F0BD0029FAD0002AF8D0002BF6D028
S3150800B4D0002331461A46384660F0CCFD0028EFD1E5
S3150800B4E0304602A960F05CFD0028E9D1EB68022B22
S3150800B4F00AD039683F48029A81426B6902D01830EF
