S0170000534654505F4D4C4F545F312D784C43442E733337FD
S315080060000012002085890008311108081F040B08B2
S315080060102D3508083111080831110808311108080A
S3150800602031110808311108083111080841620008C1
S3150800603031110808E45B0C08E1610008553F0808BF
S315080060409D8E000831110808311108083111080819
S3150800605031110808311108083111080831110808EA
S31508006060311108083111080831110808196F030899
S3150800607031110808311108083111080831110808CA
S3150800608031110808311108083111080831110808BA
S3150800609031110808CD950008311108083111080892
S315080060A03111080849970008259700083111080892
S315080060B03111080849D8070861E2070877490C082A
S315080060C073490C082DDA070883490C087B490C0824
S315080060D039E207087F490C08A1E2070805E3070823
S315080060E0311108083111080831110808311108085A
S315080060F0293508083111080831110808311108082E
S315080061003111080831110808311108083111080839
S315080061103111080831110808311108083111080829
S315080061203111080831110808311108083111080819
S315080061303111080831110808311108083111080809
S315080061403111080891C300083111080833360808C8
S31508006150F5BD070831110808CB450C08D1450C08D0
S3150800616031110808311108083111080831110808D9
S315080061700B4A1168086806C881F30B88022181F367
S315080061801488203080F30988BFF36F8F4FF0000022
S3150800619080F31188104700BFAFF30080AFF300808B
S315080061A0BC500120000000000000000000000000B4
S315080061B007480068006880F3088862B661B6BFF3CE
S315080061C04F8FBFF36F8F02DF00BF00BFAFF30080B2
S315080061D008ED00E0000000000000000000000000DC
S315080061E0EFF30980EFF30B82734620E9FC0F104AA0
S315080061F0116808604FF0300080F31188BFF34F8FA5
S31508006200BFF36F8F0FF054FC4FF0000080F3118836
S31508006210074A11680868B0E8FC0F82F30B8880F318
S3150800622009881847AFF30080AFF30080AFF300800A
S31508006230BC50012000000000000000000000000023
S315080062401EF0040F0CBFEFF30880EFF30980044932
S31508006250084700BFAFF30080AFF30080AFF30080BC
S3150800626055690108000000002DE9F04F2DED028B5D
S31508006270DFF8E8918FB0B9F800309B0706D440F2F2
S3150800628082616F4B6F4A704879F00AFADFF8D0B12D
S31508006290DBF8003023B940F283616C4B694AF2E7B8
S315080062A06B4C0DF1200894E8070088E807009B88E6
S315080062B0684D8DF817300123B9F800200DF1170144
S315080062C01A462868BDF02DFD9DF81720DBF800104A
S315080062D0023A0023096892B20C3428680DF12C0A98
S315080062E0BDF01FFD94E807008AE80700DBF80030D8
S315080062F01B681C7814F0200421D02868BDF02AFBFE
S31508006300002870D02868BDF025FB04460D9878F063
S31508006310B3FC064620460F4678F0AEFC02460B460E
S3150800632043A1D1E9000178F04BFE02460B46304600
S31508006330394678F065FB78F0B3FF0D90012428689C
S31508006340BDF024FB9DF81730002850D0981DC000DA
S3150800635078F0A2FC38A3D3E9002378F007FD41ECD6
S31508006360180B2868BDF012FB03900D9878F084FC92
S31508006370039B064618460F4678F07EFC02460B46F7
S3150800638051EC180B78F01CFE02460B46304639468F
S3150800639078F036FB78F084FF0D90B9F80020DBF82A
S315080063A0003012F02002286827D00D9A02F5FA72FA
S315080063B00D9293F8202099798DF82220264A434693
S315080063C01278CDF800A08DF823202246BDF03BF8C0
S315080063D020B102200CF0E4FC52F0A4FC0FB0BDEC96
S315080063E0028BBDE8F08F0D9BC0330D93A6E70D9881
S315080063F0063300EB43130D93CFE79D6999797DB179
S31508006400DB69154E2B4436780693ADF81C20CDE98A
S31508006410008A224606AB8DF82360BDF01FF8D7E741
S3150800642053462246BCF0F9FFD2E700BFAFF300801F
S315080064300000000060E366410000000080842E41F1
S315080064400A820C080B850C087D800C0830820C0823
S31508006450F0830C085C4D01204C1D00205EFA0120DB
S31508006460605001200000000073B5814B1C8814F0B1
S31508006470010440F0F58041F60B227E4D7E4B7F21CC
S31508006480C5E9003405F11003AB607C4B7C489A8063
S3150800649010221C60BEF0D7FF7F227A4B1A707A4B07
S315080064A01B6ADB0706D440F20E41784B784A7948D6
S315080064B079F0F6F8214628466EF002FA044620B925
S315080064C040F21241744B724AF1E76FF0FDFD20B1BC
S315080064D040F21641714B6E4AE9E74FF0011120462A
S315080064E0BDF007FC20B140F21A416C4B684ADEE762
S315080064F002212046BDF00FFA20B140F21D41674B3C
S31508006500634AD4E7204666496FF0A2FB20B14FF4F0
S315080065108461624B5E4ACAE701212046BDF09FFDB1
S3150800652020B140F225415D4B594AC0E7012120467A
S31508006530BDF0ACFD064620B14FF48561574B544A71
S31508006540B5E7014638225748BEF07DFF802332461C
S31508006550204605F11401BDF0FAFB802804D040F26C
S315080065602F41514B4A4AA2E7504D0120BCF050FF3B
S315080065703DA3D3E900232C602046CDE900234FF044
S31508006580FF324FF0FF33BDF07FFA014620B140F2EB
S315080065906E31424B464A8AE738480CF075FA0121B3
S315080065A008460CF0E5FA01212868BDF0FEF8044615
S315080065B020B140F2C141394B3E4A78E701464FF4D3
S315080065C008723D48BEF03FFF3C4A3D4B02F1880148
S315080065D01A60996202F5887102F5CC729C809A67F6
S315080065E09C85384AA3F854401965A3F87C40364B75
S315080065F06FF063001A609C80344A354B1A60354A3E
S315080066009C801470344A5A6115F0F2FD0B200CF088
S31508006610F5F9324B186020B940F2D941304B254A7A
S3150800662045E705F013FE20460CF00EFB0822286805
S315080066301146BDF044FA044620B140F2DE41294B2A
S315080066401C4A34E70DF076FB274B28481C70284B6C
S315080066501C70284B1C7002B0BDE8704083F0B6BDB4
S3150800666002B070BDAFF300800BE020FFE20300002C
S315080066705EFA0120684D0120CD2E0108604D0120EB
S315080066805EFE01204FFE01200080E00FDA820C0832
S3150800669080840C087D800C08F3820C08DB7F0C08CC
S315080066A090850C08084E012002830C085C4D0120D9
S315080066B073840C08FC840C08404E0120484E0120C7
S315080066C0202100206FFE0120F8200020F4FE012082
S315080066D0C0210020EEFE0120E8210020044E012002
S315080066E03A830C0855830C0852FE0120D9830C08FE
S315080066F0F3FE0120F2FE01202DE9F3411F46204B4F
S31508006700044683424FF000038B410E46154611D2CC
S3150800671019A3D3E9002378F033FE1A49024628461E
S3150800672086F00DFB14A3D3E900232046314678F002
S3150800673027FE144614484FF47A78B4FBF0F200FBAF
S3150800674012444EF66020B4FBF0F300FB1344B4FB8E
S31508006750F8F628460D49009686F0F1FA47B128461C
S3150800676008FB16420A4902B0BDE8F04186F0E7BACE
S3150800677002B0BDE8F08100BF005C260500000000FD
S31508006780FF5B260580C20C0880EE360087650D087B
S3150800679086C20C08000000002DE9F04F2DED028B93
S315080067A0804600680C4691461D468DB030B90327D1
S315080067B038460DB0BDEC028BBDE8F08F0668766CE6
S315080067C0B0472D2807460CD00028F1D09C4A9D4B8F
S315080067D00221A52808BF13460D209B4AA8F0CAFE29
S315080067E0E6E76378202B01D10027E1E7974BD8F835
S315080067F00000049358B1036822461B6C04A9984705
S31508006800074630B1049803689B689847D0E7032782
S31508006810F8E78F4B8F4E05934FF48973EE40F64396
S31508006820EB40DB43102D06F0010688BF0126082D34
S3150800683003F0010388BF01239FED7F8B6FF0010BE7
S315080068400193049805A90368DB689847002840F077
S31508006850EC808DF80E0005980DF10E010368DB68D3
S3150800686098470746002843D19DF80E30402B03D0A1
S31508006870802B01D003273BE062789A42E1D10123BD
S3150800688005988DF80F3003680DF10F015B6998477D
S31508006890074668BB9DF80F30082B17D8002BD0D0B9
S315080068A0013B072BCDD801A252F823F0FD6800085A
S315080068B0D768000843680008F968000843680008B4
S315080068C0436800084368000803690008102BB8D11C
S315080068D0002EB6D102E06B1E012BB2D80023059814
S315080068E00693036806A95B6A9847824668B1074615
S315080068F005A894F0B6FA85E7042DEFD0012DA0D1AE
S31508006900ECE7019B002B9CD1E8E7069B002B46D0C1
S315080069108DED088B05985146036808AA9B6A984727
S3150800692007460028E4D1DDE90830591E40F1FF3258
S315080069308B456FF0100171EB020210D39DF80E2003
S31508006940402A97D1D4E90212904208BF8B4226D03A
S31508006950069B0AF1010A53457FF673AFD8E74FF055
S31508006960FF31C21C994277EB020231D39DF80E2003
S31508006970402A7FF47FAF1F0C04F1100104F11C00BC
S315080069809BB28842E4D051F8042B002AF9D0B7EB21
S31508006990124FF6D1002BF4D092B29342F1D80023CD
S315080069A005980793036807A99B6B9847074600282D
S315080069B09ED1079B002B36D082460598CDF820A09D
S315080069C003683946DB6B08AA984758B107468FE72C
S315080069D013F5803F70F1FF32FFF44CAF9DF80E209F
S315080069E0802AAEE7089BD90704D5D9F8002009996B
S315080069F0914212D19A0705D5BDF82810B9F8042096
S31508006A0091420AD15B070ED5D8F80400B9F80420DC
S31508006A1003680B999B68984728B9079B0137BB42BF
S31508006A207FF60FAFC9E7002762E702210D200A4A61
S31508006A30A8F0A0FDA5275BE7000000000000000005
S31508006A4040D50C08014B0E0814D50C081818002060
S31508006A501C1800201601010031D50C0800000000A2
S31508006A602DE9F04F2DED028B9FED658B83ED008BA5
S31508006A7017460026C1B09946D0E90623CDE900237A
S31508006A8004468A4697F820201CA926A80F9695F052
S31508006A90CBFD03238DED188B5B4DCDE91266286877
S31508006AA0ADF8683014961696036810A95B6998477E
S31508006AB0002840F08D800126109B0A93119B0B93AA
S31508006AC000234FF0030BCDE91333ADF848300A9B8A
S31508006AD04FF0FF3218930B9B21681CA819938DF869
S31508006AE05860ADF868B0A7F0BDF997E807003B8C89
S31508006AF00DF1480888E80700ADF868305146D4E932
S31508006B0006232046CDE93223D4E90A23CDE93023EA
S31508006B100FAB424632F0D6FC05460346002866D13E
S31508006B20204697F820200F9932F026FE05460346A0
S31508006B3000285CD143465246204626A995F094FD86
S31508006B4005460346002852D1E368229A2046134494
S31508006B50E360D4E90623C9E9002332F019FD0A9B4C
S31508006B609DF858C0A3620B9B2848E362284B84F81B
S31508006B702060BCF1000F18BF03461898139F0890B1
S31508006B801998D9F80020CDE906309DF86810BDF8A7
S31508006B90485014983E0CBFB2CDE90021D9F804300C
S31508006BA059461C4ACDE90470CDE902561A20A8F0C8
S31508006BB0E1FC33F0CBF94146E26800F5CE603FF0E0
S31508006BC04DF90546284641B0BDEC028BBDE8F08F6D
S31508006BD029680CA80B68DB689847D4E90C310C9A2D
S31508006BE0D31A0A930D9B63EB01030B9368E7012104
S31508006BF01A20094AA8F0BEFCE4E700BFAFF30080FC
S31508006C00000000000000000044190020EAE00C081B
S31508006C10E6E00C08F0E00C0878E10C08000000003B
S31508006C202DE9F04F2DED028B884204460D4690461D
S31508006C301E4697B00AD1034601211D202E4A17B0D9
S31508006C40BDEC028BBDE8F04FA8F094BC9FED288BF5
S31508006C500DF10C092A21484605AF42F0C5F899E816
S31508006C60030087E80300DFF894A0DFF894B0BDF8C6
S31508006C701400BDF81630834234D042F04FF9337809
S31508006C8081468DF824408DF825508DF826808DF89C
S31508006C9028300BB173680B9309AB0893CDF81CA089
S31508006CA032F056FB00230E938DF840308DF85130A4
S31508006CB02A23ADF830904FF001090D930CAA6B46C4
S31508006CC007A98DED128B8DF8509095F0B4FD03460B
S31508006CD020B15A4649461D20A8F04CFC38469FF07C
S31508006CE0E2FEC4E717B0BDEC028BBDE8F08F00BF2B
S31508006CF00000000000000000F81F0D08E4200D0841
S31508006D0038200D08000000002DE9F04F2DED028B0C
S31508006D109FED318B9DB00DF108092A21054604AC7B
S31508006D20484616461F46DDF8A48042F05DF899E805
S31508006D30030084E80300DFF8A8A0DFF8A8B0BDF8D0
S31508006D401000BDF8123083423ED042F0E7F8289B87
S31508006D5081461B78CDE90A6708958DF830301BB156
S31508006D60289B5B788DF8313098F800308DF83830EC
S31508006D701BB1D8E90223CDE9102308AB0793CDF858
S31508006D8018A032F0E5FA00232A228DF858308DF83B
S31508006D9069300223ADF848904FF00109CDE9132375
S31508006DA006A96B4612AA8DED188B8DF8689095F09A
S31508006DB042FD034620B15A4649461D20A8F0DAFB93
S31508006DC020469FF070FEBAE71DB0BDEC028BBDE809
S31508006DD0F08F00BFAFF30080000000000000000045
S31508006DE00C210D088F200D082DE9F04F2DED028B93
S31508006DF0083089B00E469146DDF86080A8F0A9FAF9
S31508006E000446002800F0A1806D4614AB0FCB85E838
S31508006E100F0000259FED508B4FF0010B41F2A45A4D
S31508006E2004AF87E80F004E4BC4E90355236003F10E
S31508006E302C02C4E905554833A3604A4B04F1480CB3
S31508006E4062600FCB84ED0E8BC4E90755C4E90C5577
S31508006E5084F8245084F840508CE80F00424B1022E6
S31508006E60236604F17803C4E91E3304F1A003C4E9D8
S31508006E7028333E4B2946C4F8D030C4E91955C4E92D
S31508006E80355584F858B0A4F85AA0E56584F86C50CE
S31508006E906467C4F89850C4F8C050C4F8DC5004F1CC
S31508006EA0E000BEF0D0FA84F8F0B0A4F8F2A0C4F876
S31508006EB0F45004F1F800A8F0B7FF4AF6C873C822E0
S31508006EC084ED428B84ED448BC4E9462304F598731C
S31508006ED0C4E94C3384F80051A4F80451C4F8285185
S31508006EE084F82C51C4F850513368E3607368236101
S31508006EF0B3686361F368A3613369E3617369236205
S31508006F00337E84F824302BB1D6E9070104F128032F
S31508006F1083E80300304694F08CFCB0B9B9F1000F51
S31508006F2013D0B8F1000F10D003CF3B78C4F83090D7
S31508006F3084F84030012384F8283104F10803A0635B
S31508006F40E163C4F8C880C4F8DC30204609B0BDEC5B
S31508006F50028BBDE8F08F00BF0000000000000000B3
S31508006F603CEC0C08A88E0120FCEB0C0828EC0C085D
S31508006F702DE9F04F2DED028B9946002300240025BC
S31508006F80CDB08DF8C83049938DF828319C4BCDE9A2
S31508006F902E45CDE93045CDE934450C934FF6FF74BF
S31508006FA00123DFF874A2064688461746CDF8D8A00E
S31508006FB0ADF820410D936AB1054600F53E74A54229
S31508006FC000F00C81284695F010FD002800F0088195
S31508006FD09835F4E7A2F019FA044630B9AC242046ED
S31508006FE04DB0BDEC028BBDE8F08F06F53E75284620
S31508006FF093F0D1FAB4F868308DF8C880ADF820312E
S3150800700094ED028B6A3420212046BEF085FBCDE93B
S315080070100C407C4B4FF4C8710E93002309A8CDE9A8
S3150800702009330F930B93CDF870A09CF0C3FF099B0F
S3150800703053B90B240BA894F019FB0AA894F016FB75
S3150800704009A894F013FBCAE74FF4C8710AA89CF084
S31508007050B1FF0A9B002BECD04FF4C8710BA89CF02B
S31508007060A9FF0B990029E4D0099B0A9A10934FF4BB
S31508007070C8733046CDE91223CDE9141310AA414648
S315080070801193A2F01FFA08B10446D3E741463046E9
S3150800709012AAA2F0F9F90028F6D14146304614AAF8
S315080070A0A2F0CFF90028EFD1109B0DF1B80A16937C
S315080070B0119B0DF1700B1793129B8DED008B189396
S315080070C0139BCDE905AB1993149B1AAA1A93159B22
S315080070D018A91B9336AB079330AB049334AB0393D1
S315080070E00EAB029316A845F005F90028CCD10BA8DB
S315080070F094F0BCFA0AA894F0B9FA09A894F0B6FA7A
S31508007100B9F1000F13D1D6F8940300285AD00368B2
S315080071109B689847D6F894331A6800284AD0546969
S3150800712041465A461846A04798B1044657E7D9F843
S31508007130003048465B699847036859465B6A984732
S3150800714008B9C5244BE79DF86031CDF824918DF830
S31508007150283151462846A2F013FC0028E5D12846D6
S315080071600CA9A2F01FF92B7C77B302211120264A1D
S31508007170A8F000FAD5E90012AB69CDE90121009320
S3150800718002211120EB69214AA8F0F4F90F9906F5B6
S31508007190697047F003FB034620B1012111201C4A00
S315080071A0A8F0E8F927B196F8B233013386F8B23376
S315080071B0002414E741461846D26890470028C8D1EB
S315080071C010240CE703240AE7D5E900121120CDE9BB
S315080071D0002102210F4AA8F0CDF9D7E70B24FEE6D5
S315080071E0BDF864319FED048BADF820318DF8C88069
S315080071F00FE700BFAFF300800000000000000000AA
S315080072000C940C08B8620D08E5610D0805620D08B6
S315080072107D620D0848620D0800A60D0800000000F2
S315080072202DE9F0478AB00DF10D03019315230646A3
S3150800723000934FF48072002308460C46A7F00FF817
S31508007240D8B9B37B0122009320460023A6F08EFF0F
S3150800725098B9F37B0222009320460023A6F086FF06
S3150800726058B90DF10E030193162303220093204605
S315080072700023A6F0F4FF054610B10AB0BDE8F08772
S3150800728037464FF010090DF1180810220021404624
S31508007290BEF0D9F80DF10F03019315234FF4807250
S315080072A0009320460023A6F0DAFF0028E5D1F27BFA
S315080072B0EBB29A4250D997ED047BC446B7F818A0AA
S315080072C007F11A0307F12A0E624618685968083347
S315080072D003C273459446F7D18DED007B0422002343
S315080072E02046A6F01EFF0028C7D105220023204607
S315080072F0CDF800A0A6F03AFF0028BED14046494680
S3150800730006228DE8030000232046CDE90489A7F06C
S3150800731062F80028B1D120469DF90F10A6F0CEFFDD
S31508007320013530370028A8D1032DAED120469DF966
S315080073300E10A6F0C3FF00289FD1F38807220093FA
S3150800734020460023A6F012FF002896D120469DF974
S315080073500D10A6F0B3FF90E782469FED017BBBE7D1
S315080073600000000000000000054B186803689969D2
S3150800737001A3D3E90023084700E0373B015D03007A
S3150800738044190020000000002A2110B57248ADF506
S31508007390956D02914DF01CFE08B1BDF0A4FF029058
S315080073A002A96D484DF0CEFC0028F6D1029B2A2B87
S315080073B0F3D167A3D3E900236848CDE908234DF044
S315080073C01FFE0028E9D100220023644808A9CDE958
S315080073D008234DF0DBFC0028DFD1DDE9080240F682
S315080073E0FA035F499A4208BF8842D6D101215D480F
S315080073F08DF807104DF0D4FD0028CED18DF8070082
S315080074000DF1070157484DF075FC0028C5D19DF8C8
S315080074100730002BC1D050484DF0E8FB0028BCD1FE
S315080074204D4803A94DF08EFC40F20124A042B4D188
S315080074304D494E48A9F01AF80028AED140224B48CB
S3150800744004AB0AA94DF0CAFC0028A6D1049B0E2B52
S31508007450A3D10F2244490AA8BDF0BEFF00289CD13B
S3150800746043494248A9F002F8002896D104AB4022C5
S315080074703E480AA94DF0B2FC049B03438DD19DF802
S315080074802810002989D13948A8F0F0FF002884D1AE
S315080074904022364805AB1AA94DF0A0FCA0427FF45D
S315080074A07CAFF122334934484DF0DCFD00287FF4E7
S315080074B074AF4FF40072304806AB2AA94DF0DCFCD5
S315080074C000287FF46AAF069AF12A7FF466AF294945
S315080074D02AA8BDF081FF024600287FF45EAF014668
S315080074E025484DF0BFFD00287FF457AF4FF40072D2
S315080074F0214807ABAAA94DF0BFFCA0427FF44DAFC7
S3150800750016484DF07FFB00283FF447AF15484DF06D
S3150800751079FB00283FF441AF17484DF073FB00286C
S315080075207FF43BAF4DF0C8FB00287FF436AF0B481D
S315080075304DF068FB00283FF430AF0A484DF062FB77
S3150800754000287FF42AAF0DF5956D10BDAFF30080C6
S31508007550316EE595FA080000057308000172080007
S31508007560316EE595067308007D9E0D0802730800C6
S315080075707C9E0D088B9D0D08027208000000000015
S31508007580002370B5404C05468AB0E36318B10088FD
S31508007590236061F099FE3D48BCF0A6F93C4E3D4B90
S315080075A0304633603C4B736062F060F80021304629
S315080075B06DF086F932A3D3E90023A062C4E9062355
S315080075C0B6F01DFED4E90623194310434FF0FF33E6
S315080075D0C4E90601CDE900014FF0FF32A06ABCF00C
S315080075E053FA02224FF0FF31A06ABCF068FA012074
S315080075F061F0D0FB4FF4007300222849A06ABCF062
S31508007600A6FBB0F5007F38D100239422CDE90733D5
S3150800761009933C23CDE9033205939623A06A03A96F
S3150800762006936DF069FD35B3287C62F0DDF80546F2
S31508007630F0B9A06ABCF065FD62F07EF861F08CFBDB
S3150800764020B14FF4807000215EF0ECFB61F094FBF2
S3150800765020B14FF4006000215EF0E4FBB6F094FD23
S315080076600120BBF0D5FE0E4A0E49A06AB6F0BBFD56
S3150800767028460AB070BDFF20D7E70725F8E700BF00
S315080076800DD5015520000000D8390120690345ECC5
S315080076909CF201202195060890F2012090F0012025
S315080076A08FE10B08CFE10B0810B5054C237833B9E9
S315080076B0044B13B1044800E000BF0123237010BD3A
S315080076C0403F01200000000040510E0808B5034B5A
S315080076D01BB10349034800E000BF08BD00000000D5
S315080076E0443F012040510E08A3F5803A704700BF79
S315080076F0174B002B08BF134B9D46FFF7F5FF0021DC
S315080077008B460F461348144A121ABDF09CFE0E4BC0
S31508007710002B00D098470D4B002B00D0984700202F
S31508007720002104000D000D48002802D00C48BDF0C9
S31508007730E1FD78F0FBF9200029005AF00BFA77F002
S31508007740E1FF00BF00000800000000000000000084
S3150800775000120020DC1F00201CC50220F5520C0870
S315080077600000000010B5224C03F0ACFC236F23F098
S31508007770070343F00203236779F0C8FFD4F82031E2
S31508007780002023F0070343F00103C4F82031D4F89E
S31508007790283123F0070343F00103C4F82831D4F84D
S315080077A0403123F0030343F00103C4F84031D4F811
S315080077B0603123F0030343F00103C4F86031D4F8C1
S315080077C0403223F0030343F00103C4F84032D4F8EF
S315080077D0003223F0070343F00103C4F80032D4F85B
S315080077E0083223F0070343F00103C4F8083210BD3A
S315080077F00080005007B501A804F04AFB9DF8053043
S31508007800012B14D19DF804308BB94FF48012154B17
S315080078101549586E03F580535A664B6B23F0E053AF
S3150800782043F040634B63C3025CBF104B5A6609F0D2
S3150800783001FA09F059F97BF075FE09F0B7F97BF002
S315080078406BFE09F067F9FFF78DFF09F09DF901F066
S31508007850E9FA01F08BFF0CF0A1FB03B05DF804EB2D
S3150800786009F06CBC008000500040005A00A000508F
S3150800787008B5044879F05BFDBDE80840024879F090
S3150800788056BD00BF085B0C08205B0C0808B5044809
S3150800789079F07BFDBDE80840024879F076BD00BF67
S315080078A0385B0C08505B0C0818B1034B18600020B5
S315080078B070472520704700BFBC3F012010B5054C16
S315080078C00549206802F074FB2068BDE81040FFF700
S315080078D0EBBF00BF381200200C12002070B58B6871
S315080078E00646012B0D4614468CB023D0022B31D008
S315080078F0002B3CD119461C2205A8BDF0A4FD214643
S3150800790005A8AFF0A5FE044630B92946304605AAB3
S3150800791036F01EF900283BD129468522304694F0D8
S31508007920F2F9234602211D201A4A0CB0BDE8704020
S31508007930A7F020BE0023114605A8ADF81430AFF015
S31508007940D1FE04460028E7D12946304605AA36F076
S315080079508BF9DFE7114605A8AFF0F0FE04460028CC
S31508007960DAD12946304605AA36F0E6F9D2E7812269
S3150800797094F0C9F9D5E9012391B2120C01929AB291
S315080079800291009201211D20034A1B0CA7F0F2FD6B
S315080079900CB070BD9C5B0C08685B0C0870B50D4696
S315080079A0AB6806460A2B114688B037D9403B0C2BE4
S315080079B014D981222946304694F0A5F9D5E9012340
S315080079C091B2120C01929AB20291009201211D20E5
S315080079D0B14A1B0CA7F0CEFD08B070BD0C2BE8D839
S315080079E001A252F823F000BF7D7B00089D7B0008AA
S315080079F0BF7B0008DF7B0008FF7B0008B37900081F
S31508007A00B37900082F7C0008B3790008B379000819
S31508007A10B3790008537C0008777C00085A1E0023B7
S31508007A200593092A06D8DFE802F0212D3B4955635C
S31508007A30717E8C9A05A8ADF81830B2F008FA04469B
S31508007A4030B92946304605AA36F0B2FD0028C3D11A
S31508007A5029468522304694F056F9234602211D20F0
S31508007A608E4A08B0BDE87040A7F084BD05A8B2F0FC
S31508007A708FFA04460028EBD12946304605AA36F087
S31508007A807BFDE3E705A88DF81830B2F062FB0446E3
S31508007A900028DDD12946304605AA36F0BDFDD5E7D2
S31508007AA005A8ADF81830B0F07DF804460028CFD107
S31508007AB02946304605AA36F091FDC7E705A8B0F075
S31508007AC0B2F804460028C3D12946304605AA36F03E
S31508007AD067FDBBE705A88DF81830B0F0F1F8044645
S31508007AE00028B5D12946304605AA36F0ABFDADE7E4
S31508007AF005A8ADF81830B0F032F904460028A7D129
S31508007B002946304605AA36F071FD9FE705A8069373
S31508007B10B0F069F9044600289AD12946304605AAE4
S31508007B2036F0F6FD92E705A8ADF81830B0F09FF9E3
S31508007B30044600288CD12946304605AA36F0F0FDC1
S31508007B4084E705A80693B0F0D3F9044600287FF425
S31508007B507FAF2946304605AA36F0EAFD76E705A83E
S31508007B60ADF81830B0F00BFA044600287FF470AF71
S31508007B702946304605AA36F0E3FD67E7002305A83F
S31508007B80CDE90533B2F0AAF9044600287FF460AFC0
S31508007B902946304605AA36F071FD57E7002305A8A1
S31508007BA00593ADF81830B2F034FA044600287FF48D
S31508007BB04FAF2946304605AA36F04CFD46E7002366
S31508007BC005A8CDE90533B2F008FB044600287FF482
S31508007BD03FAF2946304605AA36F07CFD36E7002336
S31508007BE005A8CDE90533B0F00BFA044600287FF462
S31508007BF02FAF2946304605AA36F056FD26E700235C
S31508007C0005A8ADF814308DF81630ADF81830ADF873
S31508007C101A30ADF81C30B0F037FA044600287FF465
S31508007C2017AF2946304605AA36F06AFD0EE7002347
S31508007C3005A88DF814308DF81530B0F092FA044680
S31508007C4000287FF405AF2946304605AA36F096FD8A
S31508007C50FCE6002305A8CDE90533ADF81C30B2F0E3
S31508007C601CFA044600287FF4F3AE2946304605AAD6
S31508007C7036F06EFDEAE6002305A8CDE9053307933D
S31508007C80B2F0F2FA044600287FF4E2AE29463046FE
S31508007C9005AA36F065FDD9E6685B0C089C5B0C08FE
S31508007CA070B58B6806460C4688B0EBB9114604A831
S31508007CB0ADF810308DF81430B0F02DFB054628B914
S31508007CC02146304604AA9AF09AF9F0B92146852247
S31508007CD0304694F018F82B4602211D200C4A08B0AD
S31508007CE0BDE87040A7F046BC812294F00CF8D4E9B0
S31508007CF0012391B2120C01929AB2029100920121CB
S31508007D001D20044A1B0CA7F035FC08B070BD00BF47
S31508007D109C5B0C08685B0C0870B58B6806460C46BD
S31508007D2086B0CBB9114605A8AFF08FFC054628B931
S31508007D302146304605AA9AF0A2F9F0B921468522CD
S31508007D40304693F0E0FF2B4602211D200C4A06B070
S31508007D50BDE87040A7F00EBC812293F0D4FFD4E9A9
S31508007D60012391B2120C01929AB20291009201215A
S31508007D701D20044A1B0CA7F0FDFB06B070BD00BF12
S31508007D809C5B0C08685B0C0870B58B680646022B72
S31508007D900D4614468AB024D0042B34D0002B3FD18C
S31508007DA00022ADF810300023214604A8CDE90623A9
S31508007DB0AFF06BFA044630B92946304604AA36F0C5
S31508007DC041FE00283DD129468522304693F09BFF87
S31508007DD0234602211D201C4A0AB0BDE87040A7F0C0
S31508007DE0C9BB1822002104A8BDF02DFB214604A812
S31508007DF0B1F011FC04460028E5D12946304604AA0C
S31508007E0036F042FFDDE7114604A8AFF074FA0446DF
S31508007E100028D8D12946304604AA36F091FED0E784
S31508007E20812293F070FFD5E9012391B2120C0192D9
S31508007E309AB20291009201211D20044A1B0CA7F058
S31508007E4099FB0AB070BD00BF9C5B0C08685B0C0808
S31508007E5070B58B6806460C4688B0FBB90020002131
S31508007E60CDE90601114604A8CDE90433AFF0FFFABF
S31508007E70054628B92146304604AA37F0D5F9F0B99F
S31508007E8021468522304693F03EFF2B4602211D20CF
S31508007E900C4A08B0BDE87040A7F06CBB812293F08D
S31508007EA032FFD4E9012391B2120C01929AB20291DF
S31508007EB0009201211D20044A1B0CA7F05BFB08B0A9
S31508007EC070BD00BF9C5B0C08685B0C0870B58B68BE
S31508007ED006460D4614469CB0042B64D8DFE803F02A
S31508007EE0032F633F4F000023214604A8ADF8103046
S31508007EF08DF812308DF814308DF820308DF830302A
S31508007F008DF840308DF850308DF86030B1F02DFD89
S31508007F10044630B92946304604AA37F00BFA002839
S31508007F2052D129468522304693F0EDFE234602219A
S31508007F301D20264A1CB0BDE87040A7F01BBB0023D5
S31508007F40214604A8ADF81030AFF0D4FD0446002849
S31508007F50E7D12946304604AA9AF0ADFDDFE70023AB
S31508007F60214604A8ADF81030AFF0F0FD044600280D
S31508007F70D7D12946304604AA37F0BCFACFE7002203
S31508007F8004A811468DF84820A5F00FFB214604A841
S31508007F90B2F009FA04460028C3D12946304604AA95
S31508007FA09AF00EFCBBE7812293F0ADFED5E90123DA
S31508007FB091B2120C01929AB20291009201211D20EF
S31508007FC0034A1B0CA7F0D6FA1CB070BD9C5B0C08C4
S31508007FD0685B0C0870B58B6806460D46144694B067
S31508007FE0052B77D8DFE803F00323334757640023CC
S31508007FF0214604A8CDE90533ADF81030AEF058FC9B
S31508008000044630B92946304604AA9AF0D6FD002817
S3150800801071D129468522304693F075FE2346022102
S315080080201D20364A14B0BDE87040A7F0A3BA002355
S31508008030214604A8ADF81030AEF093FC044600289B
S31508008040E7D12946304604AA9AF0F2FDDFE7002276
S3150800805004A811468DF84820A5F0A7FA214604A8D9
S31508008060B2F075F904460028D3D12946304604AA49
S3150800807037F09EFECBE70023214604A8ADF8103062
S31508008080AEF0CCFC04460028C3D12946304604AAE3
S3150800809037F0D6FDBBE7214604A8AEF00FFD04462F
S315080080A00028B6D12946304604AA37F027FEAEE79F
S315080080B00023214604A8CDE90533ADF81030AEF00B
S315080080C01BFD04460028A4D12946304604AA37F0E9
S315080080D037FE9CE7812293F016FED5E9012391B27B
S315080080E0120C01929AB20291009201211D20044AB3
S315080080F01B0CA7F03FFA14B070BD00BF9C5B0C08C0
S31508008100685B0C0870B58B6806460D4686B0A3B149
S31508008110402B2FD0812293F0F6FDD5E9012391B2A9
S31508008120120C01929AB20291009201211D201A4A5C
S315080081301B0CA7F01FFA06B070BD114605A8ADF8CE
S315080081401430AEF03BFB044630B92946304605AA42
S315080081509AF030FE0028EED129468522304693F063
S31508008160D2FD234602211D200C4A06B0BDE8704008
S31508008170A7F000BA0023114605A88DF814308DF82B
S315080081801530AEF047FB04460028E5D129463046AF
S3150800819005AA37F0AFFEDDE7685B0C089C5B0C08A8
S315080081A070B50D46AB680646114686B0072B00F239
S315080081B0AE80DFE803F004263B4E5F72879A002301
S315080081C004A88DF81030ADF81230ADF81630B2F0BC
S315080081D022F9044638B92946304604AA9AF022FEFE
S315080081E0002840F0A68029468522304693F08BFD6C
S315080081F0234602211D20504A06B0BDE87040A7F06C
S31508008200B9B9002304A88DF810308DF811308DF80F
S3150800821013308DF81430B2F042F904460028E2D142
S315080082202946304604AA38F01BFCD9E7002304A8DF
S31508008230ADF81030ADF81230ADF81630B2F073F96B
S3150800824004460028CFD12946304604AA38F04CFD0A
S31508008250C6E7002304A88DF810308DF81130B2F067
S31508008260ACF904460028BED12946304604AA38F09F
S31508008270CBFDB5E7002304A88DF81030ADF8123011
S31508008280ADF81630B2F0CBF904460028ABD1294632
S31508008290304604AA38F034FAA2E7002304A88DF879
S315080082A010308DF811308DF813308DF81430B2F087
S315080082B0FAF90446002896D12946304604AA38F029
S315080082C011FC8DE7002304A8ADF81030ADF8123084
S315080082D0ADF81630B2F02BFA0446002883D12946A9
S315080082E0304604AA38F048FD7AE7002304A88DF83A
S315080082F010308DF81130B2F064FA044600287FF485
S3150800830072AF2946304604AA38F0A0FD68E78122F4
S31508008310294693F0F8FCD5E9012391B2120C019293
S315080083209AB20291009201211D20044A1B0CA7F063
S3150800833021F906B070BD00BF9C5B0C08685B0C0891
S3150800834070B58B6806460C468CB02BBB0020002106
S31508008350CDE90401114604A8ADF818308DF81A3095
S315080083608DF81C30ADF82830B0F0CFFF054628B997
S315080083702146304604AA3CF07BFEF0B92146852208
S31508008380304693F0C0FC2B4602211D200C4A0CB047
S31508008390BDE87040A7F0EEB8812293F0B4FCD4E9AA
S315080083A0012391B2120C01929AB202910092012114
S315080083B01D20044A1B0CA7F0DDF80CB070BD00BFE9
S315080083C09C5B0C08685B0C0870B50D46AB680646E6
S315080083D0402B114686B062D019D8012B47D0022B04
S315080083E051D053B381222946304693F08CFCD5E907
S315080083F0012391B2120C01929AB2029100920121C4
S315080084001D20354A1B0CA7F0B5F806B070BD412BE8
S3150800841056D0422BE6D1002304A88DF81030ADF8CB
S315080084201230ADF81430AEF0E6FB044688B929469A
S31508008430304604AA39F0DEFC09E004A8AEF091FB48
S31508008440044630B92946304604AA39F0ABFC002860
S31508008450DBD129468522304693F055FC2346022176
S315080084601D201E4A06B0BDE87040A7F083B804A8D0
S31508008470AEF07AFB04460028EBD12946304604AA1A
S3150800848039F098FCE3E704A8AEF071FB044600282F
S31508008490DFD12946304604AA39F094FCD7E70023F1
S315080084A004A88DF810308DF81130AEF063FB044641
S315080084B00028CED12946304604AA39F08BFCC6E7F7
S315080084C004A8AEF095FB04460028C2D129463046DA
S315080084D004AA39F087FCBAE7685B0C089C5B0C08B1
S315080084E02DE970430D46AB680646114690B00B2B36
S315080084F000F2A080DFE803F0069E249E339E445FC8
S315080085009E707F8E002304A8CDE90433AFF019F9D5
S31508008510044638B92946304604AA3AF091FA0028A2
S3150800852040F09A8029468522304693F0ECFB234694
S3150800853002211D204A4A10B0BDE87043A7F01AB8B8
S31508008540002304A88DF81030AFF054F9044600282B
S31508008550E8D12946304604AA3AF01CFADFE7002398
S3150800856004A8CDE904338DF81830B0F0A6FD04460A
S315080085700028D7D12946304604AA3AF027FBCEE789
S3150800858000234FF000084FF0000904A8CDE9043392
S31508008590CDE90933CDE90C898DF81830ADF83830B6
S315080085A0B0F001FE04460028BCD12946304604AA8C
S315080085B03AF016F8B3E7002304A8CDE904338DF89A
S315080085C01830B0F0BAFD04460028ABD1294630462B
S315080085D004AA39F0F9FEA2E7002304A8CDE904337A
S315080085E0AFF08CF9044600289CD12946304604AAE7
S315080085F039F070FE93E7002304A88DF81030AFF029
S31508008600A9F9044600288DD12946304604AA39F02E
S31508008610EDFD84E7002304A8CDE90433AFF0C6F9DD
S31508008620044600287FF47EAF2946304604AA39F06E
S3150800863075FF74E78122294693F065FBD5E9012386
S3150800864091B2120C01929AB20291009201211D2058
S31508008650044A1B0CA6F08EFF10B0BDE8708300BF5D
S315080086609C5B0C08685B0C0870B58B6806460C4664
S3150800867086B0CBB9114605A8AEF051FF054628B914
S315080086802146304605AA9CF066FEF0B921468522A9
S31508008690304693F038FB2B4602211D200C4A06B0C3
S315080086A0BDE87040A6F066BF812293F02CFBD4E9A2
S315080086B0012391B2120C01929AB202910092012101
S315080086C01D20044A1B0CA6F055FF06B070BD00BF5E
S315080086D09C5B0C08685B0C0870B58B6806460C46F4
S315080086E086B0CBB9114605A8AEF040FF054628B9B5
S315080086F02146304605AA3CF047FDF0B921468522B9
S31508008700304693F000FB2B4602211D200C4A06B08A
S31508008710BDE87040A6F02EBF812293F0F4FAD4E9A2
S31508008720012391B2120C01929AB202910092012190
S315080087301D20044A1B0CA6F01DFF06B070BD00BF25
S315080087409C5B0C08685B0C0870B58B6806460C4683
S3150800875086B0CBB9114605A8AEF00BFF054628B979
S315080087602146304605AA9DF0BAF8F0B92146852279
S31508008770304693F0C8FA2B4602211D200C4A06B053
S31508008780BDE87040A6F0F6BE812293F0BCFAD4E9A3
S31508008790012391B2120C01929AB202910092012120
S315080087A01D20044A1B0CA6F0E5FE06B070BD00BFEE
S315080087B09C5B0C08685B0C0837B5436804463F2B7E
S315080087C0154659D8292B12D8DA1E052A42D99AB243
S315080087D0009201211D206A4A1B0CA6F0CBFEC3227B
S315080087E02146284603B0BDE8304093F08CBAA3F181
S315080087F02A02152AEBD801A050F822F01F89000892
S31508008800CF870008CF870008CF870008CF870008E2
S31508008810CF870008BF880008CF8700089F88000810
S31508008820CF8800084F8900085F8900086F8900080B
S31508008830AF880008CF870008CF870008CF870008D1
S31508008840CF8700088F880008CF8700083F8900086F
S31508008850DF880008052ABAD801A050F822F000BF20
S31508008860FF880008EF880008CF8700082F890008CE
S31508008870CF8700080F890008B3F5407FA7D10A46BD
S315080088800146284603B0BDE83040FFF787B80A46D8
S315080088902846214603B0BDE83040FFF71FB80A4610
S315080088A02846214603B0BDE83040FFF7F9B90A4625
S315080088B02846214603B0BDE83040FFF72DBA0A46E0
S315080088C02846214603B0BDE83040FFF75DBA0A46A0
S315080088D02846214603B0BDE83040FFF7B9BA0A4634
S315080088E02846214603B0BDE83040FFF7EFBA0A46EE
S315080088F02846214603B0BDE83040FFF76BBB0A4661
S315080089002846214603B0BDE83040FFF7FBBB0A46C0
S315080089102846214603B0BDE83040FFF741BC0A4669
S315080089202846214603B0BDE83040FFF709BD0A4690
S315080089302846214603B0BDE83040FFF745BD0A4644
S315080089402846214603B0BDE83040FFF7C9BD0A46B0
S315080089502846214603B0BDE83040FFF785BE0A46E3
S315080089602846214603B0BDE83040FFF7B5BE0A46A3
S315080089702846214603B0BDE83040FFF7E5BE00BFF4
S31508008980C55B0C0808B500F02DF8124B12498B424E
S3150800899012D30020114B12498B4218D3FEF7A8FEBA
S315080089A0186850F82240586840F822400132986802
S315080089B08242F5D30C33EAE70022F8E71C6844F84C
S315080089C0220001325C68A242F8D30833E4E70022A9
S315080089D0F8E700BF48510E0854510E0854510E08C6
S315080089E054510E084FF480414FF0FF3010B5114B2B
S315080089F0114A9A60D3F8882042F47002C3F8882096
S31508008A000E4A91660E4901F5005210660D485066E9
S31508008A100220C3F8D000BFF34F8FBFF36F8F012436
S31508008A204FF440330848C0F88041D36004600B61B6
S31508008A3010BD00BF00ED00E0006000080090005087
S31508008A4000800044F7FF370000E100E0014B18689A
S31508008A50704700BF50170020014B1860704700BFD1
S31508008A6050170020084B1B6F03F00703022B04D096
S31508008A70032B05D0012B05D0FEE7044B1868704779
S31508008A80034BFBE70348704700800050501700204F
S31508008A9054170020002D310108B5FFF7E3FF054BF9
S31508008AA01B6FC3F303330133B0FBF3F0024B1860BB
S31508008AB008BD00BF008000504C17002000487047D2
S31508008AC000B4C404014B1868704700BF541700204F
S31508008AD0054B1860054B1B6F03F00703032B01D1E9
S31508008AE0FFF7DABF704700BF541700200080005018
S31508008AF000487047002D31014FF0B4439868C0F321
S31508008B0004400C2822D8DFE800F009212121212180
S31508008B10071719211B1D1F000F4870479B6803F094
S31508008B204073B3F1807F13D0B3F1007F12D00B4AA4
S31508008B30002B08BF10467047094870470948704718
S31508008B400948704709487047094870470020704728
S31508008B500848704708487047405DC60000093D0050
S31508008B600024F400C0EA210180BA8C010048E8011B
S31508008B70005A620280841E0040420F00014B1868AA
S31508008B80704700BF58170020BFF34F8F0549064BA3
S31508008B90CA6802F4E0621343CB60BFF34F8F00BF8D
S31508008BA0FDE700BF00ED00E00400FA054FF00063A2
S31508008BB09A6A02F17841B1F5C04F03D21168074AA3
S31508008BC0914203D00023037083607047012202702C
S31508008BD09A6A926842609B6A9B69F5E707B0CD5E20
S31508008BE008B54FF00053024A1A60FFF7CDFF00BFE1
S31508008BF002020FF073B54F4B04461A781AB10222D7
S31508008C001A7002B070BDCDE900220028F9D00126FD
S31508008C101E7078F097FD484D484B186071F024FE99
S31508008C202B785BB900F0A2FD40B945480823454AB0
S31508008C30454900686BF00EF900B92E70434B5A6E21
S31508008C4062619B6E424AA3614FF480439366414B2F
S31508008C505968E16140499960196E2160596E6160F1
S31508008C60D3F87011A160196CE160596C21613B4918
S31508008C70086C1864496C5964012151661B6E9C0482
S31508008C8041D5374AD368D807FCD4364B1A68531CE3
S31508008C903ED04FF480139340334A13664FF4007363
S31508008CA00426314C2666236678F0A4FA01300DD0E6
S31508008CB078F0A0FA40F20113984207D04FF4005317
S31508008CC023664FF480432366C4F870610823264C54
S31508008CD0684623664FF4805323664FF00063236685
S31508008CE04FF4002301A9636678F02BFA009B2366EC
S31508008CF0019B63662B78002B83D0124B1A68226679
S31508008D005B6863667DE7194AD368D907FCD4BCE774
S31508008D10174B1B78002BC1D14FF400720C4B5A66C7
S31508008D2003F5A6235B68002BB8D14FF480120E4BCF
S31508008D301A66B3E712FD012010FD0120E83F012065
S31508008D4060170020E03F01200071080000800050F5
S31508008D50009000500080004455CEAC0000C000547E
S31508008D60000004405C1700200090004400000450F6
S31508008D7011FD012070B5224D04462E78012E02D031
S31508008D8001232B7070BD0028FCD078F033FA01302F
S31508008D900BD078F02FFA40F20113984205D0194B00
S31508008DA0194A5E66D368DE07FCD42268174B1A6632
S31508008DB062685A66A268C3F87021E2681A64226972
S31508008DC05A64E269D00744BF00229A60104B1A68B9
S31508008DD0013207D10F4A127822B90F494968C907E3
S31508008DE048BF1A6062690D4B5A66A2699A6671F0A5
S31508008DF043FD0B4B186878F0ABFC0023C1E700BFB6
S31508008E0012FD01200090004000000440008000444C
S31508008E105C17002011FD012000C00550008000509D
S31508008E20E83F012070B54FF00064A36A03F1784269
S31508008E30B2F5C04F21D21A68124B9A421DD1124E72
S31508008E40337813F0FD0F1BD11048FFF7D3FE012529
S31508008E504FF480330E4A0F49C2F88051CB60156033
S31508008E600D4A1361A36ADB69984704460748FFF76A
S31508008E7081FF04B93570204670BD4FF48174FAE756
S31508008E800024F8E707B0CD5E11FD0120C03F0120A0
S31508008E9000E100E000A000440090004413B51F4B19
S31508008EA01B7803B9FEE700231D4CCDE900336A465B
S31508008EB008231C4920686AF0CDFFF0B91A4AD2F88F
S31508008EC04031D2F840211F2B4FF0010310D9203A28
S31508008ED09340019A1343019308236A46114920686F
S31508008EE06AF06EFF4FF00053104A1A60FFF74CFE07
S31508008EF09340009A13430093EEE70D4B9842F1D145
S31508008F00094AD2F84031D2F840211F2B4FF001030D
S31508008F1002D9203A9340DEE79340ECE712FD0120A0
S31508008F206017002000710800008000440B020FF053
S31508008F300BE000F038B54FF00065AB6A044603F164
S31508008F407842B2F5C04F12D21B6B03F17843B3F5E2
S31508008F50C04F0CD20648FFF74DFEAB6A20461B6B86
S31508008F605B689847BDE838400148FFF703BF38BD3E
S31508008F70EC3F012013B54FF000640190A36A03F19A
S31508008F807842B2F5C04F15D21B6B03F17843B3F59F
S31508008F90C04F0FD20948FFF72DFEA36A01211B6BAC
S31508008FA001A89B69984704460448FFF7E3FE204654
S31508008FB002B010BD4FF48174F9E700BFEC3F012001
S31508008FC037B54FF00065CDE90021AB6A044603F1D9
S31508008FD07840B0F5C04F12D21B6B83B10948FFF732
S31508008FE009FEDDE90021AB6A20461B6B5B6A9847E0
S31508008FF004460448FFF7BEFE204603B030BD4FF4D2
S315080090000174F9E7EC3F012037B54FF0006501918F
S31508009010AB6A044603F17842B2F5C04F15D21B6B12
S3150800902003F17843B3F5C04F0FD20948FFF7E2FDC5
S31508009030AB6A20461B6B01999B6A9847044604480D
S31508009040FFF798FE204603B030BD4FF40174F9E7E8
S31508009050EC3F012037B54FF00065CDE90021AB6A3A
S31508009060044603F17840B0F5C04F16D21B6B03F1E6
S315080090707843B3F5C04F10D20948FFF7BBFDDDE9C9
S315080090800021AB6A20461B6B9B6B98470446044835
S31508009090FFF770FE204603B030BD40F20114F9E731
S315080090A0EC3F012037B54FF000650191AB6A0446E5
S315080090B003F17842B2F5C04F15D21B6B03F1784322
S315080090C0B3F5C04F0FD20948FFF794FDAB6A2046A7
S315080090D01B6B0199DB6B984704460448FFF74AFE69
S315080090E0204603B030BD40F20114F9E7EC3F0120F9
S315080090F010B40A681378022B11D01420302314797F
S3150800910013FB040307481B585079C340DB4303F09D
S315080091100103137008465DF8044B58F065BD5DF809
S31508009120044B704730C0035037B504680121054623
S315080091303A2001F08DFB012303226179207902F0A0
S3150800914051FD14223023217913FB01230E4A9B5823
S315080091506279D340DB4303F001032370A379022B22
S315080091600ED100F089FA2A460849607900F0AEFA6D
S315080091700123024661792079CDE9003302F0DAFC51
S31508009180002003B030BD00BF30C00350F190000886
S3150800919002681378022B24D014213023107913FB8C
S315080091A0001310495B585179CB40917903F00103BC
S315080091B0012912D1508843EA40034FF6E07063F064
S315080091C03F039BB2834202D11170538070474FF61A
S315080091D0DF718B42F9D10021F6E711B983F001035B
S315080091E01370704730C0035010B5012243780178D8
S315080091F0847830209A40054B00FB01331CB903F5EF
S3150800920001531A6010BD03F58253FAE700C00350F4
S3150800921010B5012243780178847830209A40054BAE
S3150800922000FB01331CB903F582531A6010BD03F520
S315080092300153FAE700C003500122437801789A40A7
S3150800924030235943014B5A50704700BF40F0035032
S31508009250102130230246007813FB00130549507885
S315080092605B58C34003F0010093780BB980F0010006
S31508009270704700BF30C003502DE9F04F9A46554B52
S3150800928085B01B7806460F461546DDF83C909DF8D6
S3150800929044B0DDF85080002B00F08C80072A00F2DD
S315080092A08B800E9B002B00F08780B9F1000F00F031
S315080092B08380129BB3F5006F7EDC012802D1109BD8
S315080092C0002B79D0444B03EB05131B7B002B75D081
S315080092D0424C102200216846BCF0B5F804EB451450
S315080092E01022002F58D139462046BCF0ACF843F27C
S315080092F010036380BBF1000F03D1E37843F0030347
S31508009300E370364A0E9B02EB451CCCE90193129B8F
S31508009310CDF800A0013BC3F30A009DF84C30690163
S3150800932003F003039B0643EA001E53582C48012EFC
S3150800933000EA03004EEA0003535041D113230CF10F
S31508009340100ECCF80C309CE80F008EE80F006FF07A
S315080093500301DCF81C20109B61F39F02012FCCF857
S315080093601C20CCF8143003D1CCF81890CCF8043073
S315080093700027194A290102EB051342F80180159ABC
S3150800938028465A60694622469F605E7302F0AAFC28
S31508009390384605B0BDE8F08F00212046BCF053F8EA
S315080093A04FF444736380BBF1000FAAD1E37843F00E
S315080093B03003A5E70B48ECE70B48EAE70B48E8E774
S315080093C0B8F1000FD4D19CF8023068F304138CF876
S315080093D00230CDE713FD01200C4001208C4001200E
S315080093E00F80FFF3028000F0018000F0078000F094
S315080093F038B5124B05461B78DBB1E0B178F0A2F917
S315080094000F4A00231146147B54B92B6001251A0113
S3150800941001EB03131D738C5078F09AF9204638BD7A
S315080094200133082B02F11002EDD178F091F90548C5
S31508009430F5E70548F3E70548F1E700BF13FD012006
S315080094400C400120048000F0028000F0018000F04A
S31508009450154B13B51868002301908DF8043078F081
S3150800946071F9124B1C7824B178F072F9104802B0E1
S3150800947010BD01221A7078F06BF90E4B01A81C7307
S315080094801C7783F82C4083F83C4083F84C4083F8DB
S315080094905C4083F86C4083F87C4008238DF80730DD
S315080094A002F0EEFB2046E2E7345C0C0813FD0120CF
S315080094B0038000F00C40012008B50A4A12785AB118
S315080094C007280BD8084A02EB00131B7B43B100217F
S315080094D002F0C8FB002008BD0448FCE70448FAE788
S315080094E00448F8E713FD01200C400120028000F033
S315080094F0018000F0078000F008B50A4A12785AB1D0
S3150800950007280BD8084A02EB00131B7B43B101213D
S3150800951002F0A8FB002008BD0448FCE70448FAE767
S315080095200448F8E713FD01200C400120028000F0F2
S31508009530018000F0078000F00D4B1B7893B10728D7
S3150800954012D889B10B4B03EB00131B7B73B10A4B83
S31508009550DA6A012303FA00F010401ABF00200B70E4
S3150800956008707047054870470548704705487047B2
S3150800957013FD01200C40012000000450028000F079
S31508009580018000F0078000F010B50B4A0C461278EF
S3150800959062B107280CD859B1084A02EB00131B7BA5
S315080095A043B102F0E7FB2060002010BD0448FCE749
S315080095B00448FAE70448F8E713FD01200C400120A7
S315080095C0028000F0018000F0078000F02DE9F843E2
S315080095D0174B1F6D5B6D1F4000D5FEE70126002562
S315080095E0144CDFF85480DFF85490374217D0C8F887
S315080095F0506023689BB1A168284601316268A16062
S315080096009847637B012B0AD148B909EB45131A7BA6
S3150800961060F341021A731A7F60F341021A77013523
S31508009620082D4FEA460604F11004DED1BDE8F8839A
S31508009630000004500C400120002004508C400120FA
S3150800964070B5044601250B4E04B970BD94FAA4F012
S31508009650B0FA80F005FA00F306EB001224EA0304D8
S315080096605368002BF0D0117B11B191689847EBE74E
S315080096709847E9E78C41012008B5192001F04AFE10
S3150800968028B14FF00072074BC3F880211A601A20E0
S3150800969001F040FE28B14FF08062024BC3F88021EA
S315080096A01A6008BD00E100E038B505460C4678F0BA
S315080096B049F80022044B03EB05135C601A73BDE8F6
S315080096C0384078F045B800BF8C410120F8B505460A
S315080096D00F46164678F036F8104B05F0FC02D3F81C
S315080096E024140023EC1804F00304144321FA04FCA0
S315080096F01CF0010F07D00133042BF3D1FF2478F0B7
S3150800970027F82046F8BDFF2CF9D00122044B03EBBD
S315080097100413C3E901761A73F1E700BF00C00350CA
S315080097208C410120074BD3F82404D3F8202403F5F1
S315080097300053104000F0553020F05020C3F82004A4
S31508009740FFF77EBF00C00350074BD3F82404D3F8B5
S31508009750202403F50053104000F0AA3020F0A02082
S31508009760C3F82004FFF76CBF00C00350024B19680A
S31508009770024B18686AF04EBA64170020601700207A
S3150800978037B5920004460D460192BCF085F8431C95
S315080097900BD060B929462046019ABBF01DFE002869
S315080097A0044808BF002003B030BD0348FBE7034860
S315080097B0F9E700BF10E000F021E000F024E000F037
S315080097C010B50446BCF060F8431C10D088B902F006
S315080097D08BFB234620F003002044984201D1002049
S315080097E010BD53F8042B0132F7D00348F8E70348B5
S315080097F0F6E70348F4E700BF0EE000F021E000F0CA
S3150800980024E000F038B141B1013AB2F5006F0448DE
S3150800981038BF00207047034870470148704700BFAB
S31508009820037000F0027000F038B504460D4677F074
S3150800983089FFA3889BB223B92B6077F089FF064876
S3150800984038BD142263889BB202FB034408342C609B
S3150800985077F07EFF0020F3E70B7000F0F8B50446BA
S3150800986016460F4677F06EFFA388E2889BB29A42A7
S31508009870054605D80023336077F06AFF1748F8BD18
S315080098801422238807F1100C9BB202FB03433A46C5
S315080098900833174603CF6745186059603A4603F1FF
S315080098A00803F6D1142238681860238828469BB224
S315080098B002FB0343083333602388E2889BB20133F3
S315080098C0B3FBF2F102FB11339BB22380A388013369
S315080098D09BB2A38077F03CFF0020D0E70A7000F027
S315080098E090F83530022B0DD114223023417F90F8A1
S315080098F0210013FB0123044A9B5823FA00F000F0C9
S31508009900010070470020704730C00350002313B58C
S315080099101D4A52F8044B94F8211081420ED00133A7
S31508009920042BF6D102B010BD0028FBD19DF80730F4
S31508009930002BF7D0A068FFF7BFFDF3E794F83530A2
S31508009940022BEFD12046FFF7CBFF637E2076022B52
S31508009950E8D194F8323003F0FF02002BE2D1A06878
S315080099600DF107018DF80720FFF7E6FD237E1BB1F1
S3150800997094F83330002BD7D00023A06884F833300E
S31508009980FFF7BAFDCEE700BF7C4A012030B5104983
S31508009990104A0B782BB9C2E90033C2E90233012316
S315080099A00B700C4C0023214651F8045B854208D005
S315080099B00133042BF8D1002154F8043B1BB942F8B3
S315080099C02100002003E001310429F5D1024830BD09
S315080099D014FD01207C4A0120027000F010B50446EF
S315080099E0FFF736FD002104F10800FFF701FD0146E7
S315080099F020B904F10C00FFF7FBFC00B1004810BDCC
S31508009A000E7000F090F8363053B9042103790A4AEB
S31508009A1003F239135B01D150022203685A61704779
S31508009A20022B07D10068816C11F0020118BF0621CC
S31508009A3077F0D1BE704700BF00C0035090F83630AB
S31508009A406BB9012203685A6102689369D907FCD584
S31508009A5004210379074AB9335B01D1507047022BB9
S31508009A6007D10068836C9B074CBF0521092177F055
S31508009A70B2BE704700C0035010B590F836300446A1
S31508009A806BB9042203685A61026893699907FCD581
S31508009A9023790C4AB9335B011021995010BD022B6A
S31508009AA0FCD10068836CDB074CBF0521062177F0E3
S31508009AB092FE237941F294425B0103F1A04303F538
S31508009AC07033E9E700C003501FB50B460A6891F8E2
S31508009AD03610184602290CBF926C9269920604D574
S31508009AE005B05DF804EB77F060BD039377F046FDAB
S31508009AF00022039B0146CDE9002203F13C00034AFC
S31508009B0079F047FD05B05DF804FB00BFC99A000867
S31508009B10012370B580F8303090F8363004460E468A
S31508009B2086B0A3B905682435204677F058FD0D4B55
S31508009B3032680393002302937368616901930123D2
S31508009B40E068009304942B4677F059FC07E0022B53
S31508009B5002D105683C35E7E7002380F8303006B0C7
S31508009B6070BD00BFA59E000801232DE9F04180F8CD
S31508009B70313090F8363004460E4688B05BBB05682F
S31508009B803C3577F0DFFD04F13C0807460DF11F016F
S31508009B90404607F081FF40B99DF81F302BB140467B
S31508009BA007F052FF204677F000FD384677F0D0FDE3
S31508009BB0204677F014FD0D4B2A46039300230293A3
S31508009BC07368216901930123A0680093049433689C
S31508009BD077F0FBFB07E0022B02D105684435D0E796
S31508009BE0002380F8313008B0BDE8F081F19B000809
S31508009BF0F0B585B0D06A03A91446FFF715FE0646E8
S31508009C00204677F0BBFC002501462346CDE90055E2
S31508009C10164A04F13C0079F0BCFC154B9E421FD055
S31508009C20039B1D619D6077F08DFD039A0646D768F4
S31508009C3027B1D2E9002329462046B847E06A03A996
S31508009C4077F0E6FCE06A83889BB263B103A9FFF765
S31508009C50EBFD20460399FFF787FF304677F078FD3E
S31508009C60012005B0F0BD84F83130F6E7C99A00083E
S31508009C700B7000F0F8B507460D461646FFF7C2FD0D
S31508009C8000286BD1152001F053FB0446FA6A938825
S31508009C909BB213B197F83230E3B197F83630F3B97F
S31508009CA03B689C6904F002041CB93846FFF7E4FED9
S31508009CB00024012387F8343097F83630CBB92E4480
S31508009CC0B542386810D183699A06FCD51CB30024BE
S31508009CD02046F8BD002CDAD0FFF778FCD6E7022B31
S31508009CE0E3D13B689C6CDDE715F8011B77F006FEAF
S31508009CF0E6E7022BEAD12E44B542386806D142F28D
S31508009D002003826C33EA0202FBD1DFE715F8011B58
S31508009D1077F066FDF0E797F8363053B910213B79AE
S31508009D200F4A03F239135B01D15008223B685A6186
S31508009D30CEE7022BCCD13868836CDB074CBF0921F0
S31508009D40214677F048FD42F2944210213B795B01A7
S31508009D5003F1A04303F570339950B9E70446B7E712
S31508009D6000C0035010B5044680B190F832302BB9C4
S31508009D70FFF7B6FD10B9A068FFF79EFB002094F820
S31508009D8032300133DBB284F8323010BD0048FCE7CC
S31508009D90027000F010B50446A0B190F832309BB1BD
S31508009DA090F83230012B05D1FFF79AFD10B9A0685B
S31508009DB0FFF7A2FB002094F83230013BDBB284F8AF
S31508009DC0323010BD0148FCE70148FAE7027000F09E
S31508009DD0057000F037B590F835500446022D1DD1B0
S31508009DE0012290F82230457E817F9A403020164B1A
S31508009DF025B900FB013303F5015305E0012D07D111
S31508009E0000FB013303F582531A60002003B030BD0E
S31508009E10247E00FB0133002CF4D1ECE7012DF4D1AC
S31508009E20037E73B911238DF80730FFF79BFF2A4687
S31508009E3020460DF10701FFF71DFF2046FFF7AAFF91
S31508009E40E3E71323EFE700BF00C00350F0B587B080
S31508009E5005461646FFF7D6FC0446F0B90493104BA0
S31508009E60CDE901166A46A86A01A903960593FFF784
S31508009E70F5FC044688B995F8303073B92846FFF7DB
S31508009E80DDFD28460099FFF743FE95F83530032B8C
S31508009E9003D028462C76FFF79DFF204607B0F0BD75
S31508009EA0017000F073B5906A01A91446FFF7BCFC6F
S31508009EB00546204677F079FB3A4B9D4232D094F816
S31508009EC03610019B00293CD12068826C12F400727E
S31508009ED02BD0354A99601A614FF40072236803F54E
S31508009EE000539A6477F02EFC01990646CD6835B181
S31508009EF04A688B682046D31A0A680969A847A06A7F
S31508009F0001A977F085FBA06A8588ADB2002D3AD005
S31508009F1001A9FFF789FC20460199FFF7F9FD3046AC
S31508009F2077F016FC012002B070BD816CC80526D5F5
S31508009F301E499A60196123684FF4807203F500532D
S31508009F40CFE702291BD12168CA6C12F400720AD025
S31508009F50154A1A6100229A604FF40072236803F5C5
S31508009F600053DA64BEE7C96CC90508D50F499A607B
S31508009F70196123684FF4807203F50053F1E7002254
S31508009F801A619A60AEE7012320462376FFF722FF7F
S31508009F9094F8353084F83050032BC0D02046FFF7AC
S31508009FA031FDBCE70B7000F00D7000F00C7000F08E
S31508009FB02DE9F04104468CB0884F04AE0D460FCF0C
S31508009FC00FC697E80F0086E80F00102200216846A2
S31508009FD0BBF039FA002C00F0FE8025B9804E3046D9
S31508009FE00CB0BDE8F081602200212046BBF02BFAB8
S31508009FF02B6820462360022384F836302B7C237195
S3150800A000FFF7C4FC06460028E9D12B7F754A84F879
S3150800A01035302B68934240F0B88056236362724B02
S3150800A02023614FF4702363610123ADF806300023E2
S3150800A03084F8316084F83060D5E90912A1620B8092
S3150800A040A16A3A204B80A16A684E8B8084F830302A
S3150800A050E2621380E26A01215380E26A938084F8FF
S3150800A060313084F8333002238DF81D30AB680693FF
S3150800A0706B8AADF82030AB8AADF81E30AB7D8DF813
S3150800A0801C30AB690993CDF82CD000F0E1FB012117
S3150800A090606A00F0DDFB2B79002B00F0818001213E
S3150800A0A0362000F0D5FBD6F8203223F0070343F01C
S3150800A0B003031022C6F820322B7C4D4F204607EBAF
S3150800A0C04313C3F89424A97B2B7C2A7B07EB431301
S3150800A0D042EA0142C3F8AC242B7CE97B6A7B253330
S3150800A0E042EA014207EB43135A602B7B0121E376D0
S3150800A0F0AB7BE3776B7B2377EB7B84F820306B7F36
S3150800A1006377AB7F84F82130EB7FA37795F820300F
S3150800A11084F8223077F0C2F9064600287FF45FAF4C
S3150800A12077F010FB2A7F8046032A40D141F29441FA
S3150800A13002202B7C07EB431358502B7C95F8200004
S3150800A140E97F07EB431341EA004103F5A55319607C
S3150800A150297CA87F07EB411741F29C416B7F43EAB4
S3150800A16000437B508DF8002006238DF810302B799C
S3150800A170286804A963B377F03CFB2046FFF72EFC5A
S3150800A1800646404677F0E4FA29E71A4A93427FF4EE
S3150800A19025AF57236362184B23614FF4801342E7B8
S3150800A1A0D6F8203223F0070343F0010381E7022A99
S3150800A1B0DAD194F821001149FFF776FAFFF75CFA2D
S3150800A1C04FF4007320462383A676FFF703FECBE7FA
S3150800A1D077F00BFBD1E70A4E01E700BF785C0C0865
S3150800A1E0037000F00000015B01000F0000800050C2
S3150800A1F000C0035000000A50010010000D99000825
S3150800A200027000F0F0B587B004461646FFF7FAFA72
S3150800A210054658BB0493194BCDE90116059394F8E6
S3150800A220363003962BBB23689B6903F0020313B9E8
S3150800A2302046FFF721FC6A46E06A01A9FFF70EFBF4
S3150800A240054698B994F8313083B977F07BFAE36A12
S3150800A25006469B889BB233B120460099FFF784FCDB
S3150800A260012384F83430304677F072FA284607B06E
S3150800A270F0BD022BDCD123689B6CD6E7017000F099
S3150800A280044BD3F88420D206FBD4D3F88400C0F359
S3150800A29081107047004000502E4B98424AD022D871
S3150800A2A02D4B984240D014D82C4B984239D00AD816
S3150800A2B02B4B984232D02B4B98422FD02A4B9842A0
S3150800A2C02CD000207047294B9842FAD1284B186F9A
S3150800A2D07047284B98422AD0274B9842F1D1244BF5
S3150800A2E0D3F880007047254B98422BD009D8244BC9
S3150800A2F0984223D0234B9842E3D11D4BD3F88C00C8
S3150800A3007047214B984221D003F5740303F5105387
S3150800A3109842D6D1164BD3F898007047144B986DCF
S3150800A3207047134B586E7047114B586F7047104B58
S3150800A330986F70470E4BD3F8840070470C4BD3F8D0
S3150800A340880070470A4BD3F890007047084BD3F83B
S3150800A350940070470048E8010024F400C0CF6A0062
S3150800A36080841E0000093D0040420F00405DC60083
S3150800A3700080E00FC0EA210180BA8C01007E5603F6
S3150800A38080D54302006CDC020090D00338B5104B30
S3150800A3900546D3F880300C4603F00303022B0BD096
S3150800A3A0032B0DD0012B0FD1FEF75CFB0E2305B155
S3150800A3B0286004B1236038BDFEF79EFB0723F6E745
S3150800A3C0FEF744FB0623F2E700231846EFE700BF33
S3150800A3D00080005038B5184B0546D3F820010C46C6
S3150800A3E000F00700062805D8DFE800F0230B0F1752
S3150800A3F0131B1F000023184605B1286004B123600B
S3150800A40038BDFEF723FB0523F6E7FEF75BFB0323C0
S3150800A410F2E7FEF771FB0723EEE7FEF769FB022377
S3150800A420EAE7FEF713FB0623E6E7FEF74BFB0423F2
S3150800A430E2E70123E0E700BF0080005038B5174B7C
S3150800A4400546D3F828310C4603F00703013B052BD4
S3150800A45020D8DFE803F003131B0F0B17FEF7F6FAF5
S3150800A460052305B1286004B1236038BDFEF7EEFA6E
S3150800A4700623F6E7FEF740FB0723F2E7FEF722FB83
S3150800A4800323EEE7FEF71EFB0423EAE7FEF730FB9D
S3150800A4900223E6E700231846E3E700BF00800050E2
S3150800A4A073B50D460021114B0191D3F8804106463C
S3150800A4B004F00304022C13D0032C0CD0012C13D166
S3150800A4C001A8FFF787FF10240EB1019B336005B181
S3150800A4D02C6002B070BDFEF70FFB07240190F3E76E
S3150800A4E0FEF706FB0190EFE70C46EDE7008000500B
S3150800A4F0002337B50193164B0546D3F820320C4690
S3150800A50003F00703042B04D8DFE803F0200B111629
S3150800A5101B0000230DB1019A2A6004B1236003B021
S3150800A52030BD002101A8FFF789FF1223F2E7FEF7E5
S3150800A530E3FA07230190EDE776F0FDFD0A23019083
S3150800A540E8E7FEF71BFB09230190E3E70123E1E7B0
S3150800A5500080005038B5104B0546D3F840310C46FC
S3150800A56003F00303022B0BD0032B0DD0012B0FD1C5
S3150800A57076F0E1FD0A2305B1286004B1236038BDF1
S3150800A580FEF7FCFA0923F6E776F0D8FD0C23F2E786
S3150800A59001230020EFE700BF00800050002337B5F5
S3150800A5A00193164B0546D3F860320C4603F00703B1
S3150800A5B0013B032B1FD8DFE803F0020E1914002114
S3150800A5C001A8FFF707FF10230DB1019A2A6004B10D
S3150800A5D0236003B030BD002101A8FFF7BBFF11239C
S3150800A5E0F2E7FEF789FA07230190EDE7FEF780FA0E
S3150800A5F002230190E8E70023E6E700BF0080005049
S3150800A600002337B50193164B0546D3F894320C460A
S3150800A61003F00703013B032B1FD8DFE803F0020E04
S3150800A6201914002101A8FFF7D5FE10230DB1019AD0
S3150800A6302A6004B1236003B030BD002101A8FFF7EA
S3150800A64089FF1123F2E7FEF757FA07230190EDE792
S3150800A650FEF74EFA02230190E8E70023E6E700BF7B
S3150800A6600080005038B5144B0546D3F800020C4656
S3150800A67000F00700042804D8DFE800F01B0A0E12D1
S3150800A68016000023184605B1286004B1236038BDBA
S3150800A69076F051FD0A23F6E7FEF770FA0923F2E78A
S3150800A6A076F04CFD0C23EEE7FEF7F6F90F23800A49
S3150800A6B0E9E70123E7E700BF0080005038B5144BEF
S3150800A6C00546D3F808020C4600F00700042804D80B
S3150800A6D0DFE800F01B0A0E1216000023184605B123
S3150800A6E0286004B1236038BD76F025FD0A23F6E715
S3150800A6F0FEF744FA0923F2E776F020FD0C23EEE78D
S3150800A700FEF7CAF90F23800AE9E70123E7E700BF46
S3150800A7100080005038B5104B0546D3F840320C4639
S3150800A72003F00303022B0BD0032B0DD0012B0FD103
S3150800A73076F001FD0A2305B1286004B1236038BD0F
S3150800A740FEF71CFA0923F6E776F0F8FC0C23F2E785
S3150800A75001230020EFE700BF0080005038B5104BFA
S3150800A7600546D3F860310C4603F00303022B0BD0E1
S3150800A770032B0DD0012B0FD176F0DDFC0A2305B192
S3150800A780286004B1236038BDFEF7F8F90923F6E717
S3150800A79076F0D4FC0C23F2E701230020EFE700BF94
S3150800A7A000800050B0F5207F1FD009D8B0F5007F93
S3150800A7B015D003D868B1B0F5C07F0AD000200CE0E8
S3150800A7C0B0F5607FFAD10B4BD3F88000C0F30110C7
S3150800A7D003E0084B186FC0F3033001307047054B90
S3150800A7E0D3F89000C0F30460F7E7024B186FC0F384
S3150800A7F08020F2E70080005002464FF48030104B6C
S3150800A80010B598660020FFF7CDFF504341F6713228
S3150800A8100C4BDC69DA635A6804F4803422F440127B
S3150800A82059B9094988428CBF4FF48010002010435B
S3150800A83058600CB10022DA6310BD0449F2E700BF84
S3150800A8400090005000000350005A6202002D3101AA
S3150800A850430905D0012B0DD0022B094B18BF002345
S3150800A86000F01F0041B103F58053012202FA00F0FF
S3150800A87018607047034BF3E703F50053F5E700BF8D
S3150800A88068800050648000501FB500218028044667
S3150800A890CDE9001100F0998029D8002800F09980A8
S3150800A8A0A0F120043D2C35D83D2C33D8DFE804F040
S3150800A8B091999199A8A8A8A8A899B23CC8603C996A
S3150800A8C09999323232323232323299999968D2991A
S3150800A8D032323232323232323232323232A8919116
S3150800A8E091CD3C3CD7774DAD323232323288B0F515
S3150800A8F0B06F00F08F802DD8B0F5207F71D00CD8BE
S3150800A900B0F5C07F65D0B0F5007F65D0B0F5807F23
S3150800A91000F08580009804B010BDB0F5607F6AD05D
S3150800A9200DD8B0F5407FF5D1FEF7B6F802464FF4DC
S3150800A9302070FFF737FFB2FBF0F0400847E0B0F5AC
S3150800A940806F5DD0B0F5A06FE4D100216846FFF7AF
S3150800A950CFFDDFE7B0F5106F77D016D8B0F5E06F0A
S3150800A96078D00AD8B0F5C06F6AD0B0F5D06FD1D11B
S3150800A97000216846FFF776FECCE7B0F5F06FC9D13F
S3150800A98000216846FFF7EAFEC4E7B0F5406F3CD001
S3150800A99013D8B0F5206F62D0B0F5286FBAD1002170
S3150800A9A0314B0391D3F8703203F00303012B02D124
S3150800A9B003A8FFF7CFFD039B3BE0B0F5486FA9D18D
S3150800A9C000216846FFF71CFEA4E7FEF74BF8009047
S3150800A9D0A0E7FEF761F8FAE7FEF744F802462046D4
S3150800A9E004E0FEF759F802464FF42070FFF7DAFE46
S3150800A9F0B2FBF0F0EBE701A8FFF7C8FC019AEEE717
S3150800AA0000216846FFF7E6FC84E700216846FFF761
S3150800AA1015FD7FE700216846FFF742FD7AE74FF00C
S3150800AA20E02302911B695B0705D5FEF735F802900E
S3150800AA30029B00936EE703A902A8FFF78BFDF7E7D1
S3150800AA4000216846FFF786FD64E700216846FFF7A0
S3150800AA5035FE5FE700216846FFF75CFE5AE70021EE
S3150800AA606846FFF79BFD55E70080005008B5802033
S3150800AA70FFF70AFF034B98429EBF4FF48032024B02
S3150800AA801A6708BD005A620200A000501FB50023CD
S3150800AA90B0F5807F019300F0C38064D85D2855D84F
S3150800AAA04C2807D82D2847D823282BD8019805B035
S3150800AAB05DF804FB4D381028F8D801A353F820F0A8
S3150800AAC017AC0008ADAA0008ADAA0008ADAA000890
S3150800AAD0C9AB0008ADAA0008ADAA00089DAC0008DD
S3150800AAE0E7AB00088DAB000893AC0008ADAA0008D8
S3150800AAF0ADAA0008ADAA0008ADAA0008ADAA0008CC
S3150800AB00A7AC000824380928D0D801A353F820F0A8
S3150800AB1017AC000817AC000817AC000817AC0008FB
S3150800AB2017AC0008ADAA00080DAC0008ADAA0008CD
S3150800AB30A9AB00084DAC00083D2800F082803E28ED
S3150800AB40B4D1002001A9FFF7E5FDAFE78028ADD114
S3150800AB505A4B1B6F03F00703013B032BA6D8DFE80C
S3150800AB6003F05350878FB0F5F06F6AD021D8B0F54F
S3150800AB70B06F4BD00FD8B0F5607F00F0858095D3C5
S3150800AB80B0F5806F47D0B0F5A06F8FD1002001A92E
S3150800AB90FFF7AEFC8AE7B0F5D06F57D0B0F5E06F97
S3150800ABA0CFD0B0F5C06F81D1002001A9FFF7D2FC44
S3150800ABB07CE7B0F5206F71D00BD8B0F5086F4AD096
S3150800ABC0B0F5106F7FF472AF002001A9FFF776FD8C
S3150800ABD06CE7B0F5406F5CD0B0F5486F63D0B0F560
S3150800ABE0286F7FF463AF0021344B0391D3F870329A
S3150800ABF003F00303012B5BD0022B14BF0B4615236E
S3150800AC0000E00523019351E70223FBE7002001A991
S3150800AC10FFF746FC4AE7002001A9FFF7DBFB45E7FB
S3150800AC2002934FF0E0231B695B0705D5FDF734FF58
S3150800AC300D230393039BE5E703A902A8FFF78AFC04
S3150800AC40F8E7002001A9FFF789FD2FE7002001A9F1
S3150800AC50FFF708FD2AE7194BD3F8003103F0030381
S3150800AC60022B07D0032B09D0012B0BD1FDF72AFFA6
S3150800AC700323C7E7FDF782FF0923C3E776F059FAEE
S3150800AC800823BFE70123BDE7184601A9FFF77EFBA6
S3150800AC900CE7002001A9FFF7D1FB07E7002001A96F
S3150800ACA0FFF77CFC02E7002001A9FFF7A9FCFDE6F7
S3150800ACB003A8FFF74FFC1123A4E700BF008000504C
S3150800ACC008B5FFF7E3FE092811D00A38012811D87C
S3150800ACD04FF48002094B4FF6FF705A6603F5D833D6
S3150800ACE05B6A13F0010F18BF4FF4FA7008BD044BE6
S3150800ACF01888FBE74FF6FF70F8E700BF0090005092
S3150800AD002E1D002038B504468020FFF7BFFE032815
S3150800AD1000F08A804FF48012544B4FF0A0615A66B7
S3150800AD2045F60E03524AC2F88030524B99624FF4E8
S3150800AD30803103F580539962936DD903FCD4916DE4
S3150800AD4011F08041FBD1D4E900031B0543EA0063F7
S3150800AD50E07B0343207B43EA0043607B43EA0033FE
S3150800AD60A07B43EA801313619069D4E904531B0658
S3150800AD7043EA856300F000400343A07E0343207E38
S3150800AD8043EA0043607E43EA00239361136AE2695B
S3150800AD90E57E002A0CBF0020082023F00F0313438A
S3150800ADA043EA8503324A03431362E369324D002BB3
S3150800ADB03BD194F82430916A94F82000DB000D40CA
S3150800ADC043EA401394F821102B4343EA011343F452
S3150800ADD080339362294B916D33EA0101FBD14FF021
S3150800ADE08071244881621369A56823F4700343EAD5
S3150800ADF0055313614FF00043836194F822300BB971
S3150800AE001F4B996294F823303BB94FF480321C4BA0
S3150800AE109A62174A936D5B00FCD494F825301BB1EF
S3150800AE20134B184AC3F8802038BD022B08D111618C
S3150800AE30154891614FF408524FF47F4176F042FC71
S3150800AE400B4994F822308A6A94F820001B061540AC
S3150800AE5043EA401394F824202B4343EAC20394F8A8
S3150800AE60232043EA02438B62D7E700BF00900050D5
S3150800AE700040005A0050005AC7FFFEFE03000100BA
S3150800AE800060005AF1A7FFFF3440005A37B5194C45
S3150800AE90A26AA36D13F4803F18BF4FF48031164B96
S3150800AEA018BF99624FF080719962144BA56993F99E
S3150800AEB0003025F47F050344000280B225F47F455F
S3150800AEC083F30803284340EA0340A0610C48019233
S3150800AED076F0F8FBA36D019A13F4803F07D04FF480
S3150800AEE08031074803B0BDE8304076F0EBBB03B0CD
S3150800AEF030BD00BF0040005A0050005A481D0020CF
S3150800AF002840005A014B93F900007047481D00205D
S3150800AF104FF480300E490F4B8A6A9862886D00F0AC
S3150800AF2003000328FAD14FF080709862896D0121D9
S3150800AF301965074B996D8907FCD4996D8807FCD567
S3150800AF40996D8907FCD50449044876F0BBBB00BF58
S3150800AF500040005A0050005A000001012840005ADB
S3150800AF60014B1880704700BF2C1D00204FF480024B
S3150800AF7008B5184B5A660223174A5360936813F4A8
S3150800AF808033FBD1012822D1FDF79CFD134B984253
S3150800AF9015D003F5122303F5F863984213D0104B26
S3150800AFA000EB8002400AB3FBF0F0520A0A4BDA6261
S3150800AFB0012218635A620022074B5A6008BD45F6FB
S3150800AFC07A10084AF2E745F61A00074AEEE753628E
S3150800AFD0F1E700BF009000500040025000F049021F
S3150800AFE064666666D8B80500BBCF0500B0F5207F55
S3150800AFF010B50C4657D008D8B0F5007F48D003D80E
S3150800B00030B3B0F5C07F23D010BDB0F5607FFBD15B
S3150800B01029492A48D1F8FC2012F080721EBFD1F8BF
S3150800B020FC3023F08073C1F8FC30D0F88030611E04
S3150800B03023F0300444EA0114C0F88040002AE3D023
S3150800B0401D4AD2F8FC3043F08073C2F8FC30DBE7C7
S3150800B05076F049FB76F055FB4FF48031184B174ACA
S3150800B0601967136F611E23F4704444EA01341467A8
S3150800B070FDF712FD0446FFF703F9C0F10201204669
S3150800B08076F039FB00F02EF8BDE81040FFF7EEBC6D
S3150800B0900A4A0139D2F8903023F0F85444EA016498
S3150800B0A0C2F89040B0E7054B013C196F21F4806166
S3150800B0B041EA84241C67A7E700ED00E00080005001
S3150800B0C00090005008B50121022000F0A5F976F09D
S3150800B0D00AFB76F016FB4FF48032014B1A6708BD5F
S3150800B0E00090005008B54FF4C070FFF7CDFBBDE8DF
S3150800B0F00840044988428CBF022101214FF4207080
S3150800B100FFF774BF80F0FA024FF4C02201212DE93F
S3150800B110F04105466A4B5A666A4A03F598335C68F5
S3150800B12051605E6816F00206FBD1FFF7A9F8012800
S3150800B130286805D1644B984202D90020BDE8F08101
S3150800B140624A002311461768B84202D35768B842C4
S3150800B15005D90133192B02F11002F4D1002301EBB2
S3150800B1600313D3E9028028B1FFF796F800F07F00B1
S3150800B17048EA00088020FFF789FC05285FD176F0A9
S3150800B180B2FA76F0BEFA4FF480324D4B4FF4C070E7
S3150800B1901A67FFF707FB012806464CD102214FF430
S3150800B1A0C070FFF723FF01274948C16811F006015F
S3150800B1B0FBD1D0F808C0C0F80880836808F4F812F4
S3150800B1C003F4F8139A424ED1AA88EB8843EA02435D
S3150800B1D0404AD360AB68032B33D1A2F5A032D2F82C
S3150800B1E0003123F0030343F00103C2F800312B7D3D
S3150800B1F0287B002B6B7D14BF04220022002B18BF6E
S3150800B20040212B694FF0000843EA40031343314AB3
S3150800B2100B4393602868FDF71FFC0722294B1A6128
S3150800B2200122A3F580535A60A3F580531C6914F0D4
S3150800B2300704FBD01EE0022801D10421AFE700274E
S3150800B240B2E7092B07D1244AD2F8003123F00303C9
S3150800B25043F00203C9E7082BC9D11F4AD2F80031C7
S3150800B26043F00303C1E714F001044FF00108C0F8E6
S3150800B27008C0D2D18020FFF709FC052817D127B1CD
S3150800B28031464FF4C070FFF7B1FEFDF705FC0546E1
S3150800B290FDF7DCFBFDF7DAFBFEF7F2FFC0F1020172
S3150800B2A0284676F028FAFFF71DFFFFF7DFFBB8F10F
S3150800B2B0000F7FF442AF631E584258413EE700BF75
S3150800B2C00090005000E00150005A6202985C0C0899
S3150800B2D00000015000C00150008000500028ABBF9C
S3150800B2E000F16040054B00F5614000F00F00ACBF6F
S3150800B2F090F80003185C0009704700BF14ED00E0E1
S3150800B300034B5868C0F30800003818BF012070477F
S3150800B31000ED00E0054B420953F8223000F01F000B
S3150800B32023FA00F0C04300F00100704700E100E096
S3150800B330014608B5EFF31083DB0702D50122104654
S3150800B34008BDFFF7E7FF02460028F7D10846FFF7D2
S3150800B350C5FF0146EFF3118313B1B0EB131FEDD20E
S3150800B360074B5B68C3F30803002BE8D0103B58B2C1
S3150800B370FFF7B4FF88428CBF00220122DFE700BF37
S3150800B38000ED00E0024A536B0342FCD1704700BF50
S3150800B39000400950044A4178536F23F4407343EA46
S3150800B3A001235367704700BF0040005010B50A4A92
S3150800B3B00446136943F00403136106F073F976F043
S3150800B3C0CAF930BF76F0C8F906F080F91CB9BDE8AD
S3150800B3D01040FDF761BB10BD00ED00E010B5084A4E
S3150800B3E00446136943F00403136106F05BF930BFA2
S3150800B3F006F06CF91CB9BDE81040FDF74DBB10BD51
S3150800B40000ED00E0034A0179D36E23F030030B43C5
S3150800B410D366704700400050F8B504461C4BD3F875
S3150800B4208420D106FBD4D3F88430C3F381139C421D
S3150800B4302CD0FDF717FB012C064602D1214676F0E3
S3150800B4405AF976F078F94FF00072124B07465A66A9
S3150800B450204676F084F94FF480630D4D621E9340C2
S3150800B4602B676B6E9A0103D4D5F884309B060AD5F0
S3150800B470384676F064F9022C08D13046BDE8F84023
S3150800B480002176F038B9D5F88430EAE7F8BD00BF70
S3150800B490004000500060005007B518B90191FDF74B
S3150800B4A0E1FA0199064B1B7843B1064B984205D839
S3150800B4B0012003B05DF804EBFFF7AEBF0220F8E702
S3150800B4C015FD0120005A62020278034B0121002073
S3150800B4D01A70FFF7E1BF00BF15FD01204FF00042CB
S3150800B4E038B5284B28495A664AF6CD334D6C04467A
S3150800B4F005F001050B6460BB0120FFF743FF4B68AD
