:100000000000042009A6010005A60100B98407002C
:10001000B159000005A6010005A6010005A60100D2
:1000200005A6010005A6010005A60100F1A8010032
:1000300005A601008C000020B1A90100794E010045
:1000400005A6010035620C0005A6010005A6010009
:10005000815A0C008D620C0041620C0059620C0048
:1000600039620C00E13400004D36000005A60100A5
:100070005920000005A6010005A6010005A6010003
:1000800005A6010005A601006D36000005A60100C9
:1000900005A6010005A6010005A6010005A60100B0
:1000A00005A6010005A6010005A6010005A60100A0
:1000B00091620C003D620C00D5630000CD620C0023
:1000C00005A60100B1490C0005A6010005A6010026
:1000D00005A6010005A6010005A6010005A6010070
:1000E00005A6010005A6010005A6010005A6010060
:1000F00005A6010005A6010005A6010005A6010050
:1001000005A6010005A6010005A6010010B5054CD5
:10011000237833B9044B13B10448AFF300800123B3
:10012000237010BD0008002000000000C4860E00EF
:1001300008B5034B1BB103490348AFF3008008BD6A
:100140000000000004080020C4860E00A3F5803AD9
:10015000704700BF174B002B08BF134B9D46FFF79E
:10016000F5FF00218B460F461348144A121ACDF0B2
:100170004FFB0E4B002B00D098470D4B002B00D0AF
:1001800098470020002104000D000D48002802D0EF
:100190000C48AFF30080CDF06FFA2000290001F089
:1001A000C3FDCDF0DFF800BF000008000000000034
:1001B000000000000000042000080020A41002201D
:1001C000000000000000000008B517F0D3FC08BDD7
:1001D000006918B108B502F011FF08BD704708B5F5
:1001E0000023C360836000220023C0E9002300696C
:1001F00010B111B102F0F8FE08BD02F0FAFEFBE703
:1002000008B59FED077B80ED007B00228260C26015
:1002100001611146FFF7E3FF08BD00BFAFF30080A7
:100220000000000000000000836823B370B582B0B6
:100230000446C368ABB1104B19680B68DB686846AD
:100240009847009E019D206902F0DDFE58B1A1682B
:10025000236862685B1842F10002B34272EB050347
:1002600003D302B070BDE168F2E72046FFF7B0FFAC
:1002700026606560F5E77047EC02002008B58160F4
:10028000C260FFF7D1FF08BD08B50A46FFF7F6FFC9
:1002900008BD000008B50146054877F0CDFF4FF0D6
:1002A000300383F31188BFF36F8FBFF34F8FFEE7E7
:1002B000F4EA0C0008B5FFF7EDFF0000124A12F057
:1002C000070F1ED0D11D21F00701C1F5A043134433
:1002D0000A460E480260002141601344083B23F0A7
:1002E00007030B48036059601960991A5160136045
:1002F000084B1960084B1960084B4FF000421A6018
:1003000070474FF4A043E4E7200800203458002051
:100310001C080020285800202458002020580020C5
:1003200010B560B3044616F07DF954F8043C154A44
:10033000126813420FD054F8081CC9B14FF03003B3
:1003400083F31188BFF36F8FBFF34F8F0E490F48B0
:10035000CDF054FDFEE74FF0300383F31188BFF377
:100360006F8FBFF34F8F0A490848CDF047FDFEE776
:1003700023EA0203A3F1080416F00EFA00E00024B9
:10038000204610BD2058002070EB0C0054EB0C00F0
:1003900024EB0C00014B1868704700BF2458002064
:1003A000014B1868704700BF2858002008B51AF0A4
:1003B000B1FA034B1A68034B1A601AF0D5FA08BD5C
:1003C0002458002028580020F8B5074616F02AF9CE
:1003D000174B1B6893B14FF0FF3600252C4604E005
:1003E0001B68144A12689A420CD001345A68AA4217
:1003F00000D91546B242F3D21646F1E74FF0FF3668
:1004000000252C4616F0C8F97D60BE60FC601AF02D
:1004100081FA094B1B683B60084B1B687B61084BEA
:100420001B68BB61074B1B683B611AF09DFAF8BD66
:10043000345800201C080020245800202C5800208C
:10044000305800202858002010B588B00446164BBC
:100450001B6893B1144B1A461B68A342FBD3516827
:100460005018A0420DD06168601883420ED02360FE
:10047000944200D0146008B010BD01A8FFF7A4FF9B
:10048000E8E76068014451601446ECE707480068FB
:10049000834206D05B681944616013681B6823605F
:1004A000E6E72060E4E700BF345800201C08002085
:1004B00038B5044616F0B6F8444B1B68EBB1444B14
:1004C0001B681C421CD1631E13F10A0F0BD804F1E8
:1004D000080214F0070F05D022F0070308339342F7
:1004E00060D91A4682B916F057F9002578F024FB36
:1004F00015F0070F5CD1284638BDFFF7DFFEDEE7B9
:1005000016F04AF90025F1E7324B1B68934202D3FB
:1005100031490C6805E016F03FF90025E6E7214671
:100520001C466368934202D22368002BF7D1274B05
:100530001B68A34218D00D68083523680B606368F8
:100540009B1A102B18D9A01810F0070F10D04FF0DD
:10055000300383F31188BFF36F8FBFF34F8F1F49B1
:100560001F48CDF04BFCFEE716F016F90025BDE75D
:1005700043606260FFF768FF626816490B689B1A68
:100580000B60184909688B4201D216490B60104B69
:100590001B681343636000232360134A136801330D
:1005A000136000E0002516F0F7F8002DA0D19DE7BC
:1005B0004FF0300383F31188BFF36F8FBFF34F8F7A
:1005C0000A490748CDF01AFCFEE700BF1C080020CE
:1005D00020580020245800203458002090EB0C00B4
:1005E00054EB0C00285800202C580020CCEB0C00B9
:1005F00038B501FB00F419B1B4FBF1F181420AD125
:100600002046FFF755FF054618B122460021CDF0E0
:10061000FFF8284638BD0025FBE7000000283CD045
:1006200038B50446A0F1080550F8043C1B4A12688E
:1006300013420FD050F8081CC9B14FF0300383F3B8
:100640001188BFF36F8FBFF34F8F15491548CDF059
:10065000D5FBFEE74FF0300383F31188BFF36F8FB4
:10066000BFF34F8F10490F48CDF0C8FBFEE723EAD8
:10067000020340F8043C15F0D5FF54F8041C0B4A63
:1006800013680B4413602846FFF7DEFE084A136820
:100690000133136016F080F838BD704720580020F1
:1006A00070EB0C0054EB0C0024EB0C0024580020E1
:1006B00030580020F8B505460C46FFF731FED8B19A
:1006C0000746A4B1A04201D12E461AE021460120DE
:1006D000FFF78EFF0646A0B13A46A74228BF224642
:1006E0002946CDF06DF82846FFF798FF09E0284627
:1006F000FFF794FF002604E021460120FFF778FF72
:1007000006463046F8BD08B5FFF7D2FE08BD08B56D
:10071000FFF784FF08BD08B5FFF7CCFF08BD08B59B
:100720000846FFF7F0FF08BD08B50846FFF7EFFFE2
:1007300008BD08B508461146FFF7EDFF08BD08B52E
:1007400005F06EFE12F022FC02F024F977F068FD4D
:1007500034F098FE32F0E6FE33F0A4FA08BD10B58E
:1007600082B00022ADF8062003689C680DF10603F4
:10077000A047192802D020B1002000E0012002B0DB
:1007800010BD0120FBE7052B01D8002070472F206A
:1007900070470000014B0360704700BF68EE0C001B
:1007A000024A0260024A0260704700BF8CEE0C00F1
:1007B00068EE0C00024A0260024A0260704700BF05
:1007C00078EE0C006CED0C00024A0260024A0260F6
:1007D000704700BF48EE0C0080ED0C00034A026039
:1007E000034A0260034A0260704700BFE8F60D004A
:1007F00034F60D0014EE0C00024A0260024A026058
:10080000704700BF14FA0D0034EE0C0008B5024822
:1008100079F042FA08BD00BFB49D012008B5024836
:1008200079F041FA08BD00BFB49D012008B501F080
:1008300091FF08BD038848F20102934204D048F2B8
:100840000202934212D0704790F90820012AF6D193
:1008500010B5094877F0F0FC49F09CF803685C6932
:100860000023064A40F6B831A04710BD90F9093080
:10087000012BE8D1ECE700BF0CEC0C002D080000C8
:1008800010B50446034B03603821CBF047FE2046E9
:1008900010BD00BF68EE0C0010B50446044B0360A9
:1008A000044B03603821CBF039FE204610BD00BF59
:1008B0008CEE0C0068EE0C0010B50446044B03608F
:1008C000044B03600421CBF029FE204610BD00BF7D
:1008D00078EE0C006CED0C0010B50446044B036080
:1008E000044B03600821CBF019FE204610BD00BF69
:1008F00048EE0C0080ED0C0008B5104B0360D0F8FA
:10090000D4317BB9D0F8483173B9D0F804316BB920
:10091000D0F8983063B9436D63B9036963B9084B84
:10092000036008BDCCF0EAFCCCF0E8FCCCF0E6FCBF
:10093000CCF0E4FCCCF0E2FCCCF0E0FC38E90D00BB
:10094000F0EC0C0038B504460C4B036043688BB1E7
:10095000437C4BB9C5683DB135B12B681B6828464F
:100960009847284675F064FE0023E360637423749F
:1009700023726360024B2360204638BDF8960D0059
:10098000DCED0C00406818B108B577F0EDFB08BD50
:1009900003207047406858B100B583B04FF0000C99
:1009A0008DF807C032B177F0B1FB03B05DF804FBFE
:1009B000032070470BB12F20F7E70DF10702F2E794
:1009C00070B582B00446A34B1B78BFF35B8F13F066
:1009D000010F45D0A04B1B78BFF35B8F13F0010FC5
:1009E0004CD09E4B1B78BFF35B8F13F0010F53D09D
:1009F0009B4B1B78BFF35B8F13F0010F6AD0994BB1
:100A00001B78BFF35B8F13F0010F00F0D180964B82
:100A10001B78BFF35B8F13F0010F00F0DD80934B69
:100A20001B78BFF35B8F13F0010F00F0EB8023699D
:100A3000002B00F0F680236B002B00F0F780636B37
:100A4000002B00F051818A4D2169284681F056FC27
:100A5000284680F099FC002800F0598102B070BD52
:100A60007C48CBF05DFD0028B4D07A48CBF064FD23
:100A7000804A81498148CBF04CFDABE77648CBF00A
:100A80004FFD0028ADD07448CBF056FD794A7C4923
:100A90007C48CBF03EFDA4E77048CBF041FD002838
:100AA000A6D0794D794B2B60794B2B6000236B607E
:100AB0002B72EB602B616B61AB61EB612B6285F894
:100AC00024306648CBF038FD6A4A72492846CBF09C
:100AD00020FD8DE76248CBF023FD00288FD06448CD
:100AE0006D4B0360032383800223C3800025856050
:100AF0006A4A0260C5601422009200F1280200F1E7
:100B00002C01103046F0CCFC2B46002B01DB013BC6
:100B1000FBE7634A142300930223111DA2F118007E
:100B200046F0BEFC0023002B01DB013BFBE75D4AE6
:100B3000282300930223111DA2F1180046F0B0FCF7
:100B40000023002B01DB013BFBE7574A14230093F2
:100B50000223111DA2F1180046F0A2FC0023002B75
:100B600001DB013BFBE7514A382300930223111DAF
:100B7000A2F1180046F094FC0023002B01DB013B9E
:100B8000FBE74B4A1C2300930223111DA2F118001E
:100B900046F086FC0023002B01DB013BFBE73048DD
:100BA000CBF0CAFC334A43493148CBF0B2FC26E7CC
:100BB0002C48CBF0B5FC00283FF429AF3E4D3F4B0D
:100BC0002B603F4B2B602748CBF0B6FC294A3D49B0
:100BD0002846CBF09EFC1AE72348CBF0A1FC002866
:100BE0003FF41DAF384D394B2B60394B2B60394BDF
:100BF0002B601D48CBF0A0FC1E4A37492846CBF09D
:100C000088FC0CE71948CBF08BFC00283FF40FAFB1
:100C10001648CBF091FC174A30493148CBF079FCAB
:100C200005E7164B2F4A5A60236104E72269154BEA
:100C30005B6833B1032000287FF410AF114B2363AE
:100C4000FDE6104B0020187258745A60D860187472
:100C5000F1E700BFB05A0020AC5A0020805A0020B3
:100C6000545800204C580020405800203C58002088
:100C70005858002000000020C90700001C00002078
:100C80004509000008000020845A0020A0ED0C0057
:100C900048EC0D00510D0000F0EC0C0038E90D009F
:100CA000C45800200859002074590020B859002069
:100CB000445A0020F9080000505800206CED0C0048
:100CC00078EE0C00B50700004458002014EE0C002C
:100CD00034F60D00E8F60D00DD070000F90700000E
:100CE000040000202C4C01202569144B5B6833B1B3
:100CF000032000287FF4B2AE104B6363A3E60F4ECF
:100D000033689B6A3046984775600020F1E70C4BCA
:100D1000E361236983B10B4A5360002000287FF40C
:100D20009DAE084B63614DF07DFC2062064B636213
:100D3000064BA361002091E62F20EFE7845A0020A4
:100D4000585800204458002004000020505800202B
:100D500010B50446124B0360436823B1104B9B6AE5
:100D600098470023636000222262E06918B175F0A1
:100D70005FFC0023E3610022A261606918B175F095
:100D800057FC0023636100222261E06818B175F00E
:100D90004FFC0023E360034B2360204610BD00BFDF
:100DA00048EC0D00A0ED0C0010B5134B0360D0F81B
:100DB000D431ABB90446D0F848319BB9D0F80431EE
:100DC00093B9D0F898308BB9436D8BB903698BB95F
:100DD0000A4B03604FF40A71CBF0A0FB204610BD14
:100DE000CCF08CFACCF08AFACCF088FACCF086FA07
:100DF000CCF084FACCF082FA38E90D00F0EC0C006B
:100E000010B50446144B0360436823B1124B9B6A30
:100E100098470023636000222262E06918B175F0F0
:100E200007FC0023E3610022A261606918B175F03C
:100E3000FFFB0023636100222261E06818B175F0B6
:100E4000F7FB0023E360054B236028212046CBF00D
:100E500065FB204610BD00BF48EC0D00A0ED0C0066
:100E600038B504460E4B036043688BB1437C4BB9E5
:100E7000C5683DB135B12B681B68284698472846A0
:100E800075F0D6FB0023E360637423742372636000
:100E9000044B236014212046CBF040FB204638BD94
:100EA000F8960D00DCED0C0008B50A4877F0C4F99F
:100EB000094879F0C4FF00B108BD0121064879F066
:100EC000DBF80028F8D1054877F0B6F9044878F047
:100ED000C1FEF1E734EC0C00108D012054EC0C0045
:100EE000B49D012030B585B00446394939480BF02E
:100EF00085FF394D284677F09FF92146374877F02E
:100F00009BF9284677F098F9354877F095F9002154
:100F1000084646F03DFA08B105B030BD314B1B78AC
:100F2000002B3DD000200028F6D121462E4878F035
:100F300053FBFFF7B9FF0028EED12C4877F046FCB1
:100F40002B4B1B78BFF35B8F13F0010F31D0294D72
:100F50002846FFF735FD0024019402940394264BA4
:100F60000193264B0293264878F0D8FE039001ABFC
:100F7000AB62294623488AF045FD1C4D284677F090
:100F800036FC22462049284677F048FB1F4877F078
:100F900053F9284677F0E0FC0028BDD10020BBE7DC
:100FA000104D284677F030FDB0FA80F35B092B70C6
:100FB000B9E70F48CBF0B4FA0028C8D00C48CBF002
:100FC000BBFA134A13490B48CBF0A3FABFE700BFA3
:100FD00001740400F973040070EC0C00A4EC0C0024
:100FE000B0EC0C00304C0120048D0120384C012065
:100FF000B45A0020240000200D0800001D08000045
:10100000108D012080C0012035080000C0EC0C00CC
:1010100000000020A107000008B576F00BFE08BD17
:10102000B0F5803F2CBF0020012070474068E0B140
:1010300070B584B01D4600238DF80F30BAB100237F
:101040000293019302AB00932B8877F041F804469A
:10105000192800D030B9029E3046FFF7E1FF68B989
:1010600000262E80204604B070BD032070472B88D8
:101070000BB12F20F7E70DF10F02E0E7B6B2F0E772
:1010800010B50446054B0360054B0360054B036038
:101090000821CBF043FA204610BD00BFE8F60D0052
:1010A00034F60D0014EE0C0010B50446044B03603A
:1010B000044B03600421CBF031FA204610BD00BF81
:1010C00014FA0D0034EE0C00014BFF221A70704729
:1010D0005C00002010B50C4630B101280CD014B9CA
:1010E000094B0122DA7010BD084877F0A5F80121FC
:1010F0000748FFF774F8F2E7064877F09DF80021FB
:101100000348FFF76CF8EAE7C06C002098EE0C008B
:10111000A86C0020ACEE0C0010B500221446038829
:10112000022B04D033B140F203746CB110BD0279CC
:101130008168FAE7094800F03CFC10B10021012267
:10114000F3E700210A46F0E7044800F0E7FC002836
:10115000ECD1034877F070F8E8E700BFD46C0020CA
:10116000C0EE0C0008B528B1012807D00A4BDB7887
:1011700043B908BD094877F05FF8F7E7084877F00A
:101180005BF8F3E700220749074877F053FB024B6F
:101190000022DA70EDE700BFC06C0020ECEE0C001E
:1011A000F8EE0C00AD110000384C012010B50948D4
:1011B00000F0FFFB044628F0CFF90023224601216E
:1011C00028F054FA00B910BD0146034877F034F80E
:1011D000F9E700BFD46C002004EF0C00012800D018
:1011E00070474FF6FF739942FAD110B584B00A4C9C
:1011F000002303930293094B019302230093084BAE
:10120000084A0121204625F013FC074A07492046D9
:10121000CBF07FF904B010BD8C6C00205912000097
:101220004512000031120000000000206D6A02002B
:1012300008B5034A02211D2046F036FA08BD00BF5A
:101240001CEF0C0008B5034A02211D2046F02CFAC1
:1012500008BD00BF2CEF0C0070B50446037D224A88
:1012600013700B2B10D0204B1B78FE2B23D015D8DE
:10127000022B32D848F08EFB03685D6923461B4A77
:1012800041F28831A84770BD837D194A02211D2093
:1012900046F00AFAA27D144B1A70E4E7FF2B1CD12A
:1012A00048F078FB03689B692246104998470E4B2B
:1012B000FF221A70E7E748F06DFB03689B690B4D4E
:1012C00022462946984748F065FB03685E69234635
:1012D0002A464FF47A71B047D5E7064A02211D200D
:1012E00046F0E2F9CFE700BF5C000020C910000023
:1012F0003CEF0C0090EF0C0000B585B0002300938C
:10130000134B144A10210A2014F0FEF9124B1860F6
:1013100098B1124B0293124B0193012300930023C7
:101320004FF480620F49104815F076F80F4B1860A3
:1013300058B1002005B05DF804FB0D4876F07CFF45
:1013400040F20170FEF7B6FFE3E740F20270F1E70A
:10135000385C0020985B0020885B0020D05A002079
:101360008C5C0020CCEF0C003D1700008C5B002053
:10137000A8EF0C0070B5A6B003462B4A00920022DD
:1013800001212A4816F038F9294B1860002837D077
:101390002849294876F050FF284800F0CDFA064643
:1013A000002835D1254D264A2649284600F0FEFA68
:1013B000FEF70AFF24492548FEF722FF244C254961
:1013C0002046FEF71DFF284600F0F3FA01462046AE
:1013D000FEF705FF75F092F80368D3F8843098475C
:1013E00005AB0393812304934FF0020103A888F017
:1013F00077FFA0B9039801F001FB304626B070BD1D
:10140000154876F019FF40F20470FEF753FFBFE76E
:10141000124876F011FF3046FEF74CFFC2E7104845
:1014200076F00AFFE9E700BFFD160000D0EF0C00E0
:10143000905B0020F4EF0C0000F00C00D46C002056
:1014400065110000D510000048170D00B85A0020A3
:10145000A86C002060170D00D8EF0C0020F00C00E5
:101460003CF00C0010B582B00446002200921346F6
:1014700003210848006816F0DBF818B10023A370B8
:1014800002B010BD044876F0D7FE40F20670FEF7B9
:1014900011FFF3E7905B002054F00C0030B583B0EF
:1014A00004460D46114B186816F076FA70B964239D
:1014B000009300232A4604210C48006816F0B8F86F
:1014C00001280AD10123A37003B030BD084876F08B
:1014D000B3FE2046FFF7C6FFE9E7064876F0ACFE0C
:1014E00040F20570FEF7E6FEECE700BF905B0020DF
:1014F0006CF00C0088F00C0038B50388012B0BD180
:101500001A4B9B781BB1194A5278012A05D01BB19E
:10151000164B5B78022B22D038BD40F6B831144808
:1015200076F08AFE114C40F6B8312046FFF7B6FF40
:10153000022363700F4D00212846FEF750FE0E4C2B
:1015400000212046FEF74BFE4FF4FA712846FEF7C5
:101550009BFE4FF4FA712046FEF796FEDCE7034B44
:1015600000225A7005488AF0B5F9D5E7C06C002012
:10157000A4F00C00B85A0020A86C002080C0012004
:1015800010B50379012B0CD0234B9B781BB1224A59
:101590005278012A16D01BB11F4B5B78022B29D041
:1015A00010BD1D4B9B78002BFAD11B4B5B78002B99
:1015B000F6D1194C40F6B8312046FFF76FFF0123F2
:1015C0006370EDE7144C2046FFF74CFF0023637077
:1015D000124878F01CFC48B9114C0121204677F0E4
:1015E000EBFF0021204677F0EFFFD9E70D4876F0BA
:1015F00023FED5E70C4800F0DCF901460B48FEF766
:10160000EEFD054C2046FFF72DFF002363700848D0
:1016100076F012FEC4E700BFC06C0020108D0120E0
:10162000048D0120E4F00C00D46C0020A86C002094
:1016300024F10C0000B583B0154B1B6823B3EFF306
:10164000058343B901221248006814F029F9B8B1A2
:1016500003B05DF804FB0023019301AA0C48006865
:1016600014F04CFA019B002BF1D04FF0E0234FF027
:101670008052C3F8042DBFF34F8FBFF36F8FE6E79F
:10168000044876F0D9FDE3E7034876F0D5FDDFE7BF
:10169000885B002044F10C0074F10C0011B300B51C
:1016A00085B00846002300930193029303938DF8BD
:1016B00004200D4B994205D00C4B98420BD005B03D
:1016C0005DF804FB012AF7D1094B039369460948E9
:1016D000FFF7B0FFF3E7084B039369460548FFF7B0
:1016E000A9FFECE7704700BF30170D0018170D0079
:1016F00019110000C06C00208115000000B585B0F4
:101700000123ADF800300190044B0393694604486F
:10171000FFF790FF05B05DF804FB00BFF91400006F
:10172000C06C002008B5CB6813B10846984708BDC7
:10173000014876F081FDFAE79CF10C0010B584B009
:101740004948FFF717FE18B9484876F075FD70E074
:101750000446474876F070FD2046FEF7ABFDF3E700
:10176000444877F03AF820BB3F4B5B78022B5AD0C5
:10177000414BDB7D002B33D1404B1B78FF2B09D035
:10178000002B33D03D4B1B78012B35D03B4B1B78C6
:10179000022B38D03A4B1B78002B3CD0394B1B78AE
:1017A000002B38D0322240F2B6313748FEF766FDC2
:1017B00039E0364C204678F02AFB314B1870204631
:1017C00078F0D4FA2F4B1870314877F00DFF0038BD
:1017D00018BF01202F4B1870264877F008F8C3E790
:1017E000FA2211462848FEF749FDC5E73222114684
:1017F0002548FEF743FDC5E74FF47A7211462248AB
:10180000FEF73CFDC2E74FF42F724FF496711E486D
:10181000FEF734FDBEE71F4B1B78EBB16422114687
:101820001948FEF72BFD1848FEF7FEFC1A48FEF794
:10183000FBFC0A226946194B186814F0EDF90128DF
:101840008ED169460848FFF76DFF00226946134BA9
:10185000186814F0E1F9F2E740F2B63232210A4892
:10186000FEF70CFDDFE700BFC06C0020E4F10C00C8
:10187000CCF10C00384C01208C6C00205C00002066
:10188000885C0020945B0020B85A0020108D012055
:10189000048D0120955B0020A86C0020885B00204F
:1018A00008B54FF6FF710120FFF798FC08BD000056
:1018B00000B585B016F092F80123ADF80030019024
:1018C000037D43B1084B039369460848FFF7B2FE16
:1018D00005B05DF804FB437D13B1054B0393F3E7BB
:1018E000044B0393F0E700BF911B0000C06C002085
:1018F000B51B00004D1A0000012800D070474FF6BC
:10190000FF739942FAD110B582B0074C00230093BF
:10191000064A0121204628F025F9054A05492046B6
:10192000CAF0F7FD02B010BDC46C0020991A000087
:1019300000000020899B020030B585B00446164B9C
:101940000093034600220121144815F055FE144B64
:101950001860C8B1134D284676F038FF27F0FCFD1B
:101960000DF10F02012127F00DFE284676F03FFF12
:101970009DF80F3073B10323A370002020752073EE
:101980002061607505B030BD074876F055FC40F227
:101990000470F7E70123EFE7B1180000F8F10C003D
:1019A000EC6C0020384C012004F20C004160826095
:1019B00070478078032814BF002001207047000082
:1019C00000B583B000220092134603210748006847
:1019D00015F02EFE10B103B05DF804FB044876F05C
:1019E0002BFC40F20670FEF765FCF4E7EC6C00207F
:1019F00024F20C0030B583B005460C46104B186835
:101A000015F0CAFF60B96423009300232246042125
:101A10000B48006815F00CFE012808D103B030BD5A
:101A2000084876F009FC2846FFF7CAFFEBE70648AE
:101A300076F002FC40F20570FEF73CFCEEE700BFDA
:101A4000EC6C00206CF00C0040F20C0038B54468DF
:101A5000A378C3B90120A0700546A3680BB128463E
:101A60009847237B8BB185B923694FF47A7103FBC7
:101A700001F12046FFF7BEFF0123237521690548C8
:101A800076F0DAFB01E0022B00D038BD0323A3700F
:101A90000025E2E764F20C0008B5037A427AF3B954
:101AA0002AB1012A0BD0022A11D000211AE0164ACD
:101AB00002211D2045F0F8FD4FF4487112E0134A51
:101AC00002211D2045F0F0FD4FF448710AE0104A54
:101AD00002211D2045F0E8FD4FF4485102E0012BA2
:101AE00006D000210B4801234375FFF783FF08BD93
:101AF0000AB10021F6E7084A02211D2045F0D4FD75
:101B000040F2DC51EEE700BF9CF20C00E8F20C0062
:101B100020F30C00D46C002094F30C00F8B50446BC
:101B20000E4615468378012B01D0427D02B15DB18E
:101B3000032B01D00020F8BD012D01D00020FAE7D1
:101B4000637D03BB002700E00227237D03B177B14B
:101B5000637D03B18FB90A212046FFF74BFFA770C1
:101B6000636893B13146284698470120E3E7002394
:101B700023752046FFF724FFEAE72046FFF720FF02
:101B800000236375E7E70020D5E70120D3E70000D5
:101B900010B54468237D03B910BD002323750448A4
:101BA00076F04AFB012211462046FFF7B7FFF3E724
:101BB00000F40C0010B54468637D03B910BD002328
:101BC0006375044876F038FB012211462046FFF782
:101BD000A5FFF3E724F40C0008B54FF6FF710120D0
:101BE000FFF78AFE08BD00002DE9F04184B00E46E3
:101BF00090461D4644688768A3B20093230C2B4A85
:101C000002211D2045F050FD062C0BD0082C14D0CD
:101C1000B4F5407F1FD0072C2BD0032C37D004B055
:101C2000BDE8F081002FF1D12A78B2FA82F2520990
:101C300002211F48FFF772FFF1E72B78CDF80C80E7
:101C400002930196BBB200933B0C1A4A02211D205D
:101C500045F02AFDE3E72B78CDF80C80029301963E
:101C6000BBB200933B0C144A02211D2045F01CFD21
:101C7000D5E72B78CDF80C8002930196BBB2009388
:101C80003B0C0E4A02211D2045F00EFDC7E72B78C4
:101C9000CDF80C8002930196BBB200933B0C084A2E
:101CA00002211D2045F000FDB9E700BF38F40C000B
:101CB000D46C002058F40C00A0F40C00E8F40C00E4
:101CC0003CF50C0070470000024A0260024A0260C4
:101CD000704700BFC0750D00E8F50C00012800D06A
:101CE000704708B54FF6FF73994200D008BD034A0C
:101CF00003490448CAF00DFCF8E700BF00000020CB
:101D0000C91C00006000002010B50446044B0360AD
:101D1000044B03600821CAF001FC204610BD00BF3F
:101D2000C0750D00E8F50C0010B5FEF708FD1B4866
:101D3000FFF7D8F850BB1A4C1A4BD3F85C1A204660
:101D400047F090FD204647F099FD174C204676F06D
:101D50003DFD85F0A1F97CF00FFF204676F047FDB0
:101D6000124876F069FA1248FFF7C6FA90B911489E
:101D700076F062FA04F060FB45F022FB0E4876F044
:101D80005BFAAC20FEF796FA002010BDAC20FEF7FF
:101D900091FAD0E7AC20FEF78DFAE8E780F50C0069
:101DA0006000002080E00120384C012090F50C00FC
:101DB000C06C0020A4F50C00C0F50C0010B5044662
:101DC00001F04FF8024621460148FFF767FC10BDBD
:101DD000C06C002008B54FF6FF710120FFF77EFFB1
:101DE00008BD38B141B10160028100228280C28009
:101DF000012070470020704700207047C28892B2CF
:101E000083889BB29A4216D0C28892B283889BB2D2
:101E10009A4209D20389828892B29B1AC08880B202
:101E200010FA83F080B27047C3889BB2808880B27A
:101E3000181A80B270470020704710B50489FFF768
:101E4000DDFF201A80B210BDF8B548B30F46154625
:101E5000044659B3038993422ED3FFF7EEFFA842FD
:101E60001DD32689E3889BB2F61AB6B2B54229D9AA
:101E70002368E0883246394613FA80F0CBF0A0FCA4
:101E8000AA1BB9192068CBF09BFCE28815FA82F5F1
:101E9000228995FBF2F302FB1355ADB2E580F8BD44
:101EA0000D4B0E4A96210E48CBF030FA0D4B0B4AE3
:101EB00097210B48CBF02AFA0B4B084A9821084887
:101EC000CBF024FA2368E0882A46394613FA80F0DA
:101ED000CBF076FCD9E700BF0CF60C0014F60C0032
:101EE00044F60C0088F60C0098F60C0070B5164607
:101EF0001D46DCB20E4B1A78A41AE4B20D48FFF767
:101F00009CFFA2B2904209D20B4B2A4631460B48A5
:101F1000006817F017FE78F09FFF70BD044C218811
:101F200031440448FFF790FF00232380ECE700BF13
:101F3000FC6E0020F06C0020ED1E000070010020FF
:101F4000F8B550B30F461546044661B30389934272
:101F50002FD3FFF753FFA84231D92689A3889BB21C
:101F6000F61AB6B2B5422FD92368A188324613FAC1
:101F700081F13846CBF024FCAA1B2168B819CBF0BC
:101F80001FFCA38815FA83F3228993FBF2F102FB6D
:101F900011339BB2A380E8B2F8BD104B104AB521B3
:101FA0001048CBF0B3F9104B0D4AB6210D48CBF0D9
:101FB000ADF90E4B0A4AB7210A48CBF0A7F92046E3
:101FC000FFF71CFF0546C8E72368A1882A4613FAD5
:101FD00081F13846CBF0F4FBD3E700BF0CF60C00E0
:101FE000B8F60C0044F60C00F0F60C00F8F60C0005
:101FF00038B500F051FD4FF480720F490F48FFF7DC
:10200000F0FE0F4D0F4C2B4680220F49206817F031
:1020100099FD2B4680220D49206817F093FD0C4B4B
:102020004FF48052C3F880211A600A4AD36C43F0FF
:102030000403D36438BD00BFFC6D0020F06C0020A9
:10204000ED1E000070010020FC6C00207C6D002063
:1020500000E100E00000014008B578F0FDFE08BD99
:1020600058B110B50C46014654B12246074B1868CA
:1020700017F050FB38B920B210BD4FF0FF30704759
:102080004FF0FF30F8E74FF0FF30F5E77001002028
:10209000002830D070B584B00C46054600292DD0FC
:1020A0001848FFF7ABFEA04207D322462946154841
:1020B000FFF746FF00B204B070BD02F0B2F9064669
:1020C00001AB02AA03A91048006817F0F2FA0F4BFF
:1020D0001B88029A934203D3304602F0A8F9E4E742
:1020E000D21A92B2039919440648FFF7ADFE074B86
:1020F000029A1A80F0E74FF0FF3070474FF0FF3040
:10210000D9E700BFF06C002070010020FC6E0020B9
:1021100070B504460A694B6952EA03001ED088680C
:10212000C96810EB000C41EB010E1CEB000C41EBFD
:102130000E0E4FEA4E1545EADC654FEA4C161CEBD5
:10214000060C4EEB050E1CEB000041EB0E01CAF035
:1021500053FF012323706070204670BD002323705D
:102160006370F9E7D0E9020170472D2070472D20F8
:10217000704701207047012070470000024A02604A
:10218000024A0260704700BF589E0D000CF80C0018
:1021900070474FF4806070470023836070470023CE
:1021A00043607047044A026020324260034A426042
:1021B000034A0260704700BF38F90C0028F80C0091
:1021C000E0F70C000346064A40F8042C203240F8A1
:1021D0000429044A4260044A43F8042C704700BFB3
:1021E00038F90C0028F80C00E0F70C0010B5044694
:1021F000154B03606033436010F5E87205D000F5BD
:10220000127300E0183B9A42FCD1104BE367203375
:10221000C4F880300E4BC4F880300E4BE36704F1F5
:102220003800A36D13B10022A265984704F108009D
:10223000A36A13B10022A2629847074B6360074B61
:102240002360204610BD00BF84620D0038F90C00E9
:1022500028F80C00E0F70C00F4F70C0098F80C00DC
:1022600038B505460446174B40F8043C603344F843
:10227000043910F5E67205D004F5127300E0183B3E
:102280009A42FCD1104BE3672033C4F880300F4BE7
:10229000C4F880300E4BE36704F13800A36D13B12E
:1022A0000022A265984704F10800A36A13B1002236
:1022B000A2629847074B6360074B45F8043C2046F1
:1022C00038BD00BF84620D0038F90C0028F80C00FE
:1022D000E0F70C00F4F70C0098F80C00024A0260DA
:1022E000024A0260704700BF3C660D00F0F80C0027
:1022F000024A0260024A0260704700BF9C650D00FE
:1023000048F80C0010B50446064B036020334360C8
:10231000054B4360054B03601021CAF0FFF82046CF
:1023200010BD00BF38F90C0028F80C00E0F70C00D5
:1023300010B50446084B40F8043C203344F80439F7
:10234000064B6360064B40F8043C10212046CAF05F
:10235000E5F8204610BD00BF38F90C0028F80C0045
:10236000E0F70C0010B50446054B0360006B18B194
:1023700074F05EF900232363024B2360204610BDF6
:102380004CD20D0084F70C0010B50446054B0360D9
:10239000406B08B147F0A0FC00236363024B23604D
:1023A000204610BD445B0D00B8F70C000E4B1B78A7
:1023B000BFF35B8F13F0010F01D00C48704710B5CD
:1023C0000948CAF0ADF808B9084810BD074C084BD9
:1023D0002360084B23600448CAF0AEF8064A074958
:1023E0002046CAF096F8EFE7006F0020046F002047
:1023F0000CF80C00589E0D00000000207D2100000C
:1024000010B50446054A01210C2045F04DF9E0685D
:1024100010B103689B68984710BD00BF14F70C000B
:1024200010B50446054A01210C2045F03DF9A0688D
:1024300010B103689B68984710BD00BF14F70C00EB
:1024400030B583B0C068D8B10D4614461A68019201
:1024500000221A6001AA21462AF0ECFC019808B17A
:1024600047F03AFC002301930C4B1B680093A388B0
:102470006BB12B8943F040032B81002003B030BDAA
:10248000074A01210C2045F00FF90020F6E7E38808
:10249000002BEED12378402BEBD1EEE770F90C0046
:1024A00028F70C0030B583B08068D8B10D461446CB
:1024B0001A68009200221A606A4621462AF0BAFC85
:1024C000009808B147F008FC002300930C4B1B68F0
:1024D0000193A3886BB12B8943F040032B8100202B
:1024E00003B030BD074A01210C2045F0DDF8002083
:1024F000F6E7E388002BEED12378402BEBD1EEE713
:1025000070F90C0028F70C00F0B587B006460C46B1
:10251000224A0321152045F0C7F8B568002D2DD0BB
:102520000023ADF810301E4B1B68039323893BB387
:102530001C4A1268039253B30123ADF81030277B75
:10254000606847F02DFB6368059304AB009305AB0F
:102550003A46A168284645F035FC0446059808B17E
:1025600047F0BAFB002305932CB1B06818B145F0D1
:102570005FFA0023B360204607B0F0BD0320FBE7FD
:102580006289022AD4D1227B142AD1D1D7E7638968
:10259000002BD1D1237B402BCED1D0E75CF70C00B0
:1025A00074F90C0070F90C00012800D070474FF648
:1025B000FF739942FAD170B58AB0474B474A1A6007
:1025C000474A5A60474A1A6060325A6003F108026B
:1025D000DA609A6000229A62DB6243491963CDF89F
:1025E00004D0CDF800D0089203F13801D963996383
:1025F0009A65DB653D4919669A66DA661A6783F85B
:1026000074209A673A49D9673A49C3F880103A4921
:10261000D9672031C3F88010C3F8AC20C3F8B020CC
:10262000C3F8B420C3F8B820C3F8BC21C3F8C02154
:1026300083F8C421C3F8C821042203F5E87303E03A
:10264000002103F8181B013A002AF9DA2248002475
:10265000C0F848420523C0F84C3280F85042274E5B
:1026600032462749C9F055FF324626492648C9F067
:1026700050FF324625492648C9F04BFF254D264BD1
:102680002B606C602C722846244B40F8103B8AF07B
:10269000A7FAC5F8D040C5F8D440C5F8D840C5F869
:1026A000DC4032461E492846C9F033FF1D481E4B08
:1026B000036000220023C0E90223C0E904231B4B6E
:1026C00003608461C4610463446332461849C9F0FD
:1026D00020FF0AB070BD00BF2070002098F80C00E9
:1026E000F4F70C0084620D00A1F4020059DE020030
:1026F000E0F70C0028F80C0038F90C00000000206E
:10270000ED210000DD22000068000020F122000021
:1027100070000020086F0020B8F70C00445B0D002B
:1027200089230000E86F002084F70C004CD20D00D4
:102730006523000010B50446044B0360044B03609E
:102740000421C9F0EBFE204610BD00BF589E0D00CD
:102750000CF80C00F0B583B00F4F38462BF0DEF9C3
:102760000E4901F50053D3F85C3A0D4A53600D4E03
:102770000D4D0095334638462BF0E6FE0B4B33618A
:102780000B4C2246394630462DF03AFA094B63632A
:1027900025626C6003B0F0BD2070002080C0012075
:1027A0006800002070000020086F002080510100A8
:1027B000E86F002070F70C0010B50446174B03605B
:1027C0006033436010F5E87205D000F5127300E045
:1027D000183B9A42FCD1124BE3672033C4F8803097
:1027E000104BC4F88030104BE36704F13800A36D40
:1027F00013B10022A265984704F10800A36A13B13F
:102800000022A2629847094B6360094B23604FF492
:102810001A712046C9F082FE204610BD84620D0068
:1028200038F90C0028F80C00E0F70C00F4F70C0065
:1028300098F80C0038B505460446194B40F8043C9E
:10284000603344F8043910F5E67205D004F51273CC
:1028500000E0183B9A42FCD1124BE3672033C4F8E6
:102860008030114BC4F88030104BE36704F138001E
:10287000A36D13B10022A265984704F10800A36A72
:1028800013B10022A2629847094B6360094B45F8D7
:10289000043C4FF41A712046C9F040FE204638BD72
:1028A00084620D0038F90C0028F80C00E0F70C00E9
:1028B000F4F70C0098F80C0010B50446044B0360C4
:1028C000044B03600821C9F029FE204610BD00BF5B
:1028D0003C660D00F0F80C0010B50446044B036094
:1028E000044B03601C21C9F019FE204610BD00BF37
:1028F0009C650D0048F80C0010B50446074B0360BA
:10290000406B08B147F0E8F900236363044B236090
:10291000E0212046C9F002FE204610BD445B0D00B8
:10292000B8F70C0010B50446074B0360006B18B1F4
:1029300073F07EFE00232363044B2360382120467E
:10294000C9F0ECFD204610BD4CD20D0084F70C0000
:1029500008B54FF6FF710120FFF726FE08BD000005
:102960002DE9F84380460F4616469946002509E0B2
:102970007A1908EB0401064817F0F1FD0134A6426C
:10298000F6DC0135A94501DD0024F8E7BDE8F88350
:102990008872002008B500F091F8A0B1002017F06F
:1029A000BBFC0146A0B9104817F07EFD014698B95E
:1029B0000D486FF07F4343600023836017F0A8FD4C
:1029C000014668B908BD0146084875F035FCE5E7E1
:1029D000074875F031FCE6E7064875F02DFCE7E79F
:1029E000054875F029FCEDE78872002078F90C00A5
:1029F00098F90C00ACF90C00C8F90C00F0B585B0E2
:102A0000012303934FF0FF330293042301930093B8
:102A100000231D4A1D49A1F07BFC78B11A48A0F0A3
:102A2000CFFD06461A4817F073FD06EB4607C7F1BF
:102A3000800707EBD7777F1000251CE0154875F05D
:102A4000FBFB1EE00134B44214DA2A4621460E484C
:102A5000A1F0E4FA0028F5D0F8B205EB45010144F5
:102A600004EB4403184403231A46C9B2C0B2FFF76B
:102A700077FFE7E70135B54201DA0024E3E717F015
:102A800079FC05B0F0BD00BFB47200204073002097
:102A900088720020E0F90C0008B50123042205210A
:102AA000002002F0F5FA002008BD08B5002304223A
:102AB0000521184602F0ECFA002008BD08B50123F4
:102AC00004220F21032002F0E3FA002008BD0000D9
:102AD00008B50121034800F013FF14F0AFFF15F013
:102AE000CDF808BD00350A0008B50121014800F005
:102AF00007FF08BD00350A0008B50D4BD3F828289C
:102B0000A2F17E63A3F58433B3F5104F0DD2094BC8
:102B10001B781BB1022B01D0002008E0D369984735
:102B200028B9044B01221A7001E04FF4817008BDEE
:102B30000000E10FCA7300204FF0005340F2022260
:102B40001A804FF20F025A800A4A012393601368D9
:102B500023F4E06343F480631360BFF34F8F0649AF
:102B6000CA6802F4E062054B1343CB60BFF34F8F9A
:102B700000BFFDE700500E4000ED00E00400FA0544
:102B800008B50A4BD3F82828A2F17E63A3F5843355
:102B9000B3F5104F09D2126BA2F17E63A3F5843313
:102BA000B3F5104F01D25368984708BD0000E10FFC
:102BB00008B50D4BD3F82828A2F17E63A3F5843322
:102BC000B3F5104F0AD2126BA2F17E63A3F58433E2
:102BD000B3F5104F05D29368984701E04FF4817028
:102BE00008BD4FF48170FBE70000E10F00B583B032
:102BF00001900F4BD3F82828A2F17E63A3F584330C
:102C0000B3F5104F0CD2126BA2F17E63A3F584339F
:102C1000B3F5104F09D29369012101A8984701E04B
:102C20004FF4817003B05DF804FB4FF48170F9E755
:102C30000000E10F10B50A4BD3F82848A4F17E63D9
:102C4000A3F58433B3F5104F04D2236B2BB15B6A29
:102C5000984701E04FF4017010BD4FF40170FBE79D
:102C60000000E10F08B50D4BD3F82828A2F17E63D0
:102C7000A3F58433B3F5104F0AD2126BA2F17E6331
:102C8000A3F58433B3F5104F05D2936A984701E05A
:102C90004FF4017008BD4FF40170FBE70000E10F35
:102CA00030B5E1B0124BD3F82838A3F17E63A3F519
:102CB0008433B3F5104F15D20C464FF4C0726946F9
:102CC000FFF7B8FF054678B921466846FFF7CAFF07
:102CD00040F201239842F7D040F20323984203D0F8
:102CE000054601E04FF40175284661B030BD00BFD4
:102CF0000000E10F10B50D4BD3F82848A4F17E6316
:102D0000A3F58433B3F5104F0AD2246BA4F17E638C
:102D1000A3F58433B3F5104F05D2A36B984701E0B8
:102D200040F2011010BD40F20110FBE70000E10F7E
:102D300008B50D4BD3F82828A2F17E63A3F58433A0
:102D4000B3F5104F0AD2126BA2F17E63A3F5843360
:102D5000B3F5104F05D2D36B984701E040F2011054
:102D600008BD40F20110FBE70000E10F2DE9F04142
:102D700090B01D46344BD3F82838A3F17E6CACF5E7
:102D8000843CBCF5104F51D206460C4617461B6BCF
:102D9000A3F17E63A3F58433B3F5104F4BD201A8A2
:102DA000FFF7EEFE059BD3F80C801FFA88F3002B8B
:102DB00044D00EA93046FFF7FBFEC8BB0E9E631938
:102DC0000F9A93423DD81FFA88F8B4FBF8F208FB3B
:102DD0001242F2B1C8F1000C0CEA04004044B3FB0B
:102DE000F8F108FB113179B103EA0C018844A8EB32
:102DF0000001304411B1FFF79BFFC8B92A4639469C
:102E00003019FFF777FF13E0A2EB080808EB050184
:102E1000EFE73019B5FBF8F308FB135323B1C8F102
:102E2000000129404144E5E72946E3E74FF481707A
:102E300010B0BDE8F0814FF48170F9E740F2014035
:102E4000F6E740F20240F3E70000E10F03680B6091
:102E50000160704708B543680BB1984708BD222050
:102E6000FCE708B543690BB1984708BDFF20FCE7B4
:102E70000B681A78022A00D1704710B508461A79F3
:102E8000597902EB42021201064C144401EBC402D0
:102E900092001268B2FA82F252091A70FEF78EFF9F
:102EA00010BD00BF1CA0100230B583B005460468F9
:102EB0000121174800F024FD0023012261792079C7
:102EC00002F0E6F82379627903EB43031B01114911
:102ED000194402EBC1039B001B68B3FA83F35B093F
:102EE0002370A379022B02D0002003B030BD00F084
:102EF00057FB2A460849607900F07AFB024661795F
:102F0000207901230193009302F044F8ECE700BF1D
:102F100000350A001CA01002712E0000036818780A
:102F20007047000002681378022B17D0137951798B
:102F300003EB43031B011648184401EBC0039B003D
:102F40001968B1F1000C18BF4FF0010C90790128FD
:102F500005D018B9B1FA81F1490911707047538849
:102F60005B009BB243EA0C0343F47F4343F0C0038E
:102F70004FF6E0718B4205D04FF6DF718B4204D0E3
:102F80005380704701211170F6E700211170F7E7B7
:102F90001CA0100208B503681A78022A00D008BDE8
:102FA00000225A80FFF780FFF9E710B582B004686D
:102FB0002378022B04D0A379022B03D002232370A1
:102FC00002B010BD0021607900F002FB6179207928
:102FD0000023019300930A4601F0DCFFEEE708B5F9
:102FE00043680068984708BD08B58368006898473B
:102FF00008BD08B5C3680068984708BD08B50369EF
:103000000068984708BD08B543690068984708BD3F
:1030100010B504460121094800F072FC012108485E
:1030200000F06EFCA378B3FA83F35B0904226178A5
:10303000207802F02DF8002010BD00BF40410500AF
:1030400000350A0083784BB90378427803EB4303D9
:103050001B0101219140064AD15070470378427804
:1030600003EB43031B0101219140024AD1507047F9
:103070000CA000440CA0004683784BB9037842783A
:1030800003EB43031B0101219140064AD1507047D5
:103090000378427803EB43031B0101219140024A6C
:1030A000D15070470CA000460CA000440378417832
:1030B00001228A4003EB43031B0103F1804303F524
:1030C00020439A617047000002460378417803EB81
:1030D00043031B010648184401EBC0039B0018681A
:1030E000C0B2937813B9B0FA80F04009704700BFBE
:1030F0000CA01002F0B585B00C4694469DF8341033
:10310000664A1278002A00F0BD800546BCF1070F20
:1031100000F2BA800A9A002A00F0B8800B9A002ABE
:1031200000F0B6800E9AB2F5006F00F3B38001286C
:103130005BD05B4A02EB0C12127B002A00F0AC80E1
:1031400000220092019202920392564A02EB4C1E18
:10315000002C4FD14FEA4C1600209051CEF80400BD
:10316000CEF80800CEF80C009EF8020040F01000E7
:103170008EF802009EF8030040F030008EF8030045
:1031800021B9C1B241F003018EF8031000930E9BE8
:10319000013B444A4FEA4C1002EB4C11165A63F3C0
:1031A0000E1616520A9B8B600B9B4B60CB789DF8DA
:1031B0003C2062F38303CB70012D36D0109B002B93
:1031C00056D0374A4FEA0C1102EB0C1310985050AE
:1031D000119A5A6000249C605D737246694660468D
:1031E00001F0FAFF204605B0F0BD0C9A002AA0D1EC
:1031F0002D48F8E72B4F4FEA4C1607EB4C120020F6
:10320000B85150609060D060907840F0100090709D
:10321000D07840F00300D0700029B7D107EB4C12F2
:10322000C1B241F03001D170B0E70E460A7B42F0E6
:1032300001020A73D2B242F002020A73CA68042180
:1032400061F39F02F26006F1100796E80F0087E82D
:103250000F00F2696FF0030161F39F02F2610C9BB2
:103260007361012CAAD10B9AB2610C9A7260A5E726
:10327000002DA6D10B4B03EB4C139A786FF304127D
:103280009A709EE70948AEE70748ACE70648AAE708
:103290000548A8E70448A6E70548A4E74C750020C0
:1032A000CC7300204C740020018000F0028000F0FC
:1032B000078000F0134B1B78FBB110B50446F0B14A
:1032C00001F0AFF80023072B13DC0F4A02EB0312C7
:1032D000127B0AB10133F6E723600B4A190102EBB6
:1032E000031301241C730024545001F0A0F820465D
:1032F00002E001F09CF8054810BD054870470548FC
:10330000FAE700BF4C750020CC730020048000F069
:10331000028000F0018000F000B583B0144B1B6800
:10332000019300238DF8043001F07BF8114B1B78DA
:1033300033B9104B01221A7001F079F8002309E02B
:1033400001F075F80C480FE00C4A02EB0312002163
:1033500011730133072BF7DD04238DF807300DEBD4
:10336000030001F00FFF002003B05DF804FB00BF75
:1033700000FA0C004C750020038000F0CC73002094
:1033800000B589B084460E9807900D9806909DF878
:10339000300005900B9804909DF8280003900020C1
:1033A0000290019300920B4662460121FFF7A2FEB4
:1033B00009B05DF804FB000008B50A4B1B785BB14F
:1033C00007280BD8084B03EB00131B7B43B10021EC
:1033D00001F0CEFE002008BD0448FCE70448FAE7EF
:1033E0000448F8E74C750020CC730020028000F000
:1033F000018000F0078000F008B50A4B1B785BB134
:1034000007280BD8084B03EB00131B7B43B10121AA
:1034100001F0AEFE002008BD0448FCE70448FAE7CE
:103420000448F8E74C750020CC730020028000F0BF
:10343000018000F0078000F0114B1B78BBB107281A
:1034400017D8C1B10F4B03EB00131B7BABB11F2887
:103450000AD80D4B1A6AC0B2012303FA00F00242E7
:1034600002D00B700020704700200870704707489A
:10347000704707487047064870470648704700BFC6
:103480004C750020CC73002000200E40028000F01C
:10349000018000F0078000F00C4B1B7873B110B571
:1034A0000C4607280CD869B1094B03EB00131B7BB2
:1034B00053B101F0E5FE2060002010BD05487047C3
:1034C0000548FAE70448F8E70448F6E74C75002099
:1034D000CC730020028000F0018000F0078000F033
:1034E000F8B5194B1F6EDB6E1F4002D40125002476
:1034F00002E0FEE701346D00072C24D83D42F9D0EC
:10350000114B9D662301114AD358002BF2D002EBD8
:103510000416B1680131B16072682046984780F0A6
:103520000100C0B2737B012BE4D10028E2D0084B2C
:1035300003EB44131A7B6FF341021A731A7F6FF384
:1035400041021A77D6E7F8BD00200E40CC73002068
:103550004C74002010B5044602E0202007E090479C
:10356000DCB194FAA4F00028F7D0B0FA80F001237F
:10357000834024EA0304094B03EB00135A68002A32
:10358000EED0064B03EB00131B7B002BE7D0034B65
:1035900003EB001399689047E2E710BD50750020D7
:1035A00008B5122000F046FF28B1084B4FF48022E6
:1035B000C3F880211A600A2000F03CFF28B1034BB9
:1035C0004FF48062C3F880211A6008BD00E100E07A
:1035D00038B505460C4600F024FF044B03EB0513F9
:1035E0005C6000221A7300F022FF38BD5075002085
:1035F000F8B505460F46164600F013FF05F0FC0C23
:10360000104BD3F828140023032B0CD8EC1804F02B
:10361000030444EA0C0421FA04F212F0010F03D06F
:103620000133DBB2F0E7FF24FF2C06D0064B03EB9F
:1036300004135F609E6001221A7300F0F8FE2046BA
:10364000F8BD00BF00A000405075002008B5064B33
:10365000D3F82804D3F81C24104000F05530C3F8E8
:103660002404FFF777FF08BD00A0004008B5064B13
:10367000D3F82804D3F81C24104000F0AA30C3F873
:103680002404FFF767FF08BD00A0004008B5034B06
:103690001968034B1868C7F08BFE08BDE0000020D6
:1036A000DC000020B0F1FF3F01D010B970470248A4
:1036B00070470248704700BF21E000F024E000F0AE
:1036C0008908002301E0043001338B4205D20268EF
:1036D000B2F1FF3FF7D000207047012070477047DC
:1036E000F8B505460E469400224601F0FFFEFFF7AE
:1036F000D9FF074628B9224631462846CAF050F875
:1037000008B93846F8BD014FFBE700BF10E000F0F4
:1037100008B50346084613F0030F02D111F0030F5A
:103720000AD092001946CAF04BF8002008BD53F8A1
:10373000041B40F8041B013A002AF8D1F5E7000009
:1037400038B5044601F074FEFFF7ACFF054660B9DA
:10375000084BD3F8E4301B0E0A3303F01F0301219A
:1037600099402046FFF7ACFF08B1284638BD024D0E
:10377000FBE700BF0081E00F0EE000F010B582B063
:10378000044601A801F076FF9DF80630238001224F
:10379000E270A270064BD3F8E4301B0E0A3303F03C
:1037A0001F0302FA03F36360002002B010BD00BFE4
:1037B0000081E00F08B501F093FD08BD08B501F0E8
:1037C0007FFD002008BD000008B500F023FE014B7E
:1037D000186008BDC07A002008B5024B186800F0D8
:1037E0001DFE08BDC07A0020704700000C4B9842B7
:1037F00005D90C4B984210D801210A4601E000215E
:103800000A46094B1A64094AD2F8003123F0807342
:1038100043EA0163C2F80031704702210122F0E758
:103820000048E8010090D0030000C84300400E406B
:10383000014B1868704700BF00010020114B5B6806
:10384000002300E00133042B0CD80F4A02EBC30223
:1038500092F804C0CAB29445F4D10B4A52F833200E
:103860008242EFD3052B0BD0074A02EBC3035979F1
:10387000044A536823F0407343EA0163536070477E
:103880000321F5E700000E4028FA0C0003300F2852
:1038900028BF0F200007704708B516F0E9FE044B5B
:1038A000D3F80031C3F3042303FB000008BD00BFBD
:1038B00000400E4038B5084B1C6CA4B241F671357F
:1038C0001D6416F0D1FE0021FFF7B8FFAC4202D014
:1038D000014B00221A6438BD00000E4038B5074B7A
:1038E0001C6CA4B241F671351D64FFF7A7FFAC4212
:1038F00002D0024B00221A6438BD00BF00000E4007
:1039000010B4C0F30323013B092B21D8DFE803F0F7
:103910000508202030232620292D0024164A01E006
:103920000024164AC0F3043054B1134BD3F8443189
:1039300013F0010F04D1104BD3F840311C42FAD1DF
:1039400002F1424303F5801300EBC30080000160E5
:103950005DF8044B70470124094AE3E71024094A43
:10396000E0E74FF48034084ADCE70024074AD9E74F
:103970000024074AD6E700BF00400E40C0400E407A
:10398000E0400E40E8400E40F0400E4050410E40F6
:10399000B0400E40C0F30313013B092B6BD8DFE8A6
:1039A00003F0050B111B6A6A2127415F334BD3F8E3
:1039B0000001C0F304207047304BD3F81401C0F36A
:1039C000042070472D4BD3F80001C0F30060431C66
:1039D0000120984001387047284BD3F80C01C0F300
:1039E00008207047254BD3F80801C0F30820704722
:1039F000234B984204D0234B98420AD000207047B2
:103A00001E4BD3F8203103F00F03012098400138FA
:103A100070471A4BD3F82031C3F3011301209840AB
:103A200001387047184B984207D003F5B01303F5DF
:103A3000805398420AD000207047104BD3F82831A9
:103A4000C3F3011301209840013870470B4BD3F8A2
:103A50002801C0F30120031D012098400138704760
:103A60000A4B984201D000207047044BD3F8300134
:103A700000F0030070470020704700BF00400E4078
:103A80008006160080162E0090171A00A009140058
:103A900008B5FFF77FFF013008BD000000F00F0000
:103AA0000138072865D8DFE800F0041B2A643E4D82
:103AB00064553B4BD3F8943003F00703023B052BCE
:103AC0000CD8DFE803F0055803070B090220704704
:103AD000042070470B2070470C207047052070476A
:103AE0002F4BD3F8803003F00703022B45D0042B73
:103AF00045D0012B01D00120704703207047284B8F
:103B0000D3F8843003F00703013B032B09D8DFE827
:103B100003F002380604032070470A20704706208D
:103B20007047012070471E4BD3F8883003F007031D
:103B3000022B28D0042B28D0012B01D00120704764
:103B400003207047164B1B6F13F001031FD003B304
:103B500009207047124BD3F85C3103F03003202B5F
:103B600019D0302B19D0102B01D00120704707201D
:103B700070470020704703207047022070470A20DA
:103B8000704702207047022070470A2070470720C4
:103B9000704701207047042070470820704700BF1D
:103BA00000400E4010B50446FFF778FF1B4B9C42C7
:103BB00012D01B4B9C4215D01A4B9C4206D00138A8
:103BC000032828D8DFE800F014171D1A164BD3F885
:103BD000800000F00700F2E7134BD3F8840000F0F8
:103BE0000700ECE7104BD3F8880000F00700E6E789
:103BF00016F0A2FD10BD16F0A5FDFBE716F09FFD27
:103C0000F8E716F035FD084BD3F80031C3F3006335
:103C10000133D840EEE70020ECE700BF03002000AE
:103C20000500240002001E0000400E4008B50748B1
:103C3000FFF734FF072804D0092805D116F018FD36
:103C400003E0FFF7F5FD00E0002008BD06000E00D0
:103C500008B10020704710B504460A48FFF71EFF60
:103C6000072805D0082809D0042804D0204610BD14
:103C7000FFF7DEFDFBE716F039FDF8E7FFF70CFE76
:103C8000F5E700BFB800320038B500F47813B3F59B
:103C9000B01F00F0938005463BD8B3F5402F00F0ED
:103CA000828010D9B3F5801F00F0AA80B3F5A01F61
:103CB00027D15748FFF776FF564BD3F8303103F042
:103CC0000303D8401CE0B3F5802F61D005D9B3F5CC
:103CD000202F14D116F0CCFC12E0002B55D0B3F5F8
:103CE000003F0AD116F0C4FC4A4BD3F80831C3F3A5
:103CF00008230133B0FBF3F002E0002000E00020D5
:103D000038BDB3F5602F02D1FFF790FFF8E7002030
:103D1000F6E7B3F5381F5BD00ED9B3F5481F72D064
:103D2000B3F5781F21D116F0A3FC04462846FFF70F
:103D3000AFFEB4FBF0F0E3E7B3F5001F52D006D9B5
:103D4000B3F5101F0FD13248FFF72CFFD8E7B3F5BA
:103D5000D01F4BD0B3F5F01F03D12F48FFF722FF40
:103D6000CEE70020CCE70020CAE7B3F5401F0AD118
:103D70002A48FFF717FF274BD3F82831C3F3012355
:103D80000433D840BCE70020BAE716F071FCB7E76F
:103D900016F06EFC1F4BD3F80C31C3F3082301332C
:103DA000B0FBF3F0ACE716F063FC1A4BD3F8143118
:103DB000C3F304230133B0FBF3F0A1E71648FFF788
:103DC000F1FE144BD3F8203103F00F03D84097E7EE
:103DD0001148FFF7E7FE0F4BD3F82031C3F301136F
:103DE000D8408DE70D48FFF7DDFE89E70B48FFF768
:103DF000D9FE084BD3F82831C3F30113D8407FE72D
:103E0000FFF716FD7CE70020FFF722FF78E700BFF1
:103E10000500240000400E4002001E0003002000A8
:103E200008B5FFF73BFE022802D04FF6FF7008BD31
:103E3000014B1888FBE700BF04010020014B186804
:103E4000704700BF90020020014B1880704700BFF0
:103E5000040100200138032818D8DFE800F002111F
:103E6000070C0B4B186AC0F308007047084B186921
:103E700000F07F007047064B986900F07F007047A4
:103E8000034BD3F89C00C0F30A0070470020704732
:103E900000400E4038B50C460138032812D8DFE840
:103EA00000F0022E1220C1F308041F4BD3F868382B
:103EB000002BFAD11D4A136A23F4FF7323F0010388
:103EC0002343136238BD01F07F04174BD3F86038E9
:103ED000002BFAD1154A136923F07F031C431461A8
:103EE000F0E701F07F04104BD3F86438002BFAD1CF
:103EF0000E4A936923F07F031C439461E2E70B4D64
:103F0000D5F890306B6A23F0300343F010036B62F6
:103F1000C1F3C310FFF7BAFC2A6B054B13402343D0
:103F200003432B63CEE700BF0020C84300400E4090
:103F300000F8FF0F134B5B6A13F0300F09D02029F4
:103F400014D0302915D009B10F4A04E04FF44002D3
:103F500001E04FF440020B4BD3F8903032EA0303F8
:103F6000F9D112F4800F07D1012070474FF40002FD
:103F7000F1E74FF44002EEE7024BD3F8A000C0F3A4
:103F80008020704700400E40FF33E107022801D037
:103F90000120704710B529B1054B4FF48064C3F878
:103FA000A84059660AB9012010BDFFF7C3FFFBE71F
:103FB00000400E4070B5042800F28580DFE800F074
:103FC000484250033C00022301250024AC4600294E
:103FD00067D002284AD000213B4B1D663B4B23444F
:103FE0009B001B68002BF9D0002A6CD0374C64442E
:103FF000A4002368002BF9D0022864D1002962D0E4
:10400000314B5B6A13F0010F46D001222021FFF7EC
:10401000BDFF0220FFF71EFF0646012200210220FD
:10402000FFF7C8FF31460220FFF734FF264B1D661D
:104030002368002BFCD046E02023102504244FF0F9
:10404000050CC4E78023402506244FF0070CBEE78B
:104050004FF400734FF4807508244FF0090CB6E755
:104060000823042502244FF0030CB0E7164B5B6ACB
:1040700013F0300F0ED1164BDB6B134B5B6A13F052
:10408000010FA9D0104E736A23F0300343F01003E0
:104090007362A1E700219FE700210220FFF74AFF9A
:1040A000B7E709490B66084BD3F890100123A340EA
:1040B0001942F8D13AB1044BD3F89020012303FA06
:1040C0000CF31A42F7D170BD00400E408004F2108C
:1040D00000300E4070B505460C4611280CD0002665
:1040E00005F00F056B1E072B00F28780DFE803F059
:1040F0001E7A1C856F9985A5042903D005290BD04C
:104100000026EDE716F0F2FA0646002EE8D0002170
:10411000304600F0F9FCE3E7FFF790FE0646604BFF
:104120009842F2D80026DBE75E4D51E0023C0A2CB3
:1041300063D8DFE804F00644093F626262626247C6
:104140004A000020042504E05748FFF74FFB0220F7
:10415000054601221146FFF72DFFFFF7ABFB4EB1DD
:10416000524BDB6B13F0400F04D1514BD3F8C830E6
:10417000002BFAD14F4B5D6716F0A6FA044616F0F5
:1041800077FAFFF733FB494BDB6B13F0400F04D199
:10419000474BD3F8C830002BFAD1444B5968C1F3D0
:1041A00001412046FFF79AFB3EBB0121002000F0B1
:1041B000ABFC22E03C48FFF719FB0320C9E70120D4
:1041C0000325C6E703200525C3E70725C5E73A4DC4
:1041D000013C092C11D8DFE804F007091110101870
:1041E00010101022354DF3E7002305E0012211469F
:1041F0000020FFF7DFFE02232B6070BD0122114675
:104200001046FFF7D7FE0123F6E716F031FAFFF765
:10421000EDFA2B4B0122C3F808260323ECE7042315
:10422000EAE7072C05D0092CE7D1224B01221A67B7
:10423000E3E7204B00221A67DFE7013C072CDCD8BC
:1042400001A353F824F000BF69420000FB410000C5
:10425000FB4100008D420000FB410000FB410000DB
:104260006D4200009B420000002105E00122114642
:104270000420FFF79FFE01210E4AD2F85C3123F0A3
:10428000300343EA0113C2F85C31B6E7012211465C
:104290000220FFF78FFE0221EEE70321ECE700BFCB
:1042A000002D310184400E400148E80100300E40ED
:1042B0000000C64300400E4088400E4080400E4043
:1042C0000010C84370B50C4615460AB11D4B1B685B
:1042D00016F00CFA0646012100F016FCADB904B93F
:1042E00025B1012211460220FFF764FE164B5A6ADF
:1042F00022F0405214B34FF080530DB34FF00051F1
:104300000B431343104A536270BD0E4BDB6B13F02B
:10431000400F04D10D4BD3F8C830002BFAD1094B14
:104320005968C1F301413046FFF7D8FA1120FFF771
:10433000AFFBB6FBF0F0FFF759FAD0E70023DCE75C
:104340000021DDE700300E4000400E400000C64373
:1043500070B504461120FFF7A1FB012200210220C5
:10436000FFF728FE237C022B2AD00022154E736A09
:1043700023F00103134373622278134BC3F8A02484
:10438000A288637A43EAC223F362356B05F07F6546
:10439000E38845EAC325A37A1D43207A45EAC01580
:1043A000FFF774FA05433563627BA37B1B0143EA85
:1043B0000233E27B1343227B43EA0243736370BD03
:1043C0000122D3E700400E400000C84338B505463F
:1043D0001120FFF763FB0D4A916B0D4B0B402C78BE
:1043E0001C436B7844EAC324AB7844EA0364EB785B
:1043F00044EA0324936BA34200D138BD012200217B
:104400000846FFF7D7FD014B9C63F6E700400E40DE
:1044100080E4FFF8EFF3108072B6704700B962B61F
:104420007047EFF31180602383F31188704780F3A6
:10443000118870474209064B53F8223000F01F00E4
:1044400023FA00F080F0010000F00100704700BF87
:1044500000E100E0EFF3108313F0010F36D110B547
:104460000446FFF7E7FF00B110BD002C22DB04F18A
:10447000604404F5614494F800235209EFF311837A
:1044800013B1B2EB531F23D2124B5B68C3F3080383
:10449000002BE9D0103BD9B25BB2002B10DB03F14B
:1044A000604303F5614393F800335B099A42DBD321
:1044B0000120D9E704F00F04074B1A5D5209DDE72C
:1044C00001F00F01044B5B5C5B09EFE701207047D3
:1044D0000120C9E700ED00E014ED00E030B40D6804
:1044E0004C688A68CB68056004600260036030BC79
:1044F000704730B405680468026803680D604C605A
:104500008A60CB6030BC704708B5FFF7E7FF08BD95
:1045100000B585B084460B4611F0030F0DD0EE4672
:10452000086849689A68DB68AEE80F00694660462B
:10453000FFF7EAFF05B05DF804FB00910099FFF773
:10454000E3FFF7E708B5FFF7D4FF08BD10B584B067
:104550000C4611F0030F0BD06946FFF7F3FFEC4652
:10456000BCE80F0020606160A260E36004B010BD91
:1045700000910099FFF7E6FFF8E738B504460D46CD
:10458000FFF7ACFF05F110012046FFF7A7FF38BD8C
:1045900038B504460D46FFF7ACFF05F11001204683
:1045A000FFF7A7FF38BD38B504460D46FFF796FF65
:1045B00005F110012046FFF791FF05F1200120468B
:1045C000FFF78CFF05F130012046FFF787FF38BD6C
:1045D00008B5102A0AD000F1424303F580135B01AD
:1045E00000221A602430FFF779FF08BD00F1424332
:1045F00003F580135B0101221A6000F58870FFF754
:10460000BCFFF2E730B589B005460C46964611F07E
:10461000030F1DD0082A13D0EC4608684968A26829
:10462000E368ACE80F0020696169A269E369ACE85E
:104630000F00724669462846FFF7CAFF09B030BD31
:10464000EC4608684968A268E368ACE80F00F0E748
:1046500000910099FFF7BCFFF0E7436823F01F03C8
:104660000E2910D8DFE801F008080808080B0B0B2A
:10467000080808080B0B0B001943416070471943E9
:1046800041F010014160704770B50E46154600F1CB
:1046900020042046FFF72DFF102D00D070BD06F13D
:1046A00010012046FFF725FFF8E730B589B00C462A
:1046B000154611F0030F17D06946FFF7E5FF082DE7
:1046C0000BD06D460FCD20606160A260E3600FCD1E
:1046D00020616161A261E3610AE06D460FCD206057
:1046E0006160A260E36003E000910099FFF7CCFFF6
:1046F00009B030BD1A48C26CC2F30322194B1B88A3
:1047000003F1280103EB51032833013202EB82014C
:10471000B3FBF1F3013B072B28BF0723C16C21F04A
:10472000EE6141EA036343F48013C3640E4BB3F9B3
:104730000030002B13DB9BB203F1280103EB510384
:104740002833510801EB4202B3FBF2F3072B28BFD9
:104750000723026D22F0700242EA031303657047DB
:1047600000300E407A7B00207C7B0020024B1880BA
:10477000024B1980704700BF7A7B00207C7B0020B1
:1047800010B1012804D07047034B044A9A65704762
:10479000014B034A9A65704700300E40774020571E
:1047A000372110B71A4BD3F83032032929D8DFE864
:1047B00001F002121518DBB24AB91B0333F4704141
:1047C00021D11448C16E21F470411943C166012AF8
:1047D00009D001207047C3F30723EDE7C3F3074374
:1047E000EAE71B0EE8E71B0333F470420DD10949D9
:1047F000D1F8EC2022F470421343C1F8EC300120D0
:10480000704700207047002070470020704700BFAD
:104810000081E00F00300E401B02A2B101221343C1
:10482000B3F5007F4DD022D8B3F5807F42D00CD9AC
:1048300040F20112934215D1294BD3F824321A0EBB
:10484000C3F3074310E00022E9E763B3012B06D16D
:10485000234BD3F82432C3F30722DBB204E0002257
:10486000134601E00022134603600A607047B3F567
:10487000407F2DD040F20132934206D1184BD3F83D
:1048800028321A0EC3F30743EEE740F201229342A7
:1048900006D1134BD3F82832C3F30722DBB2E3E788
:1048A00000221346E0E70E4BD3F81C32C3F3072275
:1048B000DBB2D9E70A4BD3F81C321A0EC3F3074315
:1048C000D2E7074BD3F82032C3F30722DBB2CBE7A2
:1048D000034BD3F820321A0EC3F30743C4E700BFDB
:1048E0000081E00F10B5002855D0464BDB6B13F06C
:1048F000400F07D1444B1B78C3F1020210239340B1
:10490000404A1361414AD2F8804104F0010445F65F
:104910000E03C2F880313E4B1B6803F0010003F028
:104920001001084303F04001084303F00401014370
:1049300003F480730B431366324BDB6B13F0400FB1
:1049400004D1344BD3F8C830002BFAD12D4B1B685F
:1049500013F0100F0DD02D4BD3F8403113F0807FA2
:10496000F9D12D4B1A68294B1A612C4B1B78052B5A
:1049700030D02A4B197805293FD1254B1B6813F0FD
:10498000010F02D1214B02221A661CB11F4B0022DB
:10499000C3F8802110BD1D4BD3F890201C4B1A602A
:1049A0001120FFF77BF81D4B1870164BDB6B13F0D3
:1049B000400F04D1174BD3F8C830002BFAD1114B5C
:1049C0005B68C3F30143104A1370104B1A69124B12
:1049D0001A60DFE7124B18680A4BDB6B13F0400FCD
:1049E00004D10C4BD3F8C830002BFAD1054B5968D1
:1049F000C1F30141FEF772FFBBE71120FFF76AFB2D
:104A0000BBE700BF00300E40857B002000400E4019
:104A1000747B00200000C643807B00207E7B00204A
:104A20009002002008B50120FFF75CFF08BD0000E0
:104A3000134B9A6922F03F020378D3B104234178E3
:104A4000C9B102210B438178B9B108210B43C17868
:104A5000012900D000210B4301790B431343084A7D
:104A60009361136823F44033417943EA01431360AF
:104A700070470023E3E70021E4E70021E6E700BFF9
:104A800000300E401D4BDB6B13F0400F35D170B57D
:104A900004460D46194BDB6B13F0400F04D1184B45
:104AA000D3F8C830002BFAD1144B5B68C3F3014331
:104AB0009C4218D0134BD3F8003115F0D9FD0646AF
:104AC000022C11D0C4F10202102393400B4A13614F
:104AD00045B1D36B13F0400F04D1094BD3F8C83064
:104AE000002BFAD124B170BD0221FEF7F7FEE9E7F1
:104AF00000213046FEF7F2FEF5E7704700300E4029
:104B00000000C64300400E4038B5114BDB6B13F07C
:104B1000400F0BD10C4650B10E4B1B7813B10E4B0E
:104B200098420FD921460020FFF7ACFF38BD0B4B50
:104B3000D3F80001C0F30420451C15F099FD05FBD6
:104B400000F0E9E721460220FFF79CFFEEE700BFF7
:104B500000300E40847B0020002D310100400E40CB
:104B600010B42C4B5A6B4AF6E8515963294B9B6F92
:104B700013F0010FFAD1274B1B6C13F0030303D082
:104B800025490124C1F8B44AD9B2814221D0032B6E
:104B900000D01BB9431EDBB2012B21D91D4B9B6FEB
:104BA00013F0010FFAD11B490B6C23F003030343ED
:104BB0000B64184B9B6F13F0010FFAD1003818BF2C
:104BC0000120154BC3F8B40A012A1FD05DF8044B2D
:104BD00070470028FAD1104B0022C3F8B42AF5E739
:104BE0000C4B4FF40021D9620A4B9B6F13F0010F5D
:104BF000FAD108490B6C23F0030343F001030B6463
:104C0000044B5B6A13F4002FFAD0C7E7014B002274
:104C10005A63DBE700300E400000C6432DE9F04F39
:104C20008DB000910192002309930A930B93069390
:104C300007930893039304930593664A1288ADF88B
:104C400008208DF80A30A0F5E163B3F5966F00F205
:104C5000B0800646B0F5E16F8CBF4FF001094FF010
:104C600000096FD94FF496644FF4E165B6F5E16F32
:104C70006DD9594BD3F8183208931A0E0592C3F325
:104C800007430893DFF85481D8F84C70C7F30177D5
:104C90008DF808703B464A4603A906A8FFF7BCFDFD
:104CA000D8F8EC30C3F301288DF8098043464A4612
:104CB00004A907A8FFF7B0FD721B089B0599C91A44
:104CC00002FB01F1B1FBF4F10B9119440B91DDF8FA
:104CD0000CA0DDF818C0AAEB0C0502FB05F5B5FB2E
:104CE000F4F5099565440995DDF810E00798AEEBF9
:104CF000000B0BFB02F2B2FBF4F40A9404440A9496
:104D0000059A8A4259D38B4259D8A64559D3A04215
:104D100059D8AA4559D3AC4559D8019B73B12F4BEB
:104D2000DB6D23F4FE4323F0020343EA0123B6F5CF
:104D3000E16F16D902210B43284AD365009B93B932
:104D4000012037E04FF416744FF496658EE7224B3E
:104D5000D3F818320893C3F307220592DBB2089305
:104D600090E70021E7E7002239464846FFF71AFDA1
:104D700000B3012241464846FFF714FDD0B1AC42D2
:104D800038BF2C460994E72C28BFE7240994134B1D
:104D90005B6E23F4FF7323F0010343EA4403B6F58B
:104DA000E16F04D9012213430C4A536602E000224A
:104DB000F9E700200DB0BDE8F08F0020FAE70020F1
:104DC000F8E70020F6E70020F4E70020F2E70020F3
:104DD000F0E700BF50FA0C000081E00F00300E40F9
:104DE00008B5214B1A6FDB6C13F0010F09D012F0DC
:104DF000060F06D013281FD9143813281ED80823ED
:104E000023E0194BDB6C13F0010F09D112F0060FF0
:104E100006D1092814D90A38092813D8082314E020
:104E2000114BDB6C13F001030FD012F0060F0BD106
:104E3000272817D8082308E0042306E0102304E0FD
:104E4000042302E0102300E00023013B1A0342EA9E
:104E500003220549CB6C23F47F431343CB64FFF754
:104E600049FC08BD1023F0E700300E4008B5074BA1
:104E7000D3F88039064A136F23F0070303431367FF
:104E8000044B1888FFF7ACFF08BD00BF0000C64305
:104E900000300E40787B002008B5084AD36E43F0FE
:104EA0008073D366064BD3F880391BB10420FFF71B
:104EB000DDFF08BD0020FFF7D9FFFAE700300E4004
:104EC0000000C64338B5304B02229A639B6B03F057
:104ED0000F03934254D10446B0F90C10C3884A2BF7
:104EE00009D9B3F5FA7F41D340F6C312934240D8B3
:104EF0004FF0005200E00022234BDB6C23F04053C4
:104F000023F00103002937DB01210A4313431E4A22
:104F1000D364D2F8EC3043F44073C2F8EC30A2888A
:104F20001A4B1A80FFF7B8FFB4F90C102089FFF76D
:104F30001DFCA088FFF754FFA07BFFF721FC012296
:104F400011466088FFF76AFE0546D0B10E4AD36B62
:104F500043F48063D3636078FFF702FEA37A202BCB
:104F60000CD000220A4BC3F894270AE04FF080527D
:104F7000C2E74FF04052BFE70021C6E70122F1E748
:104F80000025284638BD00BF00300E40787B002049
:104F90000000C6432DE9F8430C4615461E46072A75
:104FA00041D893004FF00F0808FA03F800FA03F70E
:104FB000FFF730FA324AD2F8001487EA010303EA15
:104FC00008034B40C2F80034FFF728FA4FF00008FE
:104FD000072D3FD8A90003278F4004F003048C401D
:104FE000FFF718FA264BD3F8082454403C405440AD
:104FF000C3F80844FFF712FA224B2B449B001E60B3
:10500000214B2B449B009DF820201A600123AB40CC
:105010001B4AC2F824341D4B2B449B009DF82420CE
:105020001A60BDE8F883A2F108084FEA88030F2749
:1050300007FA03F900FA03F7FFF7ECF9104BD3F87E
:105040000424574007EA09075740C3F80474FFF7E0
:10505000E5F9BDE74FEA8808032707FA08F704F0E7
:10506000030404FA08F4FFF7D5F9054BD3F80C2430
:1050700054403C405440C3F80C44FFF7CFF9BBE721
:1050800000A0004080208510A020851040218510C0
:105090002DE9F04704460E461F4690463AB183B3C9
:1050A00000EB400109010122B2402D4B5A50072E5E
:1050B0002FD804EB44031B01DFF8AC909944B300F4
:1050C0004FF00F0A0AFA03FA08FA03F5FFF7A2F9FC
:1050D000D9F8002085EA020303EA0A035340C9F81D
:1050E0000030FFF79BF9B8F1000F08D177B304EB5C
:1050F00044042401012101FA06F6194B1E51BDE8B2
:10510000F08700EB400109010122B240154B5A50D3
:10511000CDE704EB44031B01DFF850909944A6F15E
:10512000080292004FF00F0A0AFA02FA08FA02F592
:10513000FFF770F9D9F8003085EA030202EA0A02A3
:105140005A40C9F80020FFF769F9CCE704EB4404A2
:105150002401012101FA06F6024B1E51CFE700BFE0
:105160000CA000460CA0004404A0004008A0004091
:1051700081F00101024B03449B001960704700BF9E
:10518000A001F11010B5044601214FF4AA40FEF72A
:10519000B7FB23786178A27842EA012242EA0362EF
:1051A0000B4B1A6000221A62DA625A634FF0004217
:1051B000DA664FF0FF329A66064A4FF40071C2F881
:1051C0008011E3785B01DBB282F80933116010BD16
:1051D00000200E4000E100E070B50C46C3B201258E
:1051E0009D40254EB5660B6800EB400106EB0111B2
:1051F000C1F88030637BC1F8883094F80AC0E37A44
:105200001B0543EA0C4394F80CC043EA4C53C1F825
:10521000843022F00302C1F89820FFF702F9F36E00
:105220002B43F366237A13B1736B2B437363637A57
:105230001BB1114AD36A2B43D3620F4B1B682279EF
:1052400022B1D243120262F47F42134062790AB162
:1052500043EA0223A2791AB1D24362F0FF0213405B
:10526000E27902B11343044A1360044B9D62D56393
:10527000FFF7DDF870BD00BF00200E4000200E4497
:10528000F8B50446C3B201259D40FFF7CAF80B4BA1
:105290001F6E9E6A04EB440403EB0414D4F88C40A4
:1052A000FFF7C5F82F40C4F30A10354203D100B907
:1052B00007B90130F8BD0020FCE700BF00200E4018
:1052C000054B5A685B68054B41F671321A649A685F
:1052D00022F001029A60704700300E4000000E403C
:1052E000034B9A6822F001029A6000221A64704708
:1052F00000000E400C4B0D4AD26912F0010F02D093
:105300000BB1013BF7E74BB1084B18610122DA60A2
:10531000DB6913F0040F04D1002070476FF0020026
:1053200070474FF0FF3070478096980000000E40A5
:105330008C46D1B900207047DBB1114BDB6913F00B
:10534000020F19D1614512D250F8042B0C4B9A610F
:1053500001310822DA600B4B094AD26912F0010FC1
:10536000EAD0002BE8D0013BF6E70021EAE7002075
:1053700070476FF0020070476FF00100704700BF88
:1053800000000E40809698002DE9F04780460E46BA
:10539000254B196C1FFA81F941F6713119642349C3
:1053A00048684968996841F00101996097080023AD
:1053B0001D4614E01C498A6822F001028A60B9F196
:1053C000000F2DD00A460021116429E051463046D5
:1053D000FFF7AEFF0346C0B9554406EB8A06BD424F
:1053E00013D208EB85042046FFF784FF034600280C
:1053F000E0D1C4F30A04C4F50064A308A7EB050ACE
:10540000BAEB940FE2D39A46E0E707498A6822F0A4
:1054100001028A60B9F1000F02D00A46002111642E
:105420001846BDE8F08700BF00000E4000300E4077
:1054300010B42B4B196C89B241F671321A64294AA7
:10544000546852689A6842F001029A601861012219
:10545000DA60DB6913F0040F0BD1214B0222DA6012
:10546000214B1F4AD26912F0010F0ED06BB1013BE4
:10547000F7E71B4A936823F00103936011B11346C9
:1054800000221A644FF0FF300DE0154AD26912F085
:10549000020F0BD1B3B1124A936823F0010393605A
:1054A000E1B1002010645DF8044B70470C4A93682A
:1054B00023F00103936011B1134600221A646FF0C8
:1054C0000100F0E7064A936823F00103936011B1ED
:1054D000134600221A646FF00200E4E70020E2E7BE
:1054E00000000E4000300E408096980008B5FFF78F
:1054F0004BFF08BD1430044B53F8200020F0F80097
:105500004004400C704700BF00600E4001F4FE41B3
:1055100002F00702114341EA03511430014B43F8F2
:105520002010704700600E4038B5054600240B2C53
:1055300006DC29462046FFF7DDFF18B10134F6E707
:105540004FF0FF34204638BD014B01229A6070476E
:1055500000500E4010B4184B5C68002318460BE056
:10556000B2F5803F21D0154A52F83320224202D0B2
:10557000214200D110430133082B19D80F4A02EB06
:10558000C30251680E4AD2F8E82112F0040FEAD1A2
:105590000A4A52F83320B2F5006F06D0E0D8B2F5CF
:1055A000007F02D0B2F5806FDDD141F48071DAE77F
:1055B0005DF8044B704700BF00500E4054FA0C00D9
:1055C0000040E00F4A790B7891F801C043EA8C0360
:1055D00091F802C043EA8C1391F803C043EA0C131C
:1055E00091F804C043EACC2343EA02338A7943EAC0
:1055F000424304300001014A135070470020044028
:10560000014B1860704700BF00008442037813B359
:10561000012342780AB3042213438278FAB110229C
:105620001343C278EAB120221343027943EA0223EA
:10563000427943EA02338279AAB14FF4004213431C
:10564000C27943EA0243027A7AB14FF4003213433B
:10565000074A136070470023DBE70022DCE70022E3
:10566000DEE70022E0E70022E9E70022EFE700BFE3
:10567000002004400D4AD2F8E4309B0003F03C03C4
:10568000D2F8E010C1F381110B438370D2F8E030FF
:1056900003F03F034370D2F8E83003F0F003D2F890
:1056A000EC20C2F3031213430370704700FF0FE0B6
:1056B00038B50446BBF02AFD054DA446BCE80F00F2
:1056C0000FC59CE80F0085E80F00002038BD00BF23
:1056D000887B002047F6FF739A4277D0022977D85B
:1056E00070B53D4B03EBC1008078012838BF012025
:1056F000844613F83130012B22D0374B03EBC10322
:105700005C68002C66D0B4F90050954204DBB4F913
:105710000250954200DC1546A388FF2B2BD028268B
:10572000C8230022AE465B1B93FBF6F313442A4AC0
:1057300002EBC1014D78691E994231D319462FE021
:10574000254B03EBC103D878A0EB0C000025A84241
:105750000ED9431BA0EB53031F4C04EBC104646838
:1057600034F91340944201DC1D46F0E7581EEEE781
:105770006044C0B229E0B4F90630B4F908600122EF
:10578000D0E703F5FA73154AA2FB03239B094A1CD1
:10579000954210D904EBC206B6889E420BD311463F
:1057A00004EBC1029368B2F9062002FB0E33002B12
:1057B000E7DA0023E5E704EBC1018A889A4200D3C7
:1057C0001A46624500D31046C0B270BDFF20704734
:1057D000002070470020F8E7887B0020D34D62103E
:1057E000022973D83D4B13F83130012B2FD0002AFA
:1057F0006ED010B5394B03EBC1035C68002C69D047
:1058000014F1040C68D0354B03EBC1039B78934231
:1058100039D2324B03EBC103DB78934236D92F4B9D
:1058200003EBC10191F801E00EF1FF3E5FFA8EFE3D
:10583000A388FF2B2DD0002373452CD2591C3CF894
:10584000310091B2884226D30133DBB2F4E7234B17
:1058500003EBC103DB78934200D21A461F4800EBEA
:10586000C100807801282CBF121A02F1FF32D2B297
:105870001B1A9A4200DD0022184B03EBC1014B6852
:1058800033F912007047B4F9020010BDB4F90000FA
:10589000FBE70123D0E74FF47A7101FB02F20CEB36
:1058A000C30CDCF80430D31ABCF9022002EBD2712D
:1058B00003EB610393FBF2F3B4F900009842E4DBDD
:1058C000B4F902009842E0DC18B2DEE70448704701
:1058D000044870470248D8E70148D6E7887B002093
:1058E0000080FFFF0CFEFFFF08B50348FFF7E0FE56
:1058F0000120BBF065FC08BD58600E0000487047F1
:105900000801002000B587B00023019302930393A0
:105910000493059302238DF804300D4B0293062265
:105920008DF80C2001238DF80D300C218DF80E1010
:105930008DF812208DF813300D238DF8143001A945
:105940004FF0FF30BBF0C0FD07B05DF804FB00BFB7
:10595000006A18006FF0040307E003F00F010A4A21
:105960000A44A021117601335BB2322B09DC002BF3
:10597000F3DB03F1604202F56142A02182F80013DB
:10598000F1E70020704700BFFCEC00E0BFF34F8F51
:105990000549CA6802F4E062044B1343CB60BFF3CD
:1059A0004F8F00BFFDE700BF00ED00E00400FA05E7
:1059B00008B5FFF7EBFF08BD0120012805D8431EFD
:1059C000034AD35C0BB90130F7E7C0B2704700BFA0
:1059D000B47B0020F8B506460F46032903D8DFE85C
:1059E00001F00A040608002506E0042504E010255D
:1059F00002E0402500E00125032E05D8DFE806F08F
:105A000002070A0D45F002050B4B1C6809E045F042
:105A10000805F9E745F02005F6E745F08005F3E7CE
:105A2000246844B163681A682A42F9D05B68394631
:105A300030469847F4E7F8BDB07B002010B5FEF77C
:105A4000E9FC0446164B1B78D3B1164B1B782BB9D7
:105A5000144B01221A70144B00221A70134B1B783E
:105A600093B92046FEF7DAFC012000F063F8FEF758
:105A7000D1FC04460B4B1B7863B9094B00221A700A
:105A80002046FEF7CBFC10BD00F053F8074B002278
:105A90001A70E6E700F050F8024B00221A70ECE7AB
:105AA000AC7B0020A97B0020AB7B0020AA7B0020E0
:105AB00038B50138144B1B5C0A46A1B101210B44D7
:105AC00011490B5472B1114B1D78012D0AD9FFF702
:105AD00073FF0446012808D9032D09D00B4B187811
